{
  "_format": "hh-sol-artifact-1",
  "contractName": "Shop",
  "sourceName": "contracts/Shop.sol",
  "abi": [
    {
      "inputs": [],
      "stateMutability": "nonpayable",
      "type": "constructor"
    },
    {
      "anonymous": false,
      "inputs": [
        {
          "indexed": false,
          "internalType": "uint256",
          "name": "id",
          "type": "uint256"
        },
        {
          "indexed": false,
          "internalType": "string",
          "name": "name",
          "type": "string"
        },
        {
          "indexed": false,
          "internalType": "uint256",
          "name": "price",
          "type": "uint256"
        },
        {
          "indexed": false,
          "internalType": "address",
          "name": "seller",
          "type": "address"
        }
      ],
      "name": "ItemListed",
      "type": "event"
    },
    {
      "anonymous": false,
      "inputs": [
        {
          "indexed": false,
          "internalType": "uint256",
          "name": "id",
          "type": "uint256"
        },
        {
          "indexed": false,
          "internalType": "address",
          "name": "buyer",
          "type": "address"
        }
      ],
      "name": "ItemPurchased",
      "type": "event"
    },
    {
      "inputs": [
        {
          "internalType": "uint256",
          "name": "_id",
          "type": "uint256"
        }
      ],
      "name": "buyItem",
      "outputs": [],
      "stateMutability": "payable",
      "type": "function"
    },
    {
      "inputs": [
        {
          "internalType": "uint256",
          "name": "_id",
          "type": "uint256"
        }
      ],
      "name": "getItem",
      "outputs": [
        {
          "components": [
            {
              "internalType": "uint256",
              "name": "id",
              "type": "uint256"
            },
            {
              "internalType": "string",
              "name": "name",
              "type": "string"
            },
            {
              "internalType": "uint256",
              "name": "price",
              "type": "uint256"
            },
            {
              "internalType": "address payable",
              "name": "seller",
              "type": "address"
            },
            {
              "internalType": "bool",
              "name": "purchased",
              "type": "bool"
            }
          ],
          "internalType": "struct Shop.Item",
          "name": "",
          "type": "tuple"
        }
      ],
      "stateMutability": "view",
      "type": "function"
    },
    {
      "inputs": [],
      "name": "itemCount",
      "outputs": [
        {
          "internalType": "uint256",
          "name": "",
          "type": "uint256"
        }
      ],
      "stateMutability": "view",
      "type": "function"
    },
    {
      "inputs": [
        {
          "internalType": "uint256",
          "name": "",
          "type": "uint256"
        }
      ],
      "name": "items",
      "outputs": [
        {
          "internalType": "uint256",
          "name": "id",
          "type": "uint256"
        },
        {
          "internalType": "string",
          "name": "name",
          "type": "string"
        },
        {
          "internalType": "uint256",
          "name": "price",
          "type": "uint256"
        },
        {
          "internalType": "address payable",
          "name": "seller",
          "type": "address"
        },
        {
          "internalType": "bool",
          "name": "purchased",
          "type": "bool"
        }
      ],
      "stateMutability": "view",
      "type": "function"
    },
    {
      "inputs": [
        {
          "internalType": "string",
          "name": "_name",
          "type": "string"
        },
        {
          "internalType": "uint256",
          "name": "_price",
          "type": "uint256"
        }
      ],
      "name": "listItem",
      "outputs": [],
      "stateMutability": "nonpayable",
      "type": "function"
    },
    {
      "inputs": [],
      "name": "owner",
      "outputs": [
        {
          "internalType": "address",
          "name": "",
          "type": "address"
        }
      ],
      "stateMutability": "view",
      "type": "function"
    }
  ],
  "bytecode": "0x6080604052600060015534801561001557600080fd5b50600080546001600160a01b0319163317905561095a806100376000396000f3fe6080604052600436106100555760003560e01c80633129e7731461005a5780636bfb0d01146100905780638511c937146100b45780638da5cb5b146100d6578063bfb231d21461010e578063e7fb74c71461013f575b600080fd5b34801561006657600080fd5b5061007a6100753660046105b5565b610152565b6040516100879190610614565b60405180910390f35b34801561009c57600080fd5b506100a660015481565b604051908152602001610087565b3480156100c057600080fd5b506100d46100cf366004610684565b61027f565b005b3480156100e257600080fd5b506000546100f6906001600160a01b031681565b6040516001600160a01b039091168152602001610087565b34801561011a57600080fd5b5061012e6101293660046105b5565b6103c2565b604051610087959493929190610739565b6100d461014d3660046105b5565b610488565b61018f6040518060a0016040528060008152602001606081526020016000815260200160006001600160a01b031681526020016000151581525090565b600260008381526020019081526020016000206040518060a0016040529081600082015481526020016001820180546101c79061077a565b80601f01602080910402602001604051908101604052809291908181526020018280546101f39061077a565b80156102405780601f1061021557610100808354040283529160200191610240565b820191906000526020600020905b81548152906001019060200180831161022357829003601f168201915b5050509183525050600282015460208201526003909101546001600160a01b0381166040830152600160a01b900460ff16151560609091015292915050565b600081116102d45760405162461bcd60e51b815260206004820152601f60248201527f5072696365206d7573742062652067726561746572207468616e207a65726f0060448201526064015b60405180910390fd5b600180549060006102e4836107b4565b90915550506040805160a081018252600180548083526020808401878152848601879052336060860152600060808601819052928352600290915293902082518155925191929190820190610339908261082a565b5060408281015160028301556060830151600390920180546080909401511515600160a01b026001600160a81b03199094166001600160a01b039093169290921792909217905560015490517f16244e47af8a7d2c923faa2cab44315c0514c7aa830682bbb9cc8f0d37ad7548916103b6918590859033906108ea565b60405180910390a15050565b600260205260009081526040902080546001820180549192916103e49061077a565b80601f01602080910402602001604051908101604052809291908181526020018280546104109061077a565b801561045d5780601f106104325761010080835404028352916020019161045d565b820191906000526020600020905b81548152906001019060200180831161044057829003601f168201915b5050505060028301546003909301549192916001600160a01b0381169150600160a01b900460ff1685565b60008181526002602052604090206003810154600160a01b900460ff16156104e65760405162461bcd60e51b8152602060048201526011602482015270125d195b48185b1c9958591e481cdbdb19607a1b60448201526064016102cb565b806002015434101561052f5760405162461bcd60e51b8152602060048201526012602482015271496e73756666696369656e742066756e647360701b60448201526064016102cb565b60038101546040516001600160a01b03909116903480156108fc02916000818181858888f1935050505015801561056a573d6000803e3d6000fd5b5060038101805460ff60a01b1916600160a01b179055604080518381523360208201527f7ce670ea54227685ed72f8669179c51b47ba2251ce7cfac367725a7b8f9b743d91016103b6565b6000602082840312156105c757600080fd5b5035919050565b6000815180845260005b818110156105f4576020818501810151868301820152016105d8565b506000602082860101526020601f19601f83011685010191505092915050565b60208152815160208201526000602083015160a0604084015261063a60c08401826105ce565b90506040840151606084015260018060a01b0360608501511660808401526080840151151560a08401528091505092915050565b634e487b7160e01b600052604160045260246000fd5b6000806040838503121561069757600080fd5b823567ffffffffffffffff808211156106af57600080fd5b818501915085601f8301126106c357600080fd5b8135818111156106d5576106d561066e565b604051601f8201601f19908116603f011681019083821181831017156106fd576106fd61066e565b8160405282815288602084870101111561071657600080fd5b826020860160208301376000602093820184015298969091013596505050505050565b85815260a06020820152600061075260a08301876105ce565b6040830195909552506001600160a01b03929092166060830152151560809091015292915050565b600181811c9082168061078e57607f821691505b6020821081036107ae57634e487b7160e01b600052602260045260246000fd5b50919050565b6000600182016107d457634e487b7160e01b600052601160045260246000fd5b5060010190565b601f82111561082557600081815260208120601f850160051c810160208610156108025750805b601f850160051c820191505b818110156108215782815560010161080e565b5050505b505050565b815167ffffffffffffffff8111156108445761084461066e565b61085881610852845461077a565b846107db565b602080601f83116001811461088d57600084156108755750858301515b600019600386901b1c1916600185901b178555610821565b600085815260208120601f198616915b828110156108bc5788860151825594840194600190910190840161089d565b50858210156108da5787850151600019600388901b60f8161c191681555b5050505050600190811b01905550565b84815260806020820152600061090360808301866105ce565b6040830194909452506001600160a01b03919091166060909101529291505056fea2646970667358221220e9e6eeb11e67ab050b2edcbd47b7dacaa8de668fcf6c81511ee9a0746730004264736f6c63430008140033",
  "linkReferences": {},
  "deployedLinkReferences": {}
}