{
  "_format": "hh-sol-artifact-1",
  "contractName": "PowerReward",
  "sourceName": "contracts/PowerReward.sol",
  "abi": [
    {
      "inputs": [
        {
          "internalType": "address",
          "name": "_rewardToken",
          "type": "address"
        },
        {
          "internalType": "address",
          "name": "_solarPanelContract",
          "type": "address"
        }
      ],
      "stateMutability": "nonpayable",
      "type": "constructor"
    },
    {
      "anonymous": false,
      "inputs": [
        {
          "indexed": true,
          "internalType": "address",
          "name": "user",
          "type": "address"
        },
        {
          "indexed": false,
          "internalType": "uint256",
          "name": "totalPower",
          "type": "uint256"
        },
        {
          "indexed": false,
          "internalType": "uint256",
          "name": "rewardAmount",
          "type": "uint256"
        }
      ],
      "name": "RewardClaimed",
      "type": "event"
    },
    {
      "inputs": [],
      "name": "claimReward",
      "outputs": [],
      "stateMutability": "nonpayable",
      "type": "function"
    },
    {
      "inputs": [
        {
          "internalType": "uint256",
          "name": "amount",
          "type": "uint256"
        }
      ],
      "name": "deposit",
      "outputs": [],
      "stateMutability": "nonpayable",
      "type": "function"
    },
    {
      "inputs": [
        {
          "internalType": "address",
          "name": "",
          "type": "address"
        }
      ],
      "name": "hasClaimed",
      "outputs": [
        {
          "internalType": "bool",
          "name": "",
          "type": "bool"
        }
      ],
      "stateMutability": "view",
      "type": "function"
    },
    {
      "inputs": [],
      "name": "owner",
      "outputs": [
        {
          "internalType": "address",
          "name": "",
          "type": "address"
        }
      ],
      "stateMutability": "view",
      "type": "function"
    },
    {
      "inputs": [],
      "name": "previewReward",
      "outputs": [
        {
          "internalType": "uint256",
          "name": "",
          "type": "uint256"
        }
      ],
      "stateMutability": "view",
      "type": "function"
    },
    {
      "inputs": [],
      "name": "rewardToken",
      "outputs": [
        {
          "internalType": "contract IERC20",
          "name": "",
          "type": "address"
        }
      ],
      "stateMutability": "view",
      "type": "function"
    },
    {
      "inputs": [],
      "name": "solarPanelContract",
      "outputs": [
        {
          "internalType": "contract ISolarPanels",
          "name": "",
          "type": "address"
        }
      ],
      "stateMutability": "view",
      "type": "function"
    }
  ],
  "bytecode": "0x608060405234801561001057600080fd5b5060405161095138038061095183398101604081905261002f9161008c565b600080546001600160a01b039384166001600160a01b03199182161790915560018054929093169181169190911790915560028054909116331790556100bf565b80516001600160a01b038116811461008757600080fd5b919050565b6000806040838503121561009f57600080fd5b6100a883610070565b91506100b660208401610070565b90509250929050565b610883806100ce6000396000f3fe608060405234801561001057600080fd5b506004361061007d5760003560e01c80638da5cb5b1161005b5780638da5cb5b146100fb578063b6b55f251461010e578063b88a802f14610123578063f7c618c11461012b57600080fd5b806342d6d0a5146100825780634a41dde0146100b257806373b2e80e146100c8575b600080fd5b600154610095906001600160a01b031681565b6040516001600160a01b0390911681526020015b60405180910390f35b6100ba61013e565b6040519081526020016100a9565b6100eb6100d63660046105e6565b60036020526000908152604090205460ff1681565b60405190151581526020016100a9565b600254610095906001600160a01b031681565b61012161011c36600461060a565b610220565b005b610121610326565b600054610095906001600160a01b031681565b3360009081526003602052604081205460ff161561015c5750600090565b6001546040805163ef4c094960e01b815290516000926001600160a01b03169163ef4c094991600480830192869291908290030181865afa1580156101a5573d6000803e3d6000fd5b505050506040513d6000823e601f3d908101601f191682016040526101cd91908101906106b4565b90506000805b8251811015610219578281815181106101ee576101ee6107d4565b602002602001015160c00151826102059190610800565b91508061021181610819565b9150506101d3565b5092915050565b6002546001600160a01b0316331461026b5760405162461bcd60e51b81526020600482015260096024820152682737ba1037bbb732b960b91b60448201526064015b60405180910390fd5b6000546040516323b872dd60e01b8152336004820152306024820152604481018390526001600160a01b03909116906323b872dd906064016020604051808303816000875af11580156102c2573d6000803e3d6000fd5b505050506040513d601f19601f820116820180604052508101906102e69190610832565b6103235760405162461bcd60e51b815260206004820152600e60248201526d11195c1bdcda5d0819985a5b195960921b6044820152606401610262565b50565b3360009081526003602052604090205460ff16156103785760405162461bcd60e51b815260206004820152600f60248201526e105b1c9958591e4818db185a5b5959608a1b6044820152606401610262565b6001546040805163ef4c094960e01b815290516000926001600160a01b03169163ef4c094991600480830192869291908290030181865afa1580156103c1573d6000803e3d6000fd5b505050506040513d6000823e601f3d908101601f191682016040526103e991908101906106b4565b9050600081511161042e5760405162461bcd60e51b815260206004820152600f60248201526e139bc81c185b995b1cc8199bdd5b99608a1b6044820152606401610262565b6000805b82518110156104785782818151811061044d5761044d6107d4565b602002602001015160c00151826104649190610800565b91508061047081610819565b915050610432565b50600081116104bb5760405162461bcd60e51b815260206004820152600f60248201526e139bc81c1bddd95c881bdd5d1c1d5d608a1b6044820152606401610262565b33600081815260036020526040808220805460ff191660011790559054905163a9059cbb60e01b815260048101929092526024820183905282916001600160a01b039091169063a9059cbb906044016020604051808303816000875af1158015610529573d6000803e3d6000fd5b505050506040513d601f19601f8201168201806040525081019061054d9190610832565b6105915760405162461bcd60e51b8152602060048201526015602482015274151bdad95b881d1c985b9cd9995c8819985a5b1959605a1b6044820152606401610262565b604080518381526020810183905233917ff01da32686223933d8a18a391060918c7f11a3648639edd87ae013e2e2731743910160405180910390a2505050565b6001600160a01b038116811461032357600080fd5b6000602082840312156105f857600080fd5b8135610603816105d1565b9392505050565b60006020828403121561061c57600080fd5b5035919050565b634e487b7160e01b600052604160045260246000fd5b604051610120810167ffffffffffffffff8111828210171561065d5761065d610623565b60405290565b604051601f8201601f1916810167ffffffffffffffff8111828210171561068c5761068c610623565b604052919050565b805161069f816105d1565b919050565b8051801515811461069f57600080fd5b600060208083850312156106c757600080fd5b825167ffffffffffffffff808211156106df57600080fd5b818501915085601f8301126106f357600080fd5b81518181111561070557610705610623565b610713848260051b01610663565b818152848101925061012091820284018501918883111561073357600080fd5b938501935b828510156107c85780858a0312156107505760008081fd5b610758610639565b85518152610767878701610694565b8188015260408681015190820152606080870151908201526080808701519082015260a0808701519082015260c0808701519082015260e080870151908201526101006107b58188016106a4565b9082015284529384019392850192610738565b50979650505050505050565b634e487b7160e01b600052603260045260246000fd5b634e487b7160e01b600052601160045260246000fd5b80820180821115610813576108136107ea565b92915050565b60006001820161082b5761082b6107ea565b5060010190565b60006020828403121561084457600080fd5b610603826106a456fea264697066735822122010e1dc55aad3380c8de5423cd235a0c23033f6a20915b599f8328d30f0b3ea2b64736f6c63430008140033",
  "linkReferences": {},
  "deployedLinkReferences": {}
}