{
  "_format": "hh-sol-artifact-1",
  "contractName": "MessageStore",
  "sourceName": "contracts/MessageStore.sol",
  "abi": [
    {
      "anonymous": false,
      "inputs": [
        {
          "indexed": true,
          "internalType": "address",
          "name": "sender",
          "type": "address"
        },
        {
          "indexed": false,
          "internalType": "string",
          "name": "content",
          "type": "string"
        },
        {
          "indexed": false,
          "internalType": "uint256",
          "name": "timestamp",
          "type": "uint256"
        }
      ],
      "name": "MessageSent",
      "type": "event"
    },
    {
      "inputs": [],
      "name": "getAllMessages",
      "outputs": [
        {
          "components": [
            {
              "internalType": "address",
              "name": "sender",
              "type": "address"
            },
            {
              "internalType": "string",
              "name": "content",
              "type": "string"
            },
            {
              "internalType": "uint256",
              "name": "timestamp",
              "type": "uint256"
            }
          ],
          "internalType": "struct MessageStore.Message[]",
          "name": "",
          "type": "tuple[]"
        }
      ],
      "stateMutability": "view",
      "type": "function"
    },
    {
      "inputs": [],
      "name": "getMessageCount",
      "outputs": [
        {
          "internalType": "uint256",
          "name": "",
          "type": "uint256"
        }
      ],
      "stateMutability": "view",
      "type": "function"
    },
    {
      "inputs": [
        {
          "internalType": "string",
          "name": "content",
          "type": "string"
        }
      ],
      "name": "sendMessage",
      "outputs": [],
      "stateMutability": "nonpayable",
      "type": "function"
    }
  ],
  "bytecode": "0x608060405234801561001057600080fd5b50610ad8806100206000396000f3fe608060405234801561001057600080fd5b50600436106100415760003560e01c80633193391614610046578063469c81101461006457806353f5e38014610080575b600080fd5b61004e61009e565b60405161005b91906103bf565b60405180910390f35b61007e60048036038101906100799190610449565b6100aa565b005b610088610255565b6040516100959190610688565b60405180910390f35b60008080549050905090565b600082829050116100f0576040517f08c379a00000000000000000000000000000000000000000000000000000000081526004016100e790610707565b60405180910390fd5b600060405180606001604052803373ffffffffffffffffffffffffffffffffffffffff16815260200184848080601f016020809104026020016040519081016040528093929190818152602001838380828437600081840152601f19601f820116905080830192505050505050508152602001428152509050600081908060018154018082558091505060019003906000526020600020906003020160009091909190915060008201518160000160006101000a81548173ffffffffffffffffffffffffffffffffffffffff021916908373ffffffffffffffffffffffffffffffffffffffff16021790555060208201518160010190816101f19190610962565b506040820151816002015550503373ffffffffffffffffffffffffffffffffffffffff167f4816bdd3b9d39acdd4da0ae7412d5523081e916c6a56e481063e475b86ef7c5b84844260405161024893929190610a70565b60405180910390a2505050565b60606000805480602002602001604051908101604052809291908181526020016000905b8282101561039d57838290600052602060002090600302016040518060600160405290816000820160009054906101000a900473ffffffffffffffffffffffffffffffffffffffff1673ffffffffffffffffffffffffffffffffffffffff1673ffffffffffffffffffffffffffffffffffffffff16815260200160018201805461030290610785565b80601f016020809104026020016040519081016040528092919081815260200182805461032e90610785565b801561037b5780601f106103505761010080835404028352916020019161037b565b820191906000526020600020905b81548152906001019060200180831161035e57829003601f168201915b5050505050815260200160028201548152505081526020019060010190610279565b50505050905090565b6000819050919050565b6103b9816103a6565b82525050565b60006020820190506103d460008301846103b0565b92915050565b600080fd5b600080fd5b600080fd5b600080fd5b600080fd5b60008083601f840112610409576104086103e4565b5b8235905067ffffffffffffffff811115610426576104256103e9565b5b602083019150836001820283011115610442576104416103ee565b5b9250929050565b600080602083850312156104605761045f6103da565b5b600083013567ffffffffffffffff81111561047e5761047d6103df565b5b61048a858286016103f3565b92509250509250929050565b600081519050919050565b600082825260208201905092915050565b6000819050602082019050919050565b600073ffffffffffffffffffffffffffffffffffffffff82169050919050565b60006104ed826104c2565b9050919050565b6104fd816104e2565b82525050565b600081519050919050565b600082825260208201905092915050565b60005b8381101561053d578082015181840152602081019050610522565b60008484015250505050565b6000601f19601f8301169050919050565b600061056582610503565b61056f818561050e565b935061057f81856020860161051f565b61058881610549565b840191505092915050565b61059c816103a6565b82525050565b60006060830160008301516105ba60008601826104f4565b50602083015184820360208601526105d2828261055a565b91505060408301516105e76040860182610593565b508091505092915050565b60006105fe83836105a2565b905092915050565b6000602082019050919050565b600061061e82610496565b61062881856104a1565b93508360208202850161063a856104b2565b8060005b85811015610676578484038952815161065785826105f2565b945061066283610606565b925060208a0199505060018101905061063e565b50829750879550505050505092915050565b600060208201905081810360008301526106a28184610613565b905092915050565b600082825260208201905092915050565b7f4d65737361676520636f6e74656e742063616e6e6f7420626520656d70747900600082015250565b60006106f1601f836106aa565b91506106fc826106bb565b602082019050919050565b60006020820190508181036000830152610720816106e4565b9050919050565b7f4e487b7100000000000000000000000000000000000000000000000000000000600052604160045260246000fd5b7f4e487b7100000000000000000000000000000000000000000000000000000000600052602260045260246000fd5b6000600282049050600182168061079d57607f821691505b6020821081036107b0576107af610756565b5b50919050565b60008190508160005260206000209050919050565b60006020601f8301049050919050565b600082821b905092915050565b6000600883026108187fffffffffffffffffffffffffffffffffffffffffffffffffffffffffffffffff826107db565b61082286836107db565b95508019841693508086168417925050509392505050565b6000819050919050565b600061085f61085a610855846103a6565b61083a565b6103a6565b9050919050565b6000819050919050565b61087983610844565b61088d61088582610866565b8484546107e8565b825550505050565b600090565b6108a2610895565b6108ad818484610870565b505050565b5b818110156108d1576108c660008261089a565b6001810190506108b3565b5050565b601f821115610916576108e7816107b6565b6108f0846107cb565b810160208510156108ff578190505b61091361090b856107cb565b8301826108b2565b50505b505050565b600082821c905092915050565b60006109396000198460080261091b565b1980831691505092915050565b60006109528383610928565b9150826002028217905092915050565b61096b82610503565b67ffffffffffffffff81111561098457610983610727565b5b61098e8254610785565b6109998282856108d5565b600060209050601f8311600181146109cc57600084156109ba578287015190505b6109c48582610946565b865550610a2c565b601f1984166109da866107b6565b60005b82811015610a02578489015182556001820191506020850194506020810190506109dd565b86831015610a1f5784890151610a1b601f891682610928565b8355505b6001600288020188555050505b505050505050565b82818337600083830152505050565b6000610a4f83856106aa565b9350610a5c838584610a34565b610a6583610549565b840190509392505050565b60006040820190508181036000830152610a8b818587610a43565b9050610a9a60208301846103b0565b94935050505056fea26469706673582212200c894db0619e32d2981553992f879c1b559d91c9dd469e94b676c097338918c564736f6c63430008110033",
  "linkReferences": {},
  "deployedLinkReferences": {}
}