{
  "_format": "hh-sol-artifact-1",
  "contractName": "Shop",
  "sourceName": "contracts/Shop.sol",
  "abi": [
    {
      "inputs": [
        {
          "internalType": "address",
          "name": "_tokenAddress",
          "type": "address"
        },
        {
          "internalType": "address",
          "name": "_solarPanelAddress",
          "type": "address"
        }
      ],
      "stateMutability": "nonpayable",
      "type": "constructor"
    },
    {
      "anonymous": false,
      "inputs": [
        {
          "indexed": false,
          "internalType": "uint256",
          "name": "id",
          "type": "uint256"
        },
        {
          "indexed": false,
          "internalType": "string",
          "name": "name",
          "type": "string"
        },
        {
          "indexed": false,
          "internalType": "uint256",
          "name": "price",
          "type": "uint256"
        },
        {
          "indexed": false,
          "internalType": "address",
          "name": "seller",
          "type": "address"
        }
      ],
      "name": "ItemListed",
      "type": "event"
    },
    {
      "anonymous": false,
      "inputs": [
        {
          "indexed": false,
          "internalType": "uint256",
          "name": "id",
          "type": "uint256"
        },
        {
          "indexed": false,
          "internalType": "address",
          "name": "buyer",
          "type": "address"
        }
      ],
      "name": "ItemSold",
      "type": "event"
    },
    {
      "anonymous": false,
      "inputs": [
        {
          "indexed": false,
          "internalType": "uint256",
          "name": "id",
          "type": "uint256"
        },
        {
          "indexed": false,
          "internalType": "address",
          "name": "buyer",
          "type": "address"
        }
      ],
      "name": "OfferPlaced",
      "type": "event"
    },
    {
      "inputs": [
        {
          "internalType": "uint256",
          "name": "_id",
          "type": "uint256"
        },
        {
          "internalType": "address",
          "name": "buyer",
          "type": "address"
        }
      ],
      "name": "approveSale",
      "outputs": [],
      "stateMutability": "nonpayable",
      "type": "function"
    },
    {
      "inputs": [
        {
          "internalType": "uint256",
          "name": "_id",
          "type": "uint256"
        }
      ],
      "name": "getItem",
      "outputs": [
        {
          "components": [
            {
              "internalType": "uint256",
              "name": "id",
              "type": "uint256"
            },
            {
              "internalType": "string",
              "name": "name",
              "type": "string"
            },
            {
              "internalType": "uint256",
              "name": "price",
              "type": "uint256"
            },
            {
              "internalType": "address",
              "name": "seller",
              "type": "address"
            },
            {
              "internalType": "bool",
              "name": "purchased",
              "type": "bool"
            },
            {
              "internalType": "uint256",
              "name": "latitude",
              "type": "uint256"
            },
            {
              "internalType": "uint256",
              "name": "longitude",
              "type": "uint256"
            },
            {
              "internalType": "uint256",
              "name": "batteryTemperature",
              "type": "uint256"
            },
            {
              "internalType": "uint256",
              "name": "dcPower",
              "type": "uint256"
            },
            {
              "internalType": "uint256",
              "name": "acPower",
              "type": "uint256"
            },
            {
              "internalType": "uint256",
              "name": "createdAt",
              "type": "uint256"
            },
            {
              "internalType": "uint256",
              "name": "panelId",
              "type": "uint256"
            }
          ],
          "internalType": "struct Shop.Item",
          "name": "",
          "type": "tuple"
        }
      ],
      "stateMutability": "view",
      "type": "function"
    },
    {
      "inputs": [
        {
          "internalType": "uint256",
          "name": "_id",
          "type": "uint256"
        }
      ],
      "name": "getPanelInfo",
      "outputs": [
        {
          "internalType": "uint256",
          "name": "",
          "type": "uint256"
        },
        {
          "internalType": "uint256",
          "name": "",
          "type": "uint256"
        },
        {
          "internalType": "uint256",
          "name": "",
          "type": "uint256"
        },
        {
          "internalType": "uint256",
          "name": "",
          "type": "uint256"
        },
        {
          "internalType": "uint256",
          "name": "",
          "type": "uint256"
        },
        {
          "internalType": "uint256",
          "name": "",
          "type": "uint256"
        }
      ],
      "stateMutability": "view",
      "type": "function"
    },
    {
      "inputs": [
        {
          "internalType": "uint256",
          "name": "_id",
          "type": "uint256"
        }
      ],
      "name": "getPendingBuyers",
      "outputs": [
        {
          "internalType": "address[]",
          "name": "",
          "type": "address[]"
        }
      ],
      "stateMutability": "view",
      "type": "function"
    },
    {
      "inputs": [
        {
          "internalType": "address",
          "name": "_buyer",
          "type": "address"
        }
      ],
      "name": "getPurchaseHistory",
      "outputs": [
        {
          "components": [
            {
              "internalType": "uint256",
              "name": "itemId",
              "type": "uint256"
            },
            {
              "internalType": "address",
              "name": "buyer",
              "type": "address"
            },
            {
              "internalType": "uint256",
              "name": "price",
              "type": "uint256"
            },
            {
              "internalType": "uint256",
              "name": "timestamp",
              "type": "uint256"
            }
          ],
          "internalType": "struct Shop.Purchase[]",
          "name": "",
          "type": "tuple[]"
        }
      ],
      "stateMutability": "view",
      "type": "function"
    },
    {
      "inputs": [
        {
          "internalType": "uint256",
          "name": "",
          "type": "uint256"
        },
        {
          "internalType": "address",
          "name": "",
          "type": "address"
        }
      ],
      "name": "hasOffered",
      "outputs": [
        {
          "internalType": "bool",
          "name": "",
          "type": "bool"
        }
      ],
      "stateMutability": "view",
      "type": "function"
    },
    {
      "inputs": [
        {
          "internalType": "uint256",
          "name": "_id",
          "type": "uint256"
        },
        {
          "internalType": "address",
          "name": "user",
          "type": "address"
        }
      ],
      "name": "hasUserOffered",
      "outputs": [
        {
          "internalType": "bool",
          "name": "",
          "type": "bool"
        }
      ],
      "stateMutability": "view",
      "type": "function"
    },
    {
      "inputs": [],
      "name": "itemCount",
      "outputs": [
        {
          "internalType": "uint256",
          "name": "",
          "type": "uint256"
        }
      ],
      "stateMutability": "view",
      "type": "function"
    },
    {
      "inputs": [
        {
          "internalType": "uint256",
          "name": "",
          "type": "uint256"
        }
      ],
      "name": "items",
      "outputs": [
        {
          "internalType": "uint256",
          "name": "id",
          "type": "uint256"
        },
        {
          "internalType": "string",
          "name": "name",
          "type": "string"
        },
        {
          "internalType": "uint256",
          "name": "price",
          "type": "uint256"
        },
        {
          "internalType": "address",
          "name": "seller",
          "type": "address"
        },
        {
          "internalType": "bool",
          "name": "purchased",
          "type": "bool"
        },
        {
          "internalType": "uint256",
          "name": "latitude",
          "type": "uint256"
        },
        {
          "internalType": "uint256",
          "name": "longitude",
          "type": "uint256"
        },
        {
          "internalType": "uint256",
          "name": "batteryTemperature",
          "type": "uint256"
        },
        {
          "internalType": "uint256",
          "name": "dcPower",
          "type": "uint256"
        },
        {
          "internalType": "uint256",
          "name": "acPower",
          "type": "uint256"
        },
        {
          "internalType": "uint256",
          "name": "createdAt",
          "type": "uint256"
        },
        {
          "internalType": "uint256",
          "name": "panelId",
          "type": "uint256"
        }
      ],
      "stateMutability": "view",
      "type": "function"
    },
    {
      "inputs": [
        {
          "internalType": "string",
          "name": "_name",
          "type": "string"
        },
        {
          "internalType": "uint256",
          "name": "_price",
          "type": "uint256"
        },
        {
          "internalType": "uint256",
          "name": "_latitude",
          "type": "uint256"
        },
        {
          "internalType": "uint256",
          "name": "_longitude",
          "type": "uint256"
        },
        {
          "internalType": "uint256",
          "name": "_batteryTemperature",
          "type": "uint256"
        },
        {
          "internalType": "uint256",
          "name": "_dcPower",
          "type": "uint256"
        },
        {
          "internalType": "uint256",
          "name": "_acPower",
          "type": "uint256"
        },
        {
          "internalType": "uint256",
          "name": "_createdAt",
          "type": "uint256"
        },
        {
          "internalType": "uint256",
          "name": "_panelId",
          "type": "uint256"
        }
      ],
      "name": "listItem",
      "outputs": [],
      "stateMutability": "nonpayable",
      "type": "function"
    },
    {
      "inputs": [
        {
          "internalType": "uint256",
          "name": "_id",
          "type": "uint256"
        }
      ],
      "name": "offerToBuy",
      "outputs": [],
      "stateMutability": "nonpayable",
      "type": "function"
    },
    {
      "inputs": [],
      "name": "owner",
      "outputs": [
        {
          "internalType": "address",
          "name": "",
          "type": "address"
        }
      ],
      "stateMutability": "view",
      "type": "function"
    },
    {
      "inputs": [
        {
          "internalType": "uint256",
          "name": "",
          "type": "uint256"
        },
        {
          "internalType": "uint256",
          "name": "",
          "type": "uint256"
        }
      ],
      "name": "pendingBuyers",
      "outputs": [
        {
          "internalType": "address",
          "name": "",
          "type": "address"
        }
      ],
      "stateMutability": "view",
      "type": "function"
    },
    {
      "inputs": [
        {
          "internalType": "address",
          "name": "",
          "type": "address"
        },
        {
          "internalType": "uint256",
          "name": "",
          "type": "uint256"
        }
      ],
      "name": "purchaseHistory",
      "outputs": [
        {
          "internalType": "uint256",
          "name": "itemId",
          "type": "uint256"
        },
        {
          "internalType": "address",
          "name": "buyer",
          "type": "address"
        },
        {
          "internalType": "uint256",
          "name": "price",
          "type": "uint256"
        },
        {
          "internalType": "uint256",
          "name": "timestamp",
          "type": "uint256"
        }
      ],
      "stateMutability": "view",
      "type": "function"
    },
    {
      "inputs": [],
      "name": "solarPanelContract",
      "outputs": [
        {
          "internalType": "contract ISolarPanels",
          "name": "",
          "type": "address"
        }
      ],
      "stateMutability": "view",
      "type": "function"
    },
    {
      "inputs": [],
      "name": "token",
      "outputs": [
        {
          "internalType": "contract IERC20",
          "name": "",
          "type": "address"
        }
      ],
      "stateMutability": "view",
      "type": "function"
    }
  ],
  "bytecode": "0x608060405260006001553480156200001657600080fd5b5060405162001a9d38038062001a9d833981016040819052620000399162000147565b6001600160a01b038216620000955760405162461bcd60e51b815260206004820152601560248201527f496e76616c696420746f6b656e2061646472657373000000000000000000000060448201526064015b60405180910390fd5b6001600160a01b038116620000ed5760405162461bcd60e51b815260206004820152601c60248201527f496e76616c696420736f6c61722070616e656c20636f6e74726163740000000060448201526064016200008c565b600080546001600160a01b03199081163317909155600280546001600160a01b03948516908316179055600380549290931691161790556200017f565b80516001600160a01b03811681146200014257600080fd5b919050565b600080604083850312156200015b57600080fd5b62000166836200012a565b915062000176602084016200012a565b90509250929050565b61190e806200018f6000396000f3fe608060405234801561001057600080fd5b50600436106100ff5760003560e01c80636491070c116100975780639ca0f447116100665780639ca0f447146102d8578063b2be4180146102eb578063bfb231d2146102fe578063fc0c546a1461032957600080fd5b80636491070c1461024e57806369508e141461028e5780636bfb0d01146102ae5780638da5cb5b146102c557600080fd5b806329bb0827116100d357806329bb0827146101d85780633129e773146101ed5780633898e7e31461020d57806342d6d0a51461023b57600080fd5b8062a2f7191461010457806312d5626914610152578063209936fe1461017d57806321034444146101b8575b600080fd5b61013d61011236600461127b565b60009182526007602090815260408084206001600160a01b0393909316845291905290205460ff1690565b60405190151581526020015b60405180910390f35b6101656101603660046112ab565b61033c565b6040516001600160a01b039091168152602001610149565b61019061018b3660046112cd565b610374565b604080519485526001600160a01b039093166020850152918301526060820152608001610149565b6101cb6101c63660046112f9565b6103c3565b604051610149919061131d565b6101eb6101e636600461138a565b610463565b005b6102006101fb36600461138a565b61075c565b60405161014991906113e9565b61013d61021b36600461127b565b600760209081526000928352604080842090915290825290205460ff1681565b600354610165906001600160a01b031681565b61026161025c36600461138a565b610937565b604080519687526020870195909552938501929092526060840152608083015260a082015260c001610149565b6102a161029c36600461138a565b610b00565b60405161014991906114a6565b6102b760015481565b604051908152602001610149565b600054610165906001600160a01b031681565b6101eb6102e6366004611509565b610b6c565b6101eb6102f936600461127b565b610e17565b61031161030c36600461138a565b61116d565b6040516101499c9b9a999897969594939291906115fb565b600254610165906001600160a01b031681565b6006602052816000526040600020818154811061035857600080fd5b6000918252602090912001546001600160a01b03169150829050565b6005602052816000526040600020818154811061039057600080fd5b600091825260209091206004909102018054600182015460028301546003909301549194506001600160a01b0316925084565b6001600160a01b0381166000908152600560209081526040808320805482518185028101850190935280835260609492939192909184015b828210156104585760008481526020908190206040805160808101825260048602909201805483526001808201546001600160a01b03168486015260028201549284019290925260030154606083015290835290920191016103fb565b505050509050919050565b8060008111801561047657506001548111155b61049b5760405162461bcd60e51b81526004016104929061166f565b60405180910390fd5b60008281526004602052604090206003810154600160a01b900460ff16156104f95760405162461bcd60e51b8152602060048201526011602482015270125d195b48185b1c9958591e481cdbdb19607a1b6044820152606401610492565b60028181015490546040516370a0823160e01b81523360048201526001600160a01b03909116906370a0823190602401602060405180830381865afa158015610546573d6000803e3d6000fd5b505050506040513d601f19601f8201168201806040525081019061056a919061169c565b10156105b85760405162461bcd60e51b815260206004820152601a60248201527f496e73756666696369656e7420746f6b656e2062616c616e63650000000000006044820152606401610492565b6002818101549054604051636eb1769f60e11b81523360048201523060248201526001600160a01b039091169063dd62ed3e90604401602060405180830381865afa15801561060b573d6000803e3d6000fd5b505050506040513d601f19601f8201168201806040525081019061062f919061169c565b10156106715760405162461bcd60e51b8152602060048201526011602482015270416c6c6f77616e636520746f6f206c6f7760781b6044820152606401610492565b600083815260076020908152604080832033845290915290205460ff16156106cd5760405162461bcd60e51b815260206004820152600f60248201526e105b1c9958591e481bd999995c9959608a1b6044820152606401610492565b600083815260076020908152604080832033808552908352818420805460ff19166001908117909155878552600684528285208054918201815585529383902090930180546001600160a01b031916841790558051868152918201929092527fae9233b69f407f95b986ec18286e1a65aea59c623ca0a0257daad7d52887e8fb910160405180910390a1505050565b6107cb60405180610180016040528060008152602001606081526020016000815260200160006001600160a01b03168152602001600015158152602001600081526020016000815260200160008152602001600081526020016000815260200160008152602001600081525090565b816000811180156107de57506001548111155b6107fa5760405162461bcd60e51b81526004016104929061166f565b600460008481526020019081526020016000206040518061018001604052908160008201548152602001600182018054610833906116b5565b80601f016020809104026020016040519081016040528092919081815260200182805461085f906116b5565b80156108ac5780601f10610881576101008083540402835291602001916108ac565b820191906000526020600020905b81548152906001019060200180831161088f57829003601f168201915b50505091835250506002820154602082015260038201546001600160a01b0381166040830152600160a01b900460ff161515606082015260048201546080820152600582015460a0820152600682015460c0820152600782015460e082015260088201546101008201526009820154610120820152600a909101546101409091015291505b50919050565b6000806000806000808660008111801561095357506001548111155b61096f5760405162461bcd60e51b81526004016104929061166f565b6000600460008a815260200190815260200160002060405180610180016040529081600082015481526020016001820180546109aa906116b5565b80601f01602080910402602001604051908101604052809291908181526020018280546109d6906116b5565b8015610a235780601f106109f857610100808354040283529160200191610a23565b820191906000526020600020905b815481529060010190602001808311610a0657829003601f168201915b50505050508152602001600282015481526020016003820160009054906101000a90046001600160a01b03166001600160a01b03166001600160a01b031681526020016003820160149054906101000a900460ff16151515158152602001600482015481526020016005820154815260200160068201548152602001600782015481526020016008820154815260200160098201548152602001600a8201548152505090508060a001518160c001518260e00151836101000151846101200151856101400151975097509750975097509750505091939550919395565b600081815260066020908152604091829020805483518184028101840190945280845260609392830182828015610b6057602002820191906000526020600020905b81546001600160a01b03168152600190910190602001808311610b42575b50505050509050919050565b60008811610bbc5760405162461bcd60e51b815260206004820152601f60248201527f5072696365206d7573742062652067726561746572207468616e207a65726f006044820152606401610492565b6003546040516394f178df60e01b8152600481018390526000916001600160a01b0316906394f178df9060240160e060405180830381865afa158015610c06573d6000803e3d6000fd5b505050506040513d601f19601f82011682018060405250810190610c2a91906116e9565b5050505050509050336001600160a01b0316816001600160a01b031614610c935760405162461bcd60e51b815260206004820152601960248201527f596f7520646f206e6f74206f776e20746869732070616e656c000000000000006044820152606401610492565b60018054906000610ca383611746565b919050555060405180610180016040528060015481526020018b81526020018a8152602001336001600160a01b0316815260200160001515815260200189815260200188815260200187815260200186815260200185815260200184815260200183815250600460006001548152602001908152602001600020600082015181600001556020820151816001019081610d3c91906117bc565b506040828101516002830155606083015160038301805460808601511515600160a01b026001600160a81b03199091166001600160a01b039093169290921791909117905560a0830151600483015560c0830151600583015560e0830151600683015561010083015160078301556101208301516008830155610140830151600983015561016090920151600a9091015560015490517f16244e47af8a7d2c923faa2cab44315c0514c7aa830682bbb9cc8f0d37ad754891610e03918d908d90339061187c565b60405180910390a150505050505050505050565b81600081118015610e2a57506001548111155b610e465760405162461bcd60e51b81526004016104929061166f565b600083815260046020526040902060038101546001600160a01b03163314610ea15760405162461bcd60e51b815260206004820152600e60248201526d2737ba103a34329039b2b63632b960911b6044820152606401610492565b60008481526007602090815260408083206001600160a01b038716845290915290205460ff16610f0b5760405162461bcd60e51b8152602060048201526015602482015274109d5e595c881a185cc81b9bdd081bd999995c9959605a1b6044820152606401610492565b6003810154600160a01b900460ff1615610f5b5760405162461bcd60e51b8152602060048201526011602482015270125d195b48185b1c9958591e481cdbdb19607a1b6044820152606401610492565b600280546003830154918301546040516323b872dd60e01b81526001600160a01b038781166004830152938416602482015260448101919091529116906323b872dd906064016020604051808303816000875af1158015610fc0573d6000803e3d6000fd5b505050506040513d601f19601f82011682018060405250810190610fe491906118b6565b6110285760405162461bcd60e51b8152602060048201526015602482015274151bdad95b881d1c985b9cd9995c8819985a5b1959605a1b6044820152606401610492565b600354600a82015460405163183aa4a560e11b815260048101919091526001600160a01b03858116602483015290911690633075494a90604401600060405180830381600087803b15801561107c57600080fd5b505af1158015611090573d6000803e3d6000fd5b5050505060038181018054600160a01b60ff60a01b199091161790556001600160a01b03848116600081815260056020908152604080832081516080810183528b81528084018681526002808b01548386019081524260608501908152855460018181018855968a529888902094516004909902909401978855915193870180546001600160a01b0319169490991693909317909755955190840155935191909401558151878152928301527f7de4035ced290be6d7724645d43bad448b5d8cc76743ff4da172c2d8e1caa0f5910160405180910390a150505050565b6004602052600090815260409020805460018201805491929161118f906116b5565b80601f01602080910402602001604051908101604052809291908181526020018280546111bb906116b5565b80156112085780601f106111dd57610100808354040283529160200191611208565b820191906000526020600020905b8154815290600101906020018083116111eb57829003601f168201915b50505050600283015460038401546004850154600586015460068701546007880154600889015460098a0154600a909a0154989996986001600160a01b0387169850600160a01b90960460ff1696949593949293919290918c565b6001600160a01b038116811461127857600080fd5b50565b6000806040838503121561128e57600080fd5b8235915060208301356112a081611263565b809150509250929050565b600080604083850312156112be57600080fd5b50508035926020909101359150565b600080604083850312156112e057600080fd5b82356112eb81611263565b946020939093013593505050565b60006020828403121561130b57600080fd5b813561131681611263565b9392505050565b602080825282518282018190526000919060409081850190868401855b8281101561137d57815180518552868101516001600160a01b0316878601528581015186860152606090810151908501526080909301929085019060010161133a565b5091979650505050505050565b60006020828403121561139c57600080fd5b5035919050565b6000815180845260005b818110156113c9576020818501810151868301820152016113ad565b506000602082860101526020601f19601f83011685010191505092915050565b6020815281516020820152600060208301516101808060408501526114126101a08501836113a3565b915060408501516060850152606085015161143860808601826001600160a01b03169052565b50608085015180151560a08601525060a085015160c08581019190915285015160e08086019190915285015161010080860191909152850151610120808601919091528501516101408086019190915285015161016080860191909152909401519390920192909252919050565b6020808252825182820181905260009190848201906040850190845b818110156114e75783516001600160a01b0316835292840192918401916001016114c2565b50909695505050505050565b634e487b7160e01b600052604160045260246000fd5b60008060008060008060008060006101208a8c03121561152857600080fd5b893567ffffffffffffffff8082111561154057600080fd5b818c0191508c601f83011261155457600080fd5b813581811115611566576115666114f3565b604051601f8201601f19908116603f0116810190838211818310171561158e5761158e6114f3565b816040528281528f60208487010111156115a757600080fd5b82602086016020830137600060209382018401529f918e01359e505060408d01359c60608101359c5060808101359b5060a08101359a5060c0810135995060e0810135985061010001359650945050505050565b60006101808e83528060208401526116158184018f6113a3565b604084019d909d5250506001600160a01b039990991660608a0152961515608089015260a088019590955260c087019390935260e08601919091526101008501526101208401526101408301526101609091015292915050565b602080825260139082015272125d195b48191bd95cc81b9bdd08195e1a5cdd606a1b604082015260600190565b6000602082840312156116ae57600080fd5b5051919050565b600181811c908216806116c957607f821691505b60208210810361093157634e487b7160e01b600052602260045260246000fd5b600080600080600080600060e0888a03121561170457600080fd5b875161170f81611263565b602089015160408a015160608b015160808c015160a08d015160c0909d0151949e939d50919b909a50909850965090945092505050565b60006001820161176657634e487b7160e01b600052601160045260246000fd5b5060010190565b601f8211156117b757600081815260208120601f850160051c810160208610156117945750805b601f850160051c820191505b818110156117b3578281556001016117a0565b5050505b505050565b815167ffffffffffffffff8111156117d6576117d66114f3565b6117ea816117e484546116b5565b8461176d565b602080601f83116001811461181f57600084156118075750858301515b600019600386901b1c1916600185901b1785556117b3565b600085815260208120601f198616915b8281101561184e5788860151825594840194600190910190840161182f565b508582101561186c5787850151600019600388901b60f8161c191681555b5050505050600190811b01905550565b84815260806020820152600061189560808301866113a3565b6040830194909452506001600160a01b039190911660609091015292915050565b6000602082840312156118c857600080fd5b8151801515811461131657600080fdfea26469706673582212200e5d0be07174edb00b36d30005425dd1a232e3a919e11b94fb62749d9dc5b70f64736f6c63430008140033",
  "linkReferences": {},
  "deployedLinkReferences": {}
}