{
  "_format": "hh-sol-artifact-1",
  "contractName": "Shop",
  "sourceName": "contracts/Shop.sol",
  "abi": [
    {
      "inputs": [
        {
          "internalType": "address",
          "name": "_tokenAddress",
          "type": "address"
        }
      ],
      "stateMutability": "nonpayable",
      "type": "constructor"
    },
    {
      "anonymous": false,
      "inputs": [
        {
          "indexed": false,
          "internalType": "uint256",
          "name": "id",
          "type": "uint256"
        },
        {
          "indexed": false,
          "internalType": "string",
          "name": "name",
          "type": "string"
        },
        {
          "indexed": false,
          "internalType": "uint256",
          "name": "price",
          "type": "uint256"
        },
        {
          "indexed": false,
          "internalType": "address",
          "name": "seller",
          "type": "address"
        }
      ],
      "name": "ItemListed",
      "type": "event"
    },
    {
      "anonymous": false,
      "inputs": [
        {
          "indexed": false,
          "internalType": "uint256",
          "name": "id",
          "type": "uint256"
        },
        {
          "indexed": false,
          "internalType": "address",
          "name": "buyer",
          "type": "address"
        },
        {
          "indexed": false,
          "internalType": "uint256",
          "name": "price",
          "type": "uint256"
        }
      ],
      "name": "ItemPurchased",
      "type": "event"
    },
    {
      "inputs": [
        {
          "internalType": "uint256",
          "name": "_id",
          "type": "uint256"
        }
      ],
      "name": "buyItem",
      "outputs": [],
      "stateMutability": "nonpayable",
      "type": "function"
    },
    {
      "inputs": [
        {
          "internalType": "uint256",
          "name": "_id",
          "type": "uint256"
        }
      ],
      "name": "getItem",
      "outputs": [
        {
          "components": [
            {
              "internalType": "uint256",
              "name": "id",
              "type": "uint256"
            },
            {
              "internalType": "string",
              "name": "name",
              "type": "string"
            },
            {
              "internalType": "uint256",
              "name": "price",
              "type": "uint256"
            },
            {
              "internalType": "address",
              "name": "seller",
              "type": "address"
            },
            {
              "internalType": "bool",
              "name": "purchased",
              "type": "bool"
            }
          ],
          "internalType": "struct Shop.Item",
          "name": "",
          "type": "tuple"
        }
      ],
      "stateMutability": "view",
      "type": "function"
    },
    {
      "inputs": [
        {
          "internalType": "address",
          "name": "_buyer",
          "type": "address"
        }
      ],
      "name": "getPurchaseHistory",
      "outputs": [
        {
          "components": [
            {
              "internalType": "uint256",
              "name": "itemId",
              "type": "uint256"
            },
            {
              "internalType": "address",
              "name": "buyer",
              "type": "address"
            },
            {
              "internalType": "uint256",
              "name": "price",
              "type": "uint256"
            },
            {
              "internalType": "uint256",
              "name": "timestamp",
              "type": "uint256"
            }
          ],
          "internalType": "struct Shop.Purchase[]",
          "name": "",
          "type": "tuple[]"
        }
      ],
      "stateMutability": "view",
      "type": "function"
    },
    {
      "inputs": [],
      "name": "itemCount",
      "outputs": [
        {
          "internalType": "uint256",
          "name": "",
          "type": "uint256"
        }
      ],
      "stateMutability": "view",
      "type": "function"
    },
    {
      "inputs": [
        {
          "internalType": "uint256",
          "name": "",
          "type": "uint256"
        }
      ],
      "name": "items",
      "outputs": [
        {
          "internalType": "uint256",
          "name": "id",
          "type": "uint256"
        },
        {
          "internalType": "string",
          "name": "name",
          "type": "string"
        },
        {
          "internalType": "uint256",
          "name": "price",
          "type": "uint256"
        },
        {
          "internalType": "address",
          "name": "seller",
          "type": "address"
        },
        {
          "internalType": "bool",
          "name": "purchased",
          "type": "bool"
        }
      ],
      "stateMutability": "view",
      "type": "function"
    },
    {
      "inputs": [
        {
          "internalType": "string",
          "name": "_name",
          "type": "string"
        },
        {
          "internalType": "uint256",
          "name": "_price",
          "type": "uint256"
        }
      ],
      "name": "listItem",
      "outputs": [],
      "stateMutability": "nonpayable",
      "type": "function"
    },
    {
      "inputs": [],
      "name": "owner",
      "outputs": [
        {
          "internalType": "address",
          "name": "",
          "type": "address"
        }
      ],
      "stateMutability": "view",
      "type": "function"
    },
    {
      "inputs": [
        {
          "internalType": "address",
          "name": "",
          "type": "address"
        },
        {
          "internalType": "uint256",
          "name": "",
          "type": "uint256"
        }
      ],
      "name": "purchaseHistory",
      "outputs": [
        {
          "internalType": "uint256",
          "name": "itemId",
          "type": "uint256"
        },
        {
          "internalType": "address",
          "name": "buyer",
          "type": "address"
        },
        {
          "internalType": "uint256",
          "name": "price",
          "type": "uint256"
        },
        {
          "internalType": "uint256",
          "name": "timestamp",
          "type": "uint256"
        }
      ],
      "stateMutability": "view",
      "type": "function"
    },
    {
      "inputs": [],
      "name": "token",
      "outputs": [
        {
          "internalType": "contract IERC20",
          "name": "",
          "type": "address"
        }
      ],
      "stateMutability": "view",
      "type": "function"
    }
  ],
  "bytecode": "0x6080604052600060015534801561001557600080fd5b50604051610fc1380380610fc1833981016040819052610034916100c1565b6001600160a01b03811661008e5760405162461bcd60e51b815260206004820152601560248201527f496e76616c696420746f6b656e20616464726573730000000000000000000000604482015260640160405180910390fd5b60008054336001600160a01b031991821617909155600280549091166001600160a01b03929092169190911790556100f1565b6000602082840312156100d357600080fd5b81516001600160a01b03811681146100ea57600080fd5b9392505050565b610ec1806101006000396000f3fe608060405234801561001057600080fd5b50600436106100935760003560e01c80638511c937116100665780638511c9371461012f5780638da5cb5b14610144578063bfb231d21461016f578063e7fb74c714610193578063fc0c546a146101a657600080fd5b8063209936fe1461009857806321034444146100d85780633129e773146100f85780636bfb0d0114610118575b600080fd5b6100ab6100a6366004610a2e565b6101b9565b604080519485526001600160a01b0390931660208501529183015260608201526080015b60405180910390f35b6100eb6100e6366004610a58565b610208565b6040516100cf9190610a7a565b61010b610106366004610ae7565b6102a8565b6040516100cf9190610b46565b61012160015481565b6040519081526020016100cf565b61014261013d366004610bb6565b610432565b005b600054610157906001600160a01b031681565b6040516001600160a01b0390911681526020016100cf565b61018261017d366004610ae7565b610570565b6040516100cf959493929190610c6b565b6101426101a1366004610ae7565b610636565b600254610157906001600160a01b031681565b600460205281600052604060002081815481106101d557600080fd5b600091825260209091206004909102018054600182015460028301546003909301549194506001600160a01b0316925084565b6001600160a01b0381166000908152600460209081526040808320805482518185028101850190935280835260609492939192909184015b8282101561029d5760008481526020908190206040805160808101825260048602909201805483526001808201546001600160a01b0316848601526002820154928401929092526003015460608301529083529092019101610240565b505050509050919050565b6102e56040518060a0016040528060008152602001606081526020016000815260200160006001600160a01b031681526020016000151581525090565b816000811180156102f857506001548111155b61033f5760405162461bcd60e51b8152602060048201526013602482015272125d195b48191bd95cc81b9bdd08195e1a5cdd606a1b60448201526064015b60405180910390fd5b600360008481526020019081526020016000206040518060a00160405290816000820154815260200160018201805461037790610cac565b80601f01602080910402602001604051908101604052809291908181526020018280546103a390610cac565b80156103f05780601f106103c5576101008083540402835291602001916103f0565b820191906000526020600020905b8154815290600101906020018083116103d357829003601f168201915b5050509183525050600282015460208201526003909101546001600160a01b0381166040830152600160a01b900460ff16151560609091015291505b50919050565b600081116104825760405162461bcd60e51b815260206004820152601f60248201527f5072696365206d7573742062652067726561746572207468616e207a65726f006044820152606401610336565b6001805490600061049283610ce0565b90915550506040805160a0810182526001805480835260208084018781528486018790523360608601526000608086018190529283526003909152939020825181559251919291908201906104e79082610d56565b5060408281015160028301556060830151600390920180546080909401511515600160a01b026001600160a81b03199094166001600160a01b039093169290921792909217905560015490517f16244e47af8a7d2c923faa2cab44315c0514c7aa830682bbb9cc8f0d37ad75489161056491859085903390610e16565b60405180910390a15050565b6003602052600090815260409020805460018201805491929161059290610cac565b80601f01602080910402602001604051908101604052809291908181526020018280546105be90610cac565b801561060b5780601f106105e05761010080835404028352916020019161060b565b820191906000526020600020905b8154815290600101906020018083116105ee57829003601f168201915b5050505060028301546003909301549192916001600160a01b0381169150600160a01b900460ff1685565b8060008111801561064957506001548111155b61068b5760405162461bcd60e51b8152602060048201526013602482015272125d195b48191bd95cc81b9bdd08195e1a5cdd606a1b6044820152606401610336565b600082815260036020819052604090912090810154600160a01b900460ff16156106eb5760405162461bcd60e51b8152602060048201526011602482015270125d195b48185b1c9958591e481cdbdb19607a1b6044820152606401610336565b60028181015490546040516370a0823160e01b81523360048201526001600160a01b03909116906370a0823190602401602060405180830381865afa158015610738573d6000803e3d6000fd5b505050506040513d601f19601f8201168201806040525081019061075c9190610e50565b10156107aa5760405162461bcd60e51b815260206004820152601a60248201527f496e73756666696369656e7420746f6b656e2062616c616e63650000000000006044820152606401610336565b6002818101549054604051636eb1769f60e11b81523360048201523060248201526001600160a01b039091169063dd62ed3e90604401602060405180830381865afa1580156107fd573d6000803e3d6000fd5b505050506040513d601f19601f820116820180604052508101906108219190610e50565b10156108635760405162461bcd60e51b8152602060048201526011602482015270416c6c6f77616e636520746f6f206c6f7760781b6044820152606401610336565b600280546003830154918301546040516323b872dd60e01b81523360048201526001600160a01b03938416602482015260448101919091529116906323b872dd906064016020604051808303816000875af11580156108c6573d6000803e3d6000fd5b505050506040513d601f19601f820116820180604052508101906108ea9190610e69565b61092e5760405162461bcd60e51b8152602060048201526015602482015274151bdad95b881d1c985b9cd9995c8819985a5b1959605a1b6044820152606401610336565b60038181018054600160a01b60ff60a01b1990911617905533600081815260046020818152604080842081516080810183528a81528084018781526002808b018054848701908152426060808701918252875460018181018a55988d529b8a902096519b909a02909501998a55925194890180546001600160a01b0319166001600160a01b03909616959095179094559051908701555194909601939093559354825188815294850193909352908301919091527f78a0660bbda86d17037943644187f6f1f73f2f20a3240bf4cf4a56c2a96bcf84910160405180910390a1505050565b80356001600160a01b0381168114610a2957600080fd5b919050565b60008060408385031215610a4157600080fd5b610a4a83610a12565b946020939093013593505050565b600060208284031215610a6a57600080fd5b610a7382610a12565b9392505050565b602080825282518282018190526000919060409081850190868401855b82811015610ada57815180518552868101516001600160a01b03168786015285810151868601526060908101519085015260809093019290850190600101610a97565b5091979650505050505050565b600060208284031215610af957600080fd5b5035919050565b6000815180845260005b81811015610b2657602081850181015186830182015201610b0a565b506000602082860101526020601f19601f83011685010191505092915050565b60208152815160208201526000602083015160a06040840152610b6c60c0840182610b00565b90506040840151606084015260018060a01b0360608501511660808401526080840151151560a08401528091505092915050565b634e487b7160e01b600052604160045260246000fd5b60008060408385031215610bc957600080fd5b823567ffffffffffffffff80821115610be157600080fd5b818501915085601f830112610bf557600080fd5b813581811115610c0757610c07610ba0565b604051601f8201601f19908116603f01168101908382118183101715610c2f57610c2f610ba0565b81604052828152886020848701011115610c4857600080fd5b826020860160208301376000602093820184015298969091013596505050505050565b85815260a060208201526000610c8460a0830187610b00565b6040830195909552506001600160a01b03929092166060830152151560809091015292915050565b600181811c90821680610cc057607f821691505b60208210810361042c57634e487b7160e01b600052602260045260246000fd5b600060018201610d0057634e487b7160e01b600052601160045260246000fd5b5060010190565b601f821115610d5157600081815260208120601f850160051c81016020861015610d2e5750805b601f850160051c820191505b81811015610d4d57828155600101610d3a565b5050505b505050565b815167ffffffffffffffff811115610d7057610d70610ba0565b610d8481610d7e8454610cac565b84610d07565b602080601f831160018114610db95760008415610da15750858301515b600019600386901b1c1916600185901b178555610d4d565b600085815260208120601f198616915b82811015610de857888601518255948401946001909101908401610dc9565b5085821015610e065787850151600019600388901b60f8161c191681555b5050505050600190811b01905550565b848152608060208201526000610e2f6080830186610b00565b6040830194909452506001600160a01b039190911660609091015292915050565b600060208284031215610e6257600080fd5b5051919050565b600060208284031215610e7b57600080fd5b81518015158114610a7357600080fdfea26469706673582212208b09f7ec0ecb06dc837ea44c5c5824982bcf0dd597b2179affca1259a8c6fabb64736f6c63430008140033",
  "linkReferences": {},
  "deployedLinkReferences": {}
}