{
  "_format": "hh-sol-artifact-1",
  "contractName": "SolarPanels",
  "sourceName": "contracts/SolarPanels.sol",
  "abi": [
    {
      "anonymous": false,
      "inputs": [
        {
          "indexed": true,
          "internalType": "uint256",
          "name": "panelId",
          "type": "uint256"
        },
        {
          "indexed": true,
          "internalType": "address",
          "name": "owner",
          "type": "address"
        },
        {
          "indexed": false,
          "internalType": "uint256",
          "name": "latitude",
          "type": "uint256"
        },
        {
          "indexed": false,
          "internalType": "uint256",
          "name": "longitude",
          "type": "uint256"
        },
        {
          "indexed": false,
          "internalType": "uint256",
          "name": "batteryTemperature",
          "type": "uint256"
        },
        {
          "indexed": false,
          "internalType": "uint256",
          "name": "dcPower",
          "type": "uint256"
        },
        {
          "indexed": false,
          "internalType": "uint256",
          "name": "acPower",
          "type": "uint256"
        },
        {
          "indexed": false,
          "internalType": "uint256",
          "name": "createdAt",
          "type": "uint256"
        }
      ],
      "name": "PanelCreated",
      "type": "event"
    },
    {
      "anonymous": false,
      "inputs": [
        {
          "indexed": true,
          "internalType": "uint256",
          "name": "panelId",
          "type": "uint256"
        },
        {
          "indexed": true,
          "internalType": "address",
          "name": "from",
          "type": "address"
        },
        {
          "indexed": true,
          "internalType": "address",
          "name": "to",
          "type": "address"
        }
      ],
      "name": "PanelOwnershipTransferred",
      "type": "event"
    },
    {
      "anonymous": false,
      "inputs": [
        {
          "indexed": true,
          "internalType": "uint256",
          "name": "panelId",
          "type": "uint256"
        },
        {
          "indexed": false,
          "internalType": "uint256",
          "name": "batteryTemperature",
          "type": "uint256"
        },
        {
          "indexed": false,
          "internalType": "uint256",
          "name": "dcPower",
          "type": "uint256"
        },
        {
          "indexed": false,
          "internalType": "uint256",
          "name": "acPower",
          "type": "uint256"
        }
      ],
      "name": "PanelUpdated",
      "type": "event"
    },
    {
      "inputs": [
        {
          "internalType": "uint256",
          "name": "_latitude",
          "type": "uint256"
        },
        {
          "internalType": "uint256",
          "name": "_longitude",
          "type": "uint256"
        },
        {
          "internalType": "uint256",
          "name": "_batteryTemperature",
          "type": "uint256"
        },
        {
          "internalType": "uint256",
          "name": "_dcPower",
          "type": "uint256"
        },
        {
          "internalType": "uint256",
          "name": "_acPower",
          "type": "uint256"
        }
      ],
      "name": "createPanel",
      "outputs": [],
      "stateMutability": "nonpayable",
      "type": "function"
    },
    {
      "inputs": [],
      "name": "getAllPanels",
      "outputs": [
        {
          "components": [
            {
              "internalType": "uint256",
              "name": "id",
              "type": "uint256"
            },
            {
              "internalType": "address",
              "name": "owner",
              "type": "address"
            },
            {
              "internalType": "uint256",
              "name": "latitude",
              "type": "uint256"
            },
            {
              "internalType": "uint256",
              "name": "longitude",
              "type": "uint256"
            },
            {
              "internalType": "uint256",
              "name": "batteryTemperature",
              "type": "uint256"
            },
            {
              "internalType": "uint256",
              "name": "dcPower",
              "type": "uint256"
            },
            {
              "internalType": "uint256",
              "name": "acPower",
              "type": "uint256"
            },
            {
              "internalType": "uint256",
              "name": "createdAt",
              "type": "uint256"
            },
            {
              "internalType": "bool",
              "name": "exists",
              "type": "bool"
            }
          ],
          "internalType": "struct SolarPanels.Panel[]",
          "name": "",
          "type": "tuple[]"
        }
      ],
      "stateMutability": "view",
      "type": "function"
    },
    {
      "inputs": [],
      "name": "getMyPanels",
      "outputs": [
        {
          "components": [
            {
              "internalType": "uint256",
              "name": "id",
              "type": "uint256"
            },
            {
              "internalType": "address",
              "name": "owner",
              "type": "address"
            },
            {
              "internalType": "uint256",
              "name": "latitude",
              "type": "uint256"
            },
            {
              "internalType": "uint256",
              "name": "longitude",
              "type": "uint256"
            },
            {
              "internalType": "uint256",
              "name": "batteryTemperature",
              "type": "uint256"
            },
            {
              "internalType": "uint256",
              "name": "dcPower",
              "type": "uint256"
            },
            {
              "internalType": "uint256",
              "name": "acPower",
              "type": "uint256"
            },
            {
              "internalType": "uint256",
              "name": "createdAt",
              "type": "uint256"
            },
            {
              "internalType": "bool",
              "name": "exists",
              "type": "bool"
            }
          ],
          "internalType": "struct SolarPanels.Panel[]",
          "name": "",
          "type": "tuple[]"
        }
      ],
      "stateMutability": "view",
      "type": "function"
    },
    {
      "inputs": [
        {
          "internalType": "uint256",
          "name": "_panelId",
          "type": "uint256"
        }
      ],
      "name": "getPanel",
      "outputs": [
        {
          "internalType": "address",
          "name": "owner",
          "type": "address"
        },
        {
          "internalType": "uint256",
          "name": "latitude",
          "type": "uint256"
        },
        {
          "internalType": "uint256",
          "name": "longitude",
          "type": "uint256"
        },
        {
          "internalType": "uint256",
          "name": "batteryTemperature",
          "type": "uint256"
        },
        {
          "internalType": "uint256",
          "name": "dcPower",
          "type": "uint256"
        },
        {
          "internalType": "uint256",
          "name": "acPower",
          "type": "uint256"
        },
        {
          "internalType": "uint256",
          "name": "createdAt",
          "type": "uint256"
        }
      ],
      "stateMutability": "view",
      "type": "function"
    },
    {
      "inputs": [
        {
          "internalType": "address",
          "name": "",
          "type": "address"
        },
        {
          "internalType": "uint256",
          "name": "",
          "type": "uint256"
        }
      ],
      "name": "ownerPanels",
      "outputs": [
        {
          "internalType": "uint256",
          "name": "",
          "type": "uint256"
        }
      ],
      "stateMutability": "view",
      "type": "function"
    },
    {
      "inputs": [],
      "name": "panelCount",
      "outputs": [
        {
          "internalType": "uint256",
          "name": "",
          "type": "uint256"
        }
      ],
      "stateMutability": "view",
      "type": "function"
    },
    {
      "inputs": [
        {
          "internalType": "uint256",
          "name": "",
          "type": "uint256"
        }
      ],
      "name": "panels",
      "outputs": [
        {
          "internalType": "uint256",
          "name": "id",
          "type": "uint256"
        },
        {
          "internalType": "address",
          "name": "owner",
          "type": "address"
        },
        {
          "internalType": "uint256",
          "name": "latitude",
          "type": "uint256"
        },
        {
          "internalType": "uint256",
          "name": "longitude",
          "type": "uint256"
        },
        {
          "internalType": "uint256",
          "name": "batteryTemperature",
          "type": "uint256"
        },
        {
          "internalType": "uint256",
          "name": "dcPower",
          "type": "uint256"
        },
        {
          "internalType": "uint256",
          "name": "acPower",
          "type": "uint256"
        },
        {
          "internalType": "uint256",
          "name": "createdAt",
          "type": "uint256"
        },
        {
          "internalType": "bool",
          "name": "exists",
          "type": "bool"
        }
      ],
      "stateMutability": "view",
      "type": "function"
    },
    {
      "inputs": [
        {
          "internalType": "address",
          "name": "_shop",
          "type": "address"
        }
      ],
      "name": "setShopContract",
      "outputs": [],
      "stateMutability": "nonpayable",
      "type": "function"
    },
    {
      "inputs": [],
      "name": "shopContract",
      "outputs": [
        {
          "internalType": "address",
          "name": "",
          "type": "address"
        }
      ],
      "stateMutability": "view",
      "type": "function"
    },
    {
      "inputs": [
        {
          "internalType": "uint256",
          "name": "_panelId",
          "type": "uint256"
        },
        {
          "internalType": "address",
          "name": "_newOwner",
          "type": "address"
        }
      ],
      "name": "transferPanelOwnership",
      "outputs": [],
      "stateMutability": "nonpayable",
      "type": "function"
    },
    {
      "inputs": [
        {
          "internalType": "uint256",
          "name": "_panelId",
          "type": "uint256"
        },
        {
          "internalType": "uint256",
          "name": "_batteryTemperature",
          "type": "uint256"
        },
        {
          "internalType": "uint256",
          "name": "_dcPower",
          "type": "uint256"
        },
        {
          "internalType": "uint256",
          "name": "_acPower",
          "type": "uint256"
        }
      ],
      "name": "updatePanel",
      "outputs": [],
      "stateMutability": "nonpayable",
      "type": "function"
    }
  ],
  "bytecode": "0x6080604052600060015534801561001557600080fd5b50610f0a806100256000396000f3fe608060405234801561001057600080fd5b50600436106100a95760003560e01c806396879ef01161007157806396879ef01461016b578063b25c155714610182578063e3807a8814610195578063ef4c0949146101a8578063f40e4f6f146101bd578063f94e6c981461027057600080fd5b806309090a51146100ae5780633075494a146100de5780633453a61d146100f3578063668c45bd1461010657806394f178df14610119575b600080fd5b6000546100c1906001600160a01b031681565b6040516001600160a01b0390911681526020015b60405180910390f35b6100f16100ec366004610c7b565b610278565b005b6100f1610101366004610ca7565b6104f5565b6100f1610114366004610cd9565b6105fe565b61012c610127366004610cfb565b6106c6565b604080516001600160a01b0390981688526020880196909652948601939093526060850191909152608084015260a083015260c082015260e0016100d5565b61017460015481565b6040519081526020016100d5565b610174610190366004610d14565b6107a2565b6100f16101a3366004610d3e565b6107d3565b6101b0610941565b6040516100d59190610d79565b6102226101cb366004610cfb565b600260208190526000918252604090912080546001820154928201546003830154600484015460058501546006860154600787015460089097015495976001600160a01b0316969495939492939192909160ff1689565b60408051998a526001600160a01b0390981660208a0152968801959095526060870193909352608086019190915260a085015260c084015260e08301521515610100820152610120016100d5565b6101b0610add565b60008281526002602052604090206001015482906001600160a01b03163314806102ac57506000546001600160a01b031633145b61030b5760405162461bcd60e51b815260206004820152602560248201527f4e6f7420617574686f72697a656420746f207472616e736665722074686973206044820152641c185b995b60da1b60648201526084015b60405180910390fd5b60008381526002602052604090206008015460ff1661033c5760405162461bcd60e51b815260040161030290610e1c565b6001600160a01b0382166103925760405162461bcd60e51b815260206004820181905260248201527f4e6577206f776e65722063616e6e6f74206265207a65726f20616464726573736044820152606401610302565b6000838152600260209081526040808320600101546001600160a01b03168084526003909252822090915b815481101561047157858282815481106103d9576103d9610e4a565b90600052602060002001540361045f57815482906103f990600190610e76565b8154811061040957610409610e4a565b906000526020600020015482828154811061042657610426610e4a565b90600052602060002001819055508180548061044457610444610e8f565b60019003818190600052602060002001600090559055610471565b8061046981610ea5565b9150506103bd565b506000858152600260209081526040808320600190810180546001600160a01b0319166001600160a01b038a811691821790925580865260038552838620805493840181558652938520909101899055905191929085169188917f426e27e5a721da38f03288650903462737aecdda511bd9537f7ad9099fccad8891a45050505050565b60008481526002602052604090206001015484906001600160a01b031633146105605760405162461bcd60e51b815260206004820152601b60248201527f4e6f7420746865206f776e6572206f6620746869732070616e656c00000000006044820152606401610302565b60008581526002602052604090206008015460ff166105915760405162461bcd60e51b815260040161030290610e1c565b6000858152600260209081526040918290206004810187905560058101869055600601849055815186815290810185905290810183905285907f26171779e4beda8723f55fd9ee403e6c9a73b3c22e858fa4cdbe80656e401a609060600160405180910390a25050505050565b6000546001600160a01b0316156106575760405162461bcd60e51b815260206004820152601960248201527f53686f7020636f6e747261637420616c726561647920736574000000000000006044820152606401610302565b6001600160a01b0381166106a45760405162461bcd60e51b8152602060048201526014602482015273496e76616c69642073686f70206164647265737360601b6044820152606401610302565b600080546001600160a01b0319166001600160a01b0392909216919091179055565b60008181526002602052604081206008015481908190819081908190819060ff166107035760405162461bcd60e51b815260040161030290610e1c565b50505060009485525050600260208181526040948590208551610120810187528154815260018201546001600160a01b031692810183905292810154958301869052600381015460608401819052600482015460808501819052600583015460a08601819052600684015460c08701819052600785015460e0880181905260089095015460ff1615156101009097019690965293989196509450919291565b600360205281600052604060002081815481106107be57600080fd5b90600052602060002001600091509150505481565b600180549060006107e383610ea5565b90915550506040805161012081018252600180548083523360208085018281528587018c8152606087018c8152608088018c815260a089018c815260c08a018c81524260e08c018181526101008d018c815260009b8c526002808b528f8d209e518f5598518e8e0180546001600160a01b03929092166001600160a01b03199092169190911790559651978d019790975593516003808d0191909155925160048c0155905160058b01555160068a01559251600789015590516008909701805497151560ff19989098169790971790965582845281528583208454815480870183559185529190932090920191909155905492519092917f48b6c9d02f31326df94aa31f59108bf5156d7784c5ca28179f08f781ca1016a391610932918a918a918a918a918a91958652602086019490945260408501929092526060840152608083015260a082015260c00190565b60405180910390a35050505050565b33600090815260036020908152604080832080548251818502810185019093528083526060949383018282801561099757602002820191906000526020600020905b815481526020019060010190808311610983575b505050505090506000815167ffffffffffffffff8111156109ba576109ba610ebe565b6040519080825280602002602001820160405280156109f357816020015b6109e0610c08565b8152602001906001900390816109d85790505b50905060005b8251811015610ad65760026000848381518110610a1857610a18610e4a565b60209081029190910181015182528181019290925260409081016000208151610120810183528154815260018201546001600160a01b0316938101939093526002810154918301919091526003810154606083015260048101546080830152600581015460a0830152600681015460c0830152600781015460e08301526008015460ff1615156101008201528251839083908110610ab857610ab8610e4a565b60200260200101819052508080610ace90610ea5565b9150506109f9565b5092915050565b6060600060015467ffffffffffffffff811115610afc57610afc610ebe565b604051908082528060200260200182016040528015610b3557816020015b610b22610c08565b815260200190600190039081610b1a5790505b50905060015b6001548111610c0257600081815260026020818152604092839020835161012081018552815481526001808301546001600160a01b03169382019390935292810154938301939093526003830154606083015260048301546080830152600583015460a0830152600683015460c0830152600783015460e083015260089092015460ff161515610100820152908390610bd49084610e76565b81518110610be457610be4610e4a565b60200260200101819052508080610bfa90610ea5565b915050610b3b565b50919050565b6040518061012001604052806000815260200160006001600160a01b031681526020016000815260200160008152602001600081526020016000815260200160008152602001600081526020016000151581525090565b80356001600160a01b0381168114610c7657600080fd5b919050565b60008060408385031215610c8e57600080fd5b82359150610c9e60208401610c5f565b90509250929050565b60008060008060808587031215610cbd57600080fd5b5050823594602084013594506040840135936060013592509050565b600060208284031215610ceb57600080fd5b610cf482610c5f565b9392505050565b600060208284031215610d0d57600080fd5b5035919050565b60008060408385031215610d2757600080fd5b610d3083610c5f565b946020939093013593505050565b600080600080600060a08688031215610d5657600080fd5b505083359560208501359550604085013594606081013594506080013592509050565b602080825282518282018190526000919060409081850190868401855b82811015610e0f57815180518552868101516001600160a01b0316878601528581015186860152606080820151908601526080808201519086015260a0808201519086015260c0808201519086015260e08082015190860152610100908101511515908501526101209093019290850190600101610d96565b5091979650505050505050565b60208082526014908201527314185b995b08191bd95cc81b9bdd08195e1a5cdd60621b604082015260600190565b634e487b7160e01b600052603260045260246000fd5b634e487b7160e01b600052601160045260246000fd5b81810381811115610e8957610e89610e60565b92915050565b634e487b7160e01b600052603160045260246000fd5b600060018201610eb757610eb7610e60565b5060010190565b634e487b7160e01b600052604160045260246000fdfea26469706673582212202f7d3f62c50993d2477224529cb02d05c39911945413609b6894294322246eee64736f6c63430008140033",
  "linkReferences": {},
  "deployedLinkReferences": {}
}