{
  "_format": "hh-sol-artifact-1",
  "contractName": "SolarPanels",
  "sourceName": "contracts/SolarPanels.sol",
  "abi": [
    {
      "anonymous": false,
      "inputs": [
        {
          "indexed": true,
          "internalType": "uint256",
          "name": "panelId",
          "type": "uint256"
        },
        {
          "indexed": true,
          "internalType": "address",
          "name": "owner",
          "type": "address"
        },
        {
          "indexed": false,
          "internalType": "uint256",
          "name": "latitude",
          "type": "uint256"
        },
        {
          "indexed": false,
          "internalType": "uint256",
          "name": "longitude",
          "type": "uint256"
        },
        {
          "indexed": false,
          "internalType": "uint256",
          "name": "batteryTemperature",
          "type": "uint256"
        },
        {
          "indexed": false,
          "internalType": "uint256",
          "name": "dcPower",
          "type": "uint256"
        },
        {
          "indexed": false,
          "internalType": "uint256",
          "name": "acPower",
          "type": "uint256"
        },
        {
          "indexed": false,
          "internalType": "uint256",
          "name": "createdAt",
          "type": "uint256"
        }
      ],
      "name": "PanelCreated",
      "type": "event"
    },
    {
      "anonymous": false,
      "inputs": [
        {
          "indexed": true,
          "internalType": "uint256",
          "name": "panelId",
          "type": "uint256"
        },
        {
          "indexed": false,
          "internalType": "uint256",
          "name": "batteryTemperature",
          "type": "uint256"
        },
        {
          "indexed": false,
          "internalType": "uint256",
          "name": "dcPower",
          "type": "uint256"
        },
        {
          "indexed": false,
          "internalType": "uint256",
          "name": "acPower",
          "type": "uint256"
        }
      ],
      "name": "PanelUpdated",
      "type": "event"
    },
    {
      "inputs": [
        {
          "internalType": "uint256",
          "name": "_latitude",
          "type": "uint256"
        },
        {
          "internalType": "uint256",
          "name": "_longitude",
          "type": "uint256"
        },
        {
          "internalType": "uint256",
          "name": "_batteryTemperature",
          "type": "uint256"
        },
        {
          "internalType": "uint256",
          "name": "_dcPower",
          "type": "uint256"
        },
        {
          "internalType": "uint256",
          "name": "_acPower",
          "type": "uint256"
        }
      ],
      "name": "createPanel",
      "outputs": [],
      "stateMutability": "nonpayable",
      "type": "function"
    },
    {
      "inputs": [],
      "name": "getAllPanels",
      "outputs": [
        {
          "components": [
            {
              "internalType": "uint256",
              "name": "id",
              "type": "uint256"
            },
            {
              "internalType": "address",
              "name": "owner",
              "type": "address"
            },
            {
              "internalType": "uint256",
              "name": "latitude",
              "type": "uint256"
            },
            {
              "internalType": "uint256",
              "name": "longitude",
              "type": "uint256"
            },
            {
              "internalType": "uint256",
              "name": "batteryTemperature",
              "type": "uint256"
            },
            {
              "internalType": "uint256",
              "name": "dcPower",
              "type": "uint256"
            },
            {
              "internalType": "uint256",
              "name": "acPower",
              "type": "uint256"
            },
            {
              "internalType": "uint256",
              "name": "createdAt",
              "type": "uint256"
            },
            {
              "internalType": "bool",
              "name": "exists",
              "type": "bool"
            }
          ],
          "internalType": "struct SolarPanels.Panel[]",
          "name": "",
          "type": "tuple[]"
        }
      ],
      "stateMutability": "view",
      "type": "function"
    },
    {
      "inputs": [],
      "name": "getMyPanels",
      "outputs": [
        {
          "components": [
            {
              "internalType": "uint256",
              "name": "id",
              "type": "uint256"
            },
            {
              "internalType": "address",
              "name": "owner",
              "type": "address"
            },
            {
              "internalType": "uint256",
              "name": "latitude",
              "type": "uint256"
            },
            {
              "internalType": "uint256",
              "name": "longitude",
              "type": "uint256"
            },
            {
              "internalType": "uint256",
              "name": "batteryTemperature",
              "type": "uint256"
            },
            {
              "internalType": "uint256",
              "name": "dcPower",
              "type": "uint256"
            },
            {
              "internalType": "uint256",
              "name": "acPower",
              "type": "uint256"
            },
            {
              "internalType": "uint256",
              "name": "createdAt",
              "type": "uint256"
            },
            {
              "internalType": "bool",
              "name": "exists",
              "type": "bool"
            }
          ],
          "internalType": "struct SolarPanels.Panel[]",
          "name": "",
          "type": "tuple[]"
        }
      ],
      "stateMutability": "view",
      "type": "function"
    },
    {
      "inputs": [
        {
          "internalType": "uint256",
          "name": "_panelId",
          "type": "uint256"
        }
      ],
      "name": "getPanel",
      "outputs": [
        {
          "internalType": "address",
          "name": "owner",
          "type": "address"
        },
        {
          "internalType": "uint256",
          "name": "latitude",
          "type": "uint256"
        },
        {
          "internalType": "uint256",
          "name": "longitude",
          "type": "uint256"
        },
        {
          "internalType": "uint256",
          "name": "batteryTemperature",
          "type": "uint256"
        },
        {
          "internalType": "uint256",
          "name": "dcPower",
          "type": "uint256"
        },
        {
          "internalType": "uint256",
          "name": "acPower",
          "type": "uint256"
        },
        {
          "internalType": "uint256",
          "name": "createdAt",
          "type": "uint256"
        }
      ],
      "stateMutability": "view",
      "type": "function"
    },
    {
      "inputs": [
        {
          "internalType": "address",
          "name": "",
          "type": "address"
        },
        {
          "internalType": "uint256",
          "name": "",
          "type": "uint256"
        }
      ],
      "name": "ownerPanels",
      "outputs": [
        {
          "internalType": "uint256",
          "name": "",
          "type": "uint256"
        }
      ],
      "stateMutability": "view",
      "type": "function"
    },
    {
      "inputs": [],
      "name": "panelCount",
      "outputs": [
        {
          "internalType": "uint256",
          "name": "",
          "type": "uint256"
        }
      ],
      "stateMutability": "view",
      "type": "function"
    },
    {
      "inputs": [
        {
          "internalType": "uint256",
          "name": "",
          "type": "uint256"
        }
      ],
      "name": "panels",
      "outputs": [
        {
          "internalType": "uint256",
          "name": "id",
          "type": "uint256"
        },
        {
          "internalType": "address",
          "name": "owner",
          "type": "address"
        },
        {
          "internalType": "uint256",
          "name": "latitude",
          "type": "uint256"
        },
        {
          "internalType": "uint256",
          "name": "longitude",
          "type": "uint256"
        },
        {
          "internalType": "uint256",
          "name": "batteryTemperature",
          "type": "uint256"
        },
        {
          "internalType": "uint256",
          "name": "dcPower",
          "type": "uint256"
        },
        {
          "internalType": "uint256",
          "name": "acPower",
          "type": "uint256"
        },
        {
          "internalType": "uint256",
          "name": "createdAt",
          "type": "uint256"
        },
        {
          "internalType": "bool",
          "name": "exists",
          "type": "bool"
        }
      ],
      "stateMutability": "view",
      "type": "function"
    },
    {
      "inputs": [
        {
          "internalType": "uint256",
          "name": "_panelId",
          "type": "uint256"
        },
        {
          "internalType": "uint256",
          "name": "_batteryTemperature",
          "type": "uint256"
        },
        {
          "internalType": "uint256",
          "name": "_dcPower",
          "type": "uint256"
        },
        {
          "internalType": "uint256",
          "name": "_acPower",
          "type": "uint256"
        }
      ],
      "name": "updatePanel",
      "outputs": [],
      "stateMutability": "nonpayable",
      "type": "function"
    }
  ],
  "bytecode": "0x60806040526000805534801561001457600080fd5b50610aff806100246000396000f3fe608060405234801561001057600080fd5b50600436106100885760003560e01c8063e3807a881161005b578063e3807a8814610123578063ef4c094914610136578063f40e4f6f1461014b578063f94e6c98146101fe57600080fd5b80633453a61d1461008d57806394f178df146100a257806396879ef0146100f9578063b25c155714610110575b600080fd5b6100a061009b3660046108f4565b610206565b005b6100b56100b0366004610926565b61033c565b604080516001600160a01b0390981688526020880196909652948601939093526060850191909152608084015260a083015260c082015260e0015b60405180910390f35b61010260005481565b6040519081526020016100f0565b61010261011e36600461093f565b61043f565b6100a0610131366004610977565b610470565b61013e6105d9565b6040516100f091906109b2565b6101b0610159366004610926565b60016020819052600091825260409091208054918101546002820154600383015460048401546005850154600686015460078701546008909701546001600160a01b03909616969495939492939192909160ff1689565b60408051998a526001600160a01b0390981660208a0152968801959095526060870193909352608086019190915260a085015260c084015260e08301521515610100820152610120016100f0565b61013e610775565b6000848152600160208190526040909120015484906001600160a01b031633146102775760405162461bcd60e51b815260206004820152601b60248201527f4e6f7420746865206f776e6572206f6620746869732070616e656c000000000060448201526064015b60405180910390fd5b60008581526001602052604090206008015460ff166102cf5760405162461bcd60e51b815260206004820152601460248201527314185b995b08191bd95cc81b9bdd08195e1a5cdd60621b604482015260640161026e565b6000858152600160209081526040918290206004810187905560058101869055600601849055815186815290810185905290810183905285907f26171779e4beda8723f55fd9ee403e6c9a73b3c22e858fa4cdbe80656e401a609060600160405180910390a25050505050565b60008181526001602052604081206008015481908190819081908190819060ff166103a05760405162461bcd60e51b815260206004820152601460248201527314185b995b08191bd95cc81b9bdd08195e1a5cdd60621b604482015260640161026e565b505050600094855250506001602081815260409485902085516101208101875281548152928101546001600160a01b03169183018290526002810154958301869052600381015460608401819052600482015460808501819052600583015460a08601819052600684015460c08701819052600785015460e0880181905260089095015460ff1615156101009097019690965293989196509450919291565b6002602052816000526040600020818154811061045b57600080fd5b90600052602060002001600091509150505481565b60008054908061047f83610a6b565b90915550506040805161012081018252600080548083523360208085018281528587018c8152606087018c8152608088018c815260a089018c815260c08a018c81524260e08c0181815260016101008e018181529b8d52808a528e8d209d518e5597518d890180546001600160a01b03929092166001600160a01b031990921691909117905595516002808e0191909155945160038d0155925160048c0155905160058b01555160068a01559151600789015594516008909701805497151560ff19989098169790971790965582855292815285842084548154948501825590855290842090920191909155905492519092917f48b6c9d02f31326df94aa31f59108bf5156d7784c5ca28179f08f781ca1016a3916105ca918a918a918a918a918a91958652602086019490945260408501929092526060840152608083015260a082015260c00190565b60405180910390a35050505050565b33600090815260026020908152604080832080548251818502810185019093528083526060949383018282801561062f57602002820191906000526020600020905b81548152602001906001019080831161061b575b505050505090506000815167ffffffffffffffff81111561065257610652610a84565b60405190808252806020026020018201604052801561068b57816020015b61067861089d565b8152602001906001900390816106705790505b50905060005b825181101561076e57600160008483815181106106b0576106b0610a9a565b60209081029190910181015182528181019290925260409081016000208151610120810183528154815260018201546001600160a01b0316938101939093526002810154918301919091526003810154606083015260048101546080830152600581015460a0830152600681015460c0830152600781015460e08301526008015460ff161515610100820152825183908390811061075057610750610a9a565b6020026020010181905250808061076690610a6b565b915050610691565b5092915050565b60606000805467ffffffffffffffff81111561079357610793610a84565b6040519080825280602002602001820160405280156107cc57816020015b6107b961089d565b8152602001906001900390816107b15790505b50905060015b60005481116108975760008181526001602081815260409283902083516101208101855281548152818401546001600160a01b0316928101929092526002810154938201939093526003830154606082015260048301546080820152600583015460a0820152600683015460c0820152600783015460e082015260089092015460ff16151561010083015283906108699084610ab0565b8151811061087957610879610a9a565b6020026020010181905250808061088f90610a6b565b9150506107d2565b50919050565b6040518061012001604052806000815260200160006001600160a01b031681526020016000815260200160008152602001600081526020016000815260200160008152602001600081526020016000151581525090565b6000806000806080858703121561090a57600080fd5b5050823594602084013594506040840135936060013592509050565b60006020828403121561093857600080fd5b5035919050565b6000806040838503121561095257600080fd5b82356001600160a01b038116811461096957600080fd5b946020939093013593505050565b600080600080600060a0868803121561098f57600080fd5b505083359560208501359550604085013594606081013594506080013592509050565b602080825282518282018190526000919060409081850190868401855b82811015610a4857815180518552868101516001600160a01b0316878601528581015186860152606080820151908601526080808201519086015260a0808201519086015260c0808201519086015260e080820151908601526101009081015115159085015261012090930192908501906001016109cf565b5091979650505050505050565b634e487b7160e01b600052601160045260246000fd5b600060018201610a7d57610a7d610a55565b5060010190565b634e487b7160e01b600052604160045260246000fd5b634e487b7160e01b600052603260045260246000fd5b81810381811115610ac357610ac3610a55565b9291505056fea26469706673582212208358e2102d4934a506bd9b041fb05f17c51e3e793d16ab1e162e9d52273a6d3a64736f6c63430008140033",
  "linkReferences": {},
  "deployedLinkReferences": {}
}