{
  "_format": "hh-sol-artifact-1",
  "contractName": "SolarToken",
  "sourceName": "contracts/SolarToken.sol",
  "abi": [
    {
      "inputs": [],
      "stateMutability": "nonpayable",
      "type": "constructor"
    },
    {
      "inputs": [
        {
          "internalType": "address",
          "name": "spender",
          "type": "address"
        },
        {
          "internalType": "uint256",
          "name": "allowance",
          "type": "uint256"
        },
        {
          "internalType": "uint256",
          "name": "needed",
          "type": "uint256"
        }
      ],
      "name": "ERC20InsufficientAllowance",
      "type": "error"
    },
    {
      "inputs": [
        {
          "internalType": "address",
          "name": "sender",
          "type": "address"
        },
        {
          "internalType": "uint256",
          "name": "balance",
          "type": "uint256"
        },
        {
          "internalType": "uint256",
          "name": "needed",
          "type": "uint256"
        }
      ],
      "name": "ERC20InsufficientBalance",
      "type": "error"
    },
    {
      "inputs": [
        {
          "internalType": "address",
          "name": "approver",
          "type": "address"
        }
      ],
      "name": "ERC20InvalidApprover",
      "type": "error"
    },
    {
      "inputs": [
        {
          "internalType": "address",
          "name": "receiver",
          "type": "address"
        }
      ],
      "name": "ERC20InvalidReceiver",
      "type": "error"
    },
    {
      "inputs": [
        {
          "internalType": "address",
          "name": "sender",
          "type": "address"
        }
      ],
      "name": "ERC20InvalidSender",
      "type": "error"
    },
    {
      "inputs": [
        {
          "internalType": "address",
          "name": "spender",
          "type": "address"
        }
      ],
      "name": "ERC20InvalidSpender",
      "type": "error"
    },
    {
      "inputs": [
        {
          "internalType": "address",
          "name": "owner",
          "type": "address"
        }
      ],
      "name": "OwnableInvalidOwner",
      "type": "error"
    },
    {
      "inputs": [
        {
          "internalType": "address",
          "name": "account",
          "type": "address"
        }
      ],
      "name": "OwnableUnauthorizedAccount",
      "type": "error"
    },
    {
      "anonymous": false,
      "inputs": [
        {
          "indexed": true,
          "internalType": "address",
          "name": "owner",
          "type": "address"
        },
        {
          "indexed": true,
          "internalType": "address",
          "name": "spender",
          "type": "address"
        },
        {
          "indexed": false,
          "internalType": "uint256",
          "name": "value",
          "type": "uint256"
        }
      ],
      "name": "Approval",
      "type": "event"
    },
    {
      "anonymous": false,
      "inputs": [
        {
          "indexed": true,
          "internalType": "address",
          "name": "previousOwner",
          "type": "address"
        },
        {
          "indexed": true,
          "internalType": "address",
          "name": "newOwner",
          "type": "address"
        }
      ],
      "name": "OwnershipTransferred",
      "type": "event"
    },
    {
      "anonymous": false,
      "inputs": [
        {
          "indexed": true,
          "internalType": "address",
          "name": "from",
          "type": "address"
        },
        {
          "indexed": true,
          "internalType": "address",
          "name": "to",
          "type": "address"
        },
        {
          "indexed": false,
          "internalType": "uint256",
          "name": "value",
          "type": "uint256"
        }
      ],
      "name": "Transfer",
      "type": "event"
    },
    {
      "inputs": [
        {
          "internalType": "address",
          "name": "owner",
          "type": "address"
        },
        {
          "internalType": "address",
          "name": "spender",
          "type": "address"
        }
      ],
      "name": "allowance",
      "outputs": [
        {
          "internalType": "uint256",
          "name": "",
          "type": "uint256"
        }
      ],
      "stateMutability": "view",
      "type": "function"
    },
    {
      "inputs": [
        {
          "internalType": "address",
          "name": "spender",
          "type": "address"
        },
        {
          "internalType": "uint256",
          "name": "value",
          "type": "uint256"
        }
      ],
      "name": "approve",
      "outputs": [
        {
          "internalType": "bool",
          "name": "",
          "type": "bool"
        }
      ],
      "stateMutability": "nonpayable",
      "type": "function"
    },
    {
      "inputs": [
        {
          "internalType": "address",
          "name": "account",
          "type": "address"
        }
      ],
      "name": "balanceOf",
      "outputs": [
        {
          "internalType": "uint256",
          "name": "",
          "type": "uint256"
        }
      ],
      "stateMutability": "view",
      "type": "function"
    },
    {
      "inputs": [
        {
          "internalType": "uint256",
          "name": "amount",
          "type": "uint256"
        }
      ],
      "name": "burn",
      "outputs": [],
      "stateMutability": "nonpayable",
      "type": "function"
    },
    {
      "inputs": [],
      "name": "cap",
      "outputs": [
        {
          "internalType": "uint256",
          "name": "",
          "type": "uint256"
        }
      ],
      "stateMutability": "view",
      "type": "function"
    },
    {
      "inputs": [],
      "name": "decimals",
      "outputs": [
        {
          "internalType": "uint8",
          "name": "",
          "type": "uint8"
        }
      ],
      "stateMutability": "view",
      "type": "function"
    },
    {
      "inputs": [
        {
          "internalType": "address",
          "name": "to",
          "type": "address"
        },
        {
          "internalType": "uint256",
          "name": "amount",
          "type": "uint256"
        }
      ],
      "name": "mint",
      "outputs": [],
      "stateMutability": "nonpayable",
      "type": "function"
    },
    {
      "inputs": [],
      "name": "name",
      "outputs": [
        {
          "internalType": "string",
          "name": "",
          "type": "string"
        }
      ],
      "stateMutability": "view",
      "type": "function"
    },
    {
      "inputs": [],
      "name": "owner",
      "outputs": [
        {
          "internalType": "address",
          "name": "",
          "type": "address"
        }
      ],
      "stateMutability": "view",
      "type": "function"
    },
    {
      "inputs": [],
      "name": "renounceOwnership",
      "outputs": [],
      "stateMutability": "nonpayable",
      "type": "function"
    },
    {
      "inputs": [],
      "name": "symbol",
      "outputs": [
        {
          "internalType": "string",
          "name": "",
          "type": "string"
        }
      ],
      "stateMutability": "view",
      "type": "function"
    },
    {
      "inputs": [],
      "name": "totalSupply",
      "outputs": [
        {
          "internalType": "uint256",
          "name": "",
          "type": "uint256"
        }
      ],
      "stateMutability": "view",
      "type": "function"
    },
    {
      "inputs": [
        {
          "internalType": "address",
          "name": "to",
          "type": "address"
        },
        {
          "internalType": "uint256",
          "name": "value",
          "type": "uint256"
        }
      ],
      "name": "transfer",
      "outputs": [
        {
          "internalType": "bool",
          "name": "",
          "type": "bool"
        }
      ],
      "stateMutability": "nonpayable",
      "type": "function"
    },
    {
      "inputs": [
        {
          "internalType": "address",
          "name": "from",
          "type": "address"
        },
        {
          "internalType": "address",
          "name": "to",
          "type": "address"
        },
        {
          "internalType": "uint256",
          "name": "value",
          "type": "uint256"
        }
      ],
      "name": "transferFrom",
      "outputs": [
        {
          "internalType": "bool",
          "name": "",
          "type": "bool"
        }
      ],
      "stateMutability": "nonpayable",
      "type": "function"
    },
    {
      "inputs": [
        {
          "internalType": "address",
          "name": "newOwner",
          "type": "address"
        }
      ],
      "name": "transferOwnership",
      "outputs": [],
      "stateMutability": "nonpayable",
      "type": "function"
    }
  ],
  "bytecode": "0x60806040526a52b7d2dcc80cd2e40000006006553480156200002057600080fd5b50336040518060400160405280600a81526020016929b7b630b92a37b5b2b760b11b8152506040518060400160405280600481526020016329a7a62960e11b815250816003908162000073919062000345565b50600462000082828262000345565b5050506001600160a01b038116620000b557604051631e4fbdf760e01b8152600060048201526024015b60405180910390fd5b620000c081620000dd565b50620000d73369d3c21bcecceda10000006200012f565b62000439565b600580546001600160a01b038381166001600160a01b0319831681179093556040519116919082907f8be0079c531659141344cd1fd0a4f28419497f9722a3daafe3b4186f6b6457e090600090a35050565b6001600160a01b0382166200015b5760405163ec442f0560e01b815260006004820152602401620000ac565b62000169600083836200016d565b5050565b6001600160a01b0383166200019c57806002600082825462000190919062000411565b90915550620002109050565b6001600160a01b03831660009081526020819052604090205481811015620001f15760405163391434e360e21b81526001600160a01b03851660048201526024810182905260448101839052606401620000ac565b6001600160a01b03841660009081526020819052604090209082900390555b6001600160a01b0382166200022e576002805482900390556200024d565b6001600160a01b03821660009081526020819052604090208054820190555b816001600160a01b0316836001600160a01b03167fddf252ad1be2c89b69c2b068fc378daa952ba7f163c4a11628f55a4df523b3ef836040516200029391815260200190565b60405180910390a3505050565b634e487b7160e01b600052604160045260246000fd5b600181811c90821680620002cb57607f821691505b602082108103620002ec57634e487b7160e01b600052602260045260246000fd5b50919050565b601f8211156200034057600081815260208120601f850160051c810160208610156200031b5750805b601f850160051c820191505b818110156200033c5782815560010162000327565b5050505b505050565b81516001600160401b03811115620003615762000361620002a0565b6200037981620003728454620002b6565b84620002f2565b602080601f831160018114620003b15760008415620003985750858301515b600019600386901b1c1916600185901b1785556200033c565b600085815260208120601f198616915b82811015620003e257888601518255948401946001909101908401620003c1565b5085821015620004015787850151600019600388901b60f8161c191681555b5050505050600190811b01905550565b808201808211156200043357634e487b7160e01b600052601160045260246000fd5b92915050565b6109b280620004496000396000f3fe608060405234801561001057600080fd5b50600436106100f55760003560e01c806342966c681161009757806395d89b411161006657806395d89b41146101ec578063a9059cbb146101f4578063dd62ed3e14610207578063f2fde38b1461024057600080fd5b806342966c681461018d57806370a08231146101a0578063715018a6146101c95780638da5cb5b146101d157600080fd5b806323b872dd116100d357806323b872dd1461014d578063313ce56714610160578063355274ea1461016f57806340c10f191461017857600080fd5b806306fdde03146100fa578063095ea7b31461011857806318160ddd1461013b575b600080fd5b610102610253565b60405161010f91906107e3565b60405180910390f35b61012b61012636600461084d565b6102e5565b604051901515815260200161010f565b6002545b60405190815260200161010f565b61012b61015b366004610877565b6102ff565b6040516012815260200161010f565b61013f60065481565b61018b61018636600461084d565b610323565b005b61018b61019b3660046108b3565b610390565b61013f6101ae3660046108cc565b6001600160a01b031660009081526020819052604090205490565b61018b61039d565b6005546040516001600160a01b03909116815260200161010f565b6101026103b1565b61012b61020236600461084d565b6103c0565b61013f6102153660046108ee565b6001600160a01b03918216600090815260016020908152604080832093909416825291909152205490565b61018b61024e3660046108cc565b6103ce565b60606003805461026290610921565b80601f016020809104026020016040519081016040528092919081815260200182805461028e90610921565b80156102db5780601f106102b0576101008083540402835291602001916102db565b820191906000526020600020905b8154815290600101906020018083116102be57829003601f168201915b5050505050905090565b6000336102f3818585610409565b60019150505b92915050565b60003361030d85828561041b565b61031885858561049a565b506001949350505050565b61032b6104f9565b6006548161033860025490565b610342919061095b565b11156103825760405162461bcd60e51b815260206004820152600a6024820152691bdd995c881b1a5b5a5d60b21b60448201526064015b60405180910390fd5b61038c8282610526565b5050565b61039a338261055c565b50565b6103a56104f9565b6103af6000610592565b565b60606004805461026290610921565b6000336102f381858561049a565b6103d66104f9565b6001600160a01b03811661040057604051631e4fbdf760e01b815260006004820152602401610379565b61039a81610592565b61041683838360016105e4565b505050565b6001600160a01b03838116600090815260016020908152604080832093861683529290522054600019811015610494578181101561048557604051637dc7a0d960e11b81526001600160a01b03841660048201526024810182905260448101839052606401610379565b610494848484840360006105e4565b50505050565b6001600160a01b0383166104c457604051634b637e8f60e11b815260006004820152602401610379565b6001600160a01b0382166104ee5760405163ec442f0560e01b815260006004820152602401610379565b6104168383836106b9565b6005546001600160a01b031633146103af5760405163118cdaa760e01b8152336004820152602401610379565b6001600160a01b0382166105505760405163ec442f0560e01b815260006004820152602401610379565b61038c600083836106b9565b6001600160a01b03821661058657604051634b637e8f60e11b815260006004820152602401610379565b61038c826000836106b9565b600580546001600160a01b038381166001600160a01b0319831681179093556040519116919082907f8be0079c531659141344cd1fd0a4f28419497f9722a3daafe3b4186f6b6457e090600090a35050565b6001600160a01b03841661060e5760405163e602df0560e01b815260006004820152602401610379565b6001600160a01b03831661063857604051634a1406b160e11b815260006004820152602401610379565b6001600160a01b038085166000908152600160209081526040808320938716835292905220829055801561049457826001600160a01b0316846001600160a01b03167f8c5be1e5ebec7d5bd14f71427d1e84f3dd0314c0f7b2291e5b200ac8c7c3b925846040516106ab91815260200190565b60405180910390a350505050565b6001600160a01b0383166106e45780600260008282546106d9919061095b565b909155506107569050565b6001600160a01b038316600090815260208190526040902054818110156107375760405163391434e360e21b81526001600160a01b03851660048201526024810182905260448101839052606401610379565b6001600160a01b03841660009081526020819052604090209082900390555b6001600160a01b03821661077257600280548290039055610791565b6001600160a01b03821660009081526020819052604090208054820190555b816001600160a01b0316836001600160a01b03167fddf252ad1be2c89b69c2b068fc378daa952ba7f163c4a11628f55a4df523b3ef836040516107d691815260200190565b60405180910390a3505050565b600060208083528351808285015260005b81811015610810578581018301518582016040015282016107f4565b506000604082860101526040601f19601f8301168501019250505092915050565b80356001600160a01b038116811461084857600080fd5b919050565b6000806040838503121561086057600080fd5b61086983610831565b946020939093013593505050565b60008060006060848603121561088c57600080fd5b61089584610831565b92506108a360208501610831565b9150604084013590509250925092565b6000602082840312156108c557600080fd5b5035919050565b6000602082840312156108de57600080fd5b6108e782610831565b9392505050565b6000806040838503121561090157600080fd5b61090a83610831565b915061091860208401610831565b90509250929050565b600181811c9082168061093557607f821691505b60208210810361095557634e487b7160e01b600052602260045260246000fd5b50919050565b808201808211156102f957634e487b7160e01b600052601160045260246000fdfea2646970667358221220c5637104cdf969b573c73a2727bd2af8776d7836bf05fe4a39d3611cfab0500264736f6c63430008140033",
  "linkReferences": {},
  "deployedLinkReferences": {}
}