{"contracts/SolarPanels.sol":{"SolarPanels":{"abi":[{"anonymous":false,"inputs":[{"indexed":true,"internalType":"uint256","name":"panelId","type":"uint256"},{"indexed":true,"internalType":"address","name":"owner","type":"address"},{"indexed":false,"internalType":"uint256","name":"latitude","type":"uint256"},{"indexed":false,"internalType":"uint256","name":"longitude","type":"uint256"},{"indexed":false,"internalType":"uint256","name":"batteryTemperature","type":"uint256"},{"indexed":false,"internalType":"uint256","name":"dcPower","type":"uint256"},{"indexed":false,"internalType":"uint256","name":"acPower","type":"uint256"},{"indexed":false,"internalType":"uint256","name":"createdAt","type":"uint256"}],"name":"PanelCreated","type":"event"},{"anonymous":false,"inputs":[{"indexed":true,"internalType":"uint256","name":"panelId","type":"uint256"},{"indexed":true,"internalType":"address","name":"from","type":"address"},{"indexed":true,"internalType":"address","name":"to","type":"address"}],"name":"PanelOwnershipTransferred","type":"event"},{"anonymous":false,"inputs":[{"indexed":true,"internalType":"uint256","name":"panelId","type":"uint256"},{"indexed":false,"internalType":"uint256","name":"batteryTemperature","type":"uint256"},{"indexed":false,"internalType":"uint256","name":"dcPower","type":"uint256"},{"indexed":false,"internalType":"uint256","name":"acPower","type":"uint256"}],"name":"PanelUpdated","type":"event"},{"inputs":[{"internalType":"uint256","name":"_latitude","type":"uint256"},{"internalType":"uint256","name":"_longitude","type":"uint256"},{"internalType":"uint256","name":"_batteryTemperature","type":"uint256"},{"internalType":"uint256","name":"_dcPower","type":"uint256"},{"internalType":"uint256","name":"_acPower","type":"uint256"}],"name":"createPanel","outputs":[],"stateMutability":"nonpayable","type":"function"},{"inputs":[],"name":"getAllPanels","outputs":[{"components":[{"internalType":"uint256","name":"id","type":"uint256"},{"internalType":"address","name":"owner","type":"address"},{"internalType":"uint256","name":"latitude","type":"uint256"},{"internalType":"uint256","name":"longitude","type":"uint256"},{"internalType":"uint256","name":"batteryTemperature","type":"uint256"},{"internalType":"uint256","name":"dcPower","type":"uint256"},{"internalType":"uint256","name":"acPower","type":"uint256"},{"internalType":"uint256","name":"createdAt","type":"uint256"},{"internalType":"bool","name":"exists","type":"bool"}],"internalType":"struct SolarPanels.Panel[]","name":"","type":"tuple[]"}],"stateMutability":"view","type":"function"},{"inputs":[],"name":"getMyPanels","outputs":[{"components":[{"internalType":"uint256","name":"id","type":"uint256"},{"internalType":"address","name":"owner","type":"address"},{"internalType":"uint256","name":"latitude","type":"uint256"},{"internalType":"uint256","name":"longitude","type":"uint256"},{"internalType":"uint256","name":"batteryTemperature","type":"uint256"},{"internalType":"uint256","name":"dcPower","type":"uint256"},{"internalType":"uint256","name":"acPower","type":"uint256"},{"internalType":"uint256","name":"createdAt","type":"uint256"},{"internalType":"bool","name":"exists","type":"bool"}],"internalType":"struct SolarPanels.Panel[]","name":"","type":"tuple[]"}],"stateMutability":"view","type":"function"},{"inputs":[{"internalType":"uint256","name":"_panelId","type":"uint256"}],"name":"getPanel","outputs":[{"internalType":"address","name":"owner","type":"address"},{"internalType":"uint256","name":"latitude","type":"uint256"},{"internalType":"uint256","name":"longitude","type":"uint256"},{"internalType":"uint256","name":"batteryTemperature","type":"uint256"},{"internalType":"uint256","name":"dcPower","type":"uint256"},{"internalType":"uint256","name":"acPower","type":"uint256"},{"internalType":"uint256","name":"createdAt","type":"uint256"}],"stateMutability":"view","type":"function"},{"inputs":[{"internalType":"address","name":"user","type":"address"}],"name":"getPanelsOf","outputs":[{"components":[{"internalType":"uint256","name":"id","type":"uint256"},{"internalType":"address","name":"owner","type":"address"},{"internalType":"uint256","name":"latitude","type":"uint256"},{"internalType":"uint256","name":"longitude","type":"uint256"},{"internalType":"uint256","name":"batteryTemperature","type":"uint256"},{"internalType":"uint256","name":"dcPower","type":"uint256"},{"internalType":"uint256","name":"acPower","type":"uint256"},{"internalType":"uint256","name":"createdAt","type":"uint256"},{"internalType":"bool","name":"exists","type":"bool"}],"internalType":"struct SolarPanels.Panel[]","name":"","type":"tuple[]"}],"stateMutability":"view","type":"function"},{"inputs":[{"internalType":"address","name":"","type":"address"},{"internalType":"uint256","name":"","type":"uint256"}],"name":"ownerPanels","outputs":[{"internalType":"uint256","name":"","type":"uint256"}],"stateMutability":"view","type":"function"},{"inputs":[],"name":"panelCount","outputs":[{"internalType":"uint256","name":"","type":"uint256"}],"stateMutability":"view","type":"function"},{"inputs":[{"internalType":"uint256","name":"","type":"uint256"}],"name":"panels","outputs":[{"internalType":"uint256","name":"id","type":"uint256"},{"internalType":"address","name":"owner","type":"address"},{"internalType":"uint256","name":"latitude","type":"uint256"},{"internalType":"uint256","name":"longitude","type":"uint256"},{"internalType":"uint256","name":"batteryTemperature","type":"uint256"},{"internalType":"uint256","name":"dcPower","type":"uint256"},{"internalType":"uint256","name":"acPower","type":"uint256"},{"internalType":"uint256","name":"createdAt","type":"uint256"},{"internalType":"bool","name":"exists","type":"bool"}],"stateMutability":"view","type":"function"},{"inputs":[{"internalType":"address","name":"_shop","type":"address"}],"name":"setShopContract","outputs":[],"stateMutability":"nonpayable","type":"function"},{"inputs":[],"name":"shopContract","outputs":[{"internalType":"address","name":"","type":"address"}],"stateMutability":"view","type":"function"},{"inputs":[{"internalType":"uint256","name":"_panelId","type":"uint256"},{"internalType":"address","name":"_newOwner","type":"address"}],"name":"transferPanelOwnership","outputs":[],"stateMutability":"nonpayable","type":"function"},{"inputs":[{"internalType":"uint256","name":"_panelId","type":"uint256"},{"internalType":"uint256","name":"_batteryTemperature","type":"uint256"},{"internalType":"uint256","name":"_dcPower","type":"uint256"},{"internalType":"uint256","name":"_acPower","type":"uint256"}],"name":"updatePanel","outputs":[],"stateMutability":"nonpayable","type":"function"}],"evm":{"bytecode":{"linkReferences":{},"object":"6080604052600060015534801561001557600080fd5b506110ce806100256000396000f3fe608060405234801561001057600080fd5b50600436106100b45760003560e01c806396879ef01161007157806396879ef014610196578063b25c1557146101ad578063e3807a88146101c0578063ef4c0949146101d3578063f40e4f6f146101db578063f94e6c981461028e57600080fd5b806309090a51146100b957806324f3477c146100e95780633075494a146101095780633453a61d1461011e578063668c45bd1461013157806394f178df14610144575b600080fd5b6000546100cc906001600160a01b031681565b6040516001600160a01b0390911681526020015b60405180910390f35b6100fc6100f7366004610e3f565b610296565b6040516100e09190610e61565b61011c610117366004610f04565b61043c565b005b61011c61012c366004610f30565b6106b9565b61011c61013f366004610e3f565b6107c2565b610157610152366004610f62565b61088a565b604080516001600160a01b0390981688526020880196909652948601939093526060850191909152608084015260a083015260c082015260e0016100e0565b61019f60015481565b6040519081526020016100e0565b61019f6101bb366004610f7b565b610966565b61011c6101ce366004610fa5565b610997565b6100fc610b05565b6102406101e9366004610f62565b600260208190526000918252604090912080546001820154928201546003830154600484015460058501546006860154600787015460089097015495976001600160a01b0316969495939492939192909160ff1689565b60408051998a526001600160a01b0390981660208a0152968801959095526060870193909352608086019190915260a085015260c084015260e08301521515610100820152610120016100e0565b6100fc610ca1565b6001600160a01b03811660009081526003602090815260408083208054825181850281018501909352808352606094938301828280156102f557602002820191906000526020600020905b8154815260200190600101908083116102e1575b505050505090506000815167ffffffffffffffff81111561031857610318610fe0565b60405190808252806020026020018201604052801561035157816020015b61033e610dcc565b8152602001906001900390816103365790505b50905060005b8251811015610434576002600084838151811061037657610376610ff6565b60209081029190910181015182528181019290925260409081016000208151610120810183528154815260018201546001600160a01b0316938101939093526002810154918301919091526003810154606083015260048101546080830152600581015460a0830152600681015460c0830152600781015460e08301526008015460ff161515610100820152825183908390811061041657610416610ff6565b6020026020010181905250808061042c90611022565b915050610357565b509392505050565b60008281526002602052604090206001015482906001600160a01b031633148061047057506000546001600160a01b031633145b6104cf5760405162461bcd60e51b815260206004820152602560248201527f4e6f7420617574686f72697a656420746f207472616e736665722074686973206044820152641c185b995b60da1b60648201526084015b60405180910390fd5b60008381526002602052604090206008015460ff166105005760405162461bcd60e51b81526004016104c69061103b565b6001600160a01b0382166105565760405162461bcd60e51b815260206004820181905260248201527f4e6577206f776e65722063616e6e6f74206265207a65726f206164647265737360448201526064016104c6565b6000838152600260209081526040808320600101546001600160a01b03168084526003909252822090915b8154811015610635578582828154811061059d5761059d610ff6565b90600052602060002001540361062357815482906105bd90600190611069565b815481106105cd576105cd610ff6565b90600052602060002001548282815481106105ea576105ea610ff6565b90600052602060002001819055508180548061060857610608611082565b60019003818190600052602060002001600090559055610635565b8061062d81611022565b915050610581565b506000858152600260209081526040808320600190810180546001600160a01b0319166001600160a01b038a811691821790925580865260038552838620805493840181558652938520909101899055905191929085169188917f426e27e5a721da38f03288650903462737aecdda511bd9537f7ad9099fccad8891a45050505050565b60008481526002602052604090206001015484906001600160a01b031633146107245760405162461bcd60e51b815260206004820152601b60248201527f4e6f7420746865206f776e6572206f6620746869732070616e656c000000000060448201526064016104c6565b60008581526002602052604090206008015460ff166107555760405162461bcd60e51b81526004016104c69061103b565b6000858152600260209081526040918290206004810187905560058101869055600601849055815186815290810185905290810183905285907f26171779e4beda8723f55fd9ee403e6c9a73b3c22e858fa4cdbe80656e401a609060600160405180910390a25050505050565b6000546001600160a01b03161561081b5760405162461bcd60e51b815260206004820152601960248201527f53686f7020636f6e747261637420616c7265616479207365740000000000000060448201526064016104c6565b6001600160a01b0381166108685760405162461bcd60e51b8152602060048201526014602482015273496e76616c69642073686f70206164647265737360601b60448201526064016104c6565b600080546001600160a01b0319166001600160a01b0392909216919091179055565b60008181526002602052604081206008015481908190819081908190819060ff166108c75760405162461bcd60e51b81526004016104c69061103b565b50505060009485525050600260208181526040948590208551610120810187528154815260018201546001600160a01b031692810183905292810154958301869052600381015460608401819052600482015460808501819052600583015460a08601819052600684015460c08701819052600785015460e0880181905260089095015460ff1615156101009097019690965293989196509450919291565b6003602052816000526040600020818154811061098257600080fd5b90600052602060002001600091509150505481565b600180549060006109a783611022565b90915550506040805161012081018252600180548083523360208085018281528587018c8152606087018c8152608088018c815260a089018c815260c08a018c81524260e08c018181526101008d018c815260009b8c526002808b528f8d209e518f5598518e8e0180546001600160a01b03929092166001600160a01b03199092169190911790559651978d019790975593516003808d0191909155925160048c0155905160058b01555160068a01559251600789015590516008909701805497151560ff19989098169790971790965582845281528583208454815480870183559185529190932090920191909155905492519092917f48b6c9d02f31326df94aa31f59108bf5156d7784c5ca28179f08f781ca1016a391610af6918a918a918a918a918a91958652602086019490945260408501929092526060840152608083015260a082015260c00190565b60405180910390a35050505050565b336000908152600360209081526040808320805482518185028101850190935280835260609493830182828015610b5b57602002820191906000526020600020905b815481526020019060010190808311610b47575b505050505090506000815167ffffffffffffffff811115610b7e57610b7e610fe0565b604051908082528060200260200182016040528015610bb757816020015b610ba4610dcc565b815260200190600190039081610b9c5790505b50905060005b8251811015610c9a5760026000848381518110610bdc57610bdc610ff6565b60209081029190910181015182528181019290925260409081016000208151610120810183528154815260018201546001600160a01b0316938101939093526002810154918301919091526003810154606083015260048101546080830152600581015460a0830152600681015460c0830152600781015460e08301526008015460ff1615156101008201528251839083908110610c7c57610c7c610ff6565b60200260200101819052508080610c9290611022565b915050610bbd565b5092915050565b6060600060015467ffffffffffffffff811115610cc057610cc0610fe0565b604051908082528060200260200182016040528015610cf957816020015b610ce6610dcc565b815260200190600190039081610cde5790505b50905060015b6001548111610dc657600081815260026020818152604092839020835161012081018552815481526001808301546001600160a01b03169382019390935292810154938301939093526003830154606083015260048301546080830152600583015460a0830152600683015460c0830152600783015460e083015260089092015460ff161515610100820152908390610d989084611069565b81518110610da857610da8610ff6565b60200260200101819052508080610dbe90611022565b915050610cff565b50919050565b6040518061012001604052806000815260200160006001600160a01b031681526020016000815260200160008152602001600081526020016000815260200160008152602001600081526020016000151581525090565b80356001600160a01b0381168114610e3a57600080fd5b919050565b600060208284031215610e5157600080fd5b610e5a82610e23565b9392505050565b602080825282518282018190526000919060409081850190868401855b82811015610ef757815180518552868101516001600160a01b0316878601528581015186860152606080820151908601526080808201519086015260a0808201519086015260c0808201519086015260e08082015190860152610100908101511515908501526101209093019290850190600101610e7e565b5091979650505050505050565b60008060408385031215610f1757600080fd5b82359150610f2760208401610e23565b90509250929050565b60008060008060808587031215610f4657600080fd5b5050823594602084013594506040840135936060013592509050565b600060208284031215610f7457600080fd5b5035919050565b60008060408385031215610f8e57600080fd5b610f9783610e23565b946020939093013593505050565b600080600080600060a08688031215610fbd57600080fd5b505083359560208501359550604085013594606081013594506080013592509050565b634e487b7160e01b600052604160045260246000fd5b634e487b7160e01b600052603260045260246000fd5b634e487b7160e01b600052601160045260246000fd5b6000600182016110345761103461100c565b5060010190565b60208082526014908201527314185b995b08191bd95cc81b9bdd08195e1a5cdd60621b604082015260600190565b8181038181111561107c5761107c61100c565b92915050565b634e487b7160e01b600052603160045260246000fdfea2646970667358221220304b87713e7d1d6c18fd7f3fead3bceaec032e1361d2a9aa9b0c33d6b4b3a7f764736f6c63430008140033","opcodes":"PUSH1 0x80 PUSH1 0x40 MSTORE PUSH1 0x0 PUSH1 0x1 SSTORE CALLVALUE DUP1 ISZERO PUSH2 0x15 JUMPI PUSH1 0x0 DUP1 REVERT JUMPDEST POP PUSH2 0x10CE DUP1 PUSH2 0x25 PUSH1 0x0 CODECOPY PUSH1 0x0 RETURN INVALID PUSH1 0x80 PUSH1 0x40 MSTORE CALLVALUE DUP1 ISZERO PUSH2 0x10 JUMPI PUSH1 0x0 DUP1 REVERT JUMPDEST POP PUSH1 0x4 CALLDATASIZE LT PUSH2 0xB4 JUMPI PUSH1 0x0 CALLDATALOAD PUSH1 0xE0 SHR DUP1 PUSH4 0x96879EF0 GT PUSH2 0x71 JUMPI DUP1 PUSH4 0x96879EF0 EQ PUSH2 0x196 JUMPI DUP1 PUSH4 0xB25C1557 EQ PUSH2 0x1AD JUMPI DUP1 PUSH4 0xE3807A88 EQ PUSH2 0x1C0 JUMPI DUP1 PUSH4 0xEF4C0949 EQ PUSH2 0x1D3 JUMPI DUP1 PUSH4 0xF40E4F6F EQ PUSH2 0x1DB JUMPI DUP1 PUSH4 0xF94E6C98 EQ PUSH2 0x28E JUMPI PUSH1 0x0 DUP1 REVERT JUMPDEST DUP1 PUSH4 0x9090A51 EQ PUSH2 0xB9 JUMPI DUP1 PUSH4 0x24F3477C EQ PUSH2 0xE9 JUMPI DUP1 PUSH4 0x3075494A EQ PUSH2 0x109 JUMPI DUP1 PUSH4 0x3453A61D EQ PUSH2 0x11E JUMPI DUP1 PUSH4 0x668C45BD EQ PUSH2 0x131 JUMPI DUP1 PUSH4 0x94F178DF EQ PUSH2 0x144 JUMPI JUMPDEST PUSH1 0x0 DUP1 REVERT JUMPDEST PUSH1 0x0 SLOAD PUSH2 0xCC SWAP1 PUSH1 0x1 PUSH1 0x1 PUSH1 0xA0 SHL SUB AND DUP2 JUMP JUMPDEST PUSH1 0x40 MLOAD PUSH1 0x1 PUSH1 0x1 PUSH1 0xA0 SHL SUB SWAP1 SWAP2 AND DUP2 MSTORE PUSH1 0x20 ADD JUMPDEST PUSH1 0x40 MLOAD DUP1 SWAP2 SUB SWAP1 RETURN JUMPDEST PUSH2 0xFC PUSH2 0xF7 CALLDATASIZE PUSH1 0x4 PUSH2 0xE3F JUMP JUMPDEST PUSH2 0x296 JUMP JUMPDEST PUSH1 0x40 MLOAD PUSH2 0xE0 SWAP2 SWAP1 PUSH2 0xE61 JUMP JUMPDEST PUSH2 0x11C PUSH2 0x117 CALLDATASIZE PUSH1 0x4 PUSH2 0xF04 JUMP JUMPDEST PUSH2 0x43C JUMP JUMPDEST STOP JUMPDEST PUSH2 0x11C PUSH2 0x12C CALLDATASIZE PUSH1 0x4 PUSH2 0xF30 JUMP JUMPDEST PUSH2 0x6B9 JUMP JUMPDEST PUSH2 0x11C PUSH2 0x13F CALLDATASIZE PUSH1 0x4 PUSH2 0xE3F JUMP JUMPDEST PUSH2 0x7C2 JUMP JUMPDEST PUSH2 0x157 PUSH2 0x152 CALLDATASIZE PUSH1 0x4 PUSH2 0xF62 JUMP JUMPDEST PUSH2 0x88A JUMP JUMPDEST PUSH1 0x40 DUP1 MLOAD PUSH1 0x1 PUSH1 0x1 PUSH1 0xA0 SHL SUB SWAP1 SWAP9 AND DUP9 MSTORE PUSH1 0x20 DUP9 ADD SWAP7 SWAP1 SWAP7 MSTORE SWAP5 DUP7 ADD SWAP4 SWAP1 SWAP4 MSTORE PUSH1 0x60 DUP6 ADD SWAP2 SWAP1 SWAP2 MSTORE PUSH1 0x80 DUP5 ADD MSTORE PUSH1 0xA0 DUP4 ADD MSTORE PUSH1 0xC0 DUP3 ADD MSTORE PUSH1 0xE0 ADD PUSH2 0xE0 JUMP JUMPDEST PUSH2 0x19F PUSH1 0x1 SLOAD DUP2 JUMP JUMPDEST PUSH1 0x40 MLOAD SWAP1 DUP2 MSTORE PUSH1 0x20 ADD PUSH2 0xE0 JUMP JUMPDEST PUSH2 0x19F PUSH2 0x1BB CALLDATASIZE PUSH1 0x4 PUSH2 0xF7B JUMP JUMPDEST PUSH2 0x966 JUMP JUMPDEST PUSH2 0x11C PUSH2 0x1CE CALLDATASIZE PUSH1 0x4 PUSH2 0xFA5 JUMP JUMPDEST PUSH2 0x997 JUMP JUMPDEST PUSH2 0xFC PUSH2 0xB05 JUMP JUMPDEST PUSH2 0x240 PUSH2 0x1E9 CALLDATASIZE PUSH1 0x4 PUSH2 0xF62 JUMP JUMPDEST PUSH1 0x2 PUSH1 0x20 DUP2 SWAP1 MSTORE PUSH1 0x0 SWAP2 DUP3 MSTORE PUSH1 0x40 SWAP1 SWAP2 KECCAK256 DUP1 SLOAD PUSH1 0x1 DUP3 ADD SLOAD SWAP3 DUP3 ADD SLOAD PUSH1 0x3 DUP4 ADD SLOAD PUSH1 0x4 DUP5 ADD SLOAD PUSH1 0x5 DUP6 ADD SLOAD PUSH1 0x6 DUP7 ADD SLOAD PUSH1 0x7 DUP8 ADD SLOAD PUSH1 0x8 SWAP1 SWAP8 ADD SLOAD SWAP6 SWAP8 PUSH1 0x1 PUSH1 0x1 PUSH1 0xA0 SHL SUB AND SWAP7 SWAP5 SWAP6 SWAP4 SWAP5 SWAP3 SWAP4 SWAP2 SWAP3 SWAP1 SWAP2 PUSH1 0xFF AND DUP10 JUMP JUMPDEST PUSH1 0x40 DUP1 MLOAD SWAP10 DUP11 MSTORE PUSH1 0x1 PUSH1 0x1 PUSH1 0xA0 SHL SUB SWAP1 SWAP9 AND PUSH1 0x20 DUP11 ADD MSTORE SWAP7 DUP9 ADD SWAP6 SWAP1 SWAP6 MSTORE PUSH1 0x60 DUP8 ADD SWAP4 SWAP1 SWAP4 MSTORE PUSH1 0x80 DUP7 ADD SWAP2 SWAP1 SWAP2 MSTORE PUSH1 0xA0 DUP6 ADD MSTORE PUSH1 0xC0 DUP5 ADD MSTORE PUSH1 0xE0 DUP4 ADD MSTORE ISZERO ISZERO PUSH2 0x100 DUP3 ADD MSTORE PUSH2 0x120 ADD PUSH2 0xE0 JUMP JUMPDEST PUSH2 0xFC PUSH2 0xCA1 JUMP JUMPDEST PUSH1 0x1 PUSH1 0x1 PUSH1 0xA0 SHL SUB DUP2 AND PUSH1 0x0 SWAP1 DUP2 MSTORE PUSH1 0x3 PUSH1 0x20 SWAP1 DUP2 MSTORE PUSH1 0x40 DUP1 DUP4 KECCAK256 DUP1 SLOAD DUP3 MLOAD DUP2 DUP6 MUL DUP2 ADD DUP6 ADD SWAP1 SWAP4 MSTORE DUP1 DUP4 MSTORE PUSH1 0x60 SWAP5 SWAP4 DUP4 ADD DUP3 DUP3 DUP1 ISZERO PUSH2 0x2F5 JUMPI PUSH1 0x20 MUL DUP3 ADD SWAP2 SWAP1 PUSH1 0x0 MSTORE PUSH1 0x20 PUSH1 0x0 KECCAK256 SWAP1 JUMPDEST DUP2 SLOAD DUP2 MSTORE PUSH1 0x20 ADD SWAP1 PUSH1 0x1 ADD SWAP1 DUP1 DUP4 GT PUSH2 0x2E1 JUMPI JUMPDEST POP POP POP POP POP SWAP1 POP PUSH1 0x0 DUP2 MLOAD PUSH8 0xFFFFFFFFFFFFFFFF DUP2 GT ISZERO PUSH2 0x318 JUMPI PUSH2 0x318 PUSH2 0xFE0 JUMP JUMPDEST PUSH1 0x40 MLOAD SWAP1 DUP1 DUP3 MSTORE DUP1 PUSH1 0x20 MUL PUSH1 0x20 ADD DUP3 ADD PUSH1 0x40 MSTORE DUP1 ISZERO PUSH2 0x351 JUMPI DUP2 PUSH1 0x20 ADD JUMPDEST PUSH2 0x33E PUSH2 0xDCC JUMP JUMPDEST DUP2 MSTORE PUSH1 0x20 ADD SWAP1 PUSH1 0x1 SWAP1 SUB SWAP1 DUP2 PUSH2 0x336 JUMPI SWAP1 POP JUMPDEST POP SWAP1 POP PUSH1 0x0 JUMPDEST DUP3 MLOAD DUP2 LT ISZERO PUSH2 0x434 JUMPI PUSH1 0x2 PUSH1 0x0 DUP5 DUP4 DUP2 MLOAD DUP2 LT PUSH2 0x376 JUMPI PUSH2 0x376 PUSH2 0xFF6 JUMP JUMPDEST PUSH1 0x20 SWAP1 DUP2 MUL SWAP2 SWAP1 SWAP2 ADD DUP2 ADD MLOAD DUP3 MSTORE DUP2 DUP2 ADD SWAP3 SWAP1 SWAP3 MSTORE PUSH1 0x40 SWAP1 DUP2 ADD PUSH1 0x0 KECCAK256 DUP2 MLOAD PUSH2 0x120 DUP2 ADD DUP4 MSTORE DUP2 SLOAD DUP2 MSTORE PUSH1 0x1 DUP3 ADD SLOAD PUSH1 0x1 PUSH1 0x1 PUSH1 0xA0 SHL SUB AND SWAP4 DUP2 ADD SWAP4 SWAP1 SWAP4 MSTORE PUSH1 0x2 DUP2 ADD SLOAD SWAP2 DUP4 ADD SWAP2 SWAP1 SWAP2 MSTORE PUSH1 0x3 DUP2 ADD SLOAD PUSH1 0x60 DUP4 ADD MSTORE PUSH1 0x4 DUP2 ADD SLOAD PUSH1 0x80 DUP4 ADD MSTORE PUSH1 0x5 DUP2 ADD SLOAD PUSH1 0xA0 DUP4 ADD MSTORE PUSH1 0x6 DUP2 ADD SLOAD PUSH1 0xC0 DUP4 ADD MSTORE PUSH1 0x7 DUP2 ADD SLOAD PUSH1 0xE0 DUP4 ADD MSTORE PUSH1 0x8 ADD SLOAD PUSH1 0xFF AND ISZERO ISZERO PUSH2 0x100 DUP3 ADD MSTORE DUP3 MLOAD DUP4 SWAP1 DUP4 SWAP1 DUP2 LT PUSH2 0x416 JUMPI PUSH2 0x416 PUSH2 0xFF6 JUMP JUMPDEST PUSH1 0x20 MUL PUSH1 0x20 ADD ADD DUP2 SWAP1 MSTORE POP DUP1 DUP1 PUSH2 0x42C SWAP1 PUSH2 0x1022 JUMP JUMPDEST SWAP2 POP POP PUSH2 0x357 JUMP JUMPDEST POP SWAP4 SWAP3 POP POP POP JUMP JUMPDEST PUSH1 0x0 DUP3 DUP2 MSTORE PUSH1 0x2 PUSH1 0x20 MSTORE PUSH1 0x40 SWAP1 KECCAK256 PUSH1 0x1 ADD SLOAD DUP3 SWAP1 PUSH1 0x1 PUSH1 0x1 PUSH1 0xA0 SHL SUB AND CALLER EQ DUP1 PUSH2 0x470 JUMPI POP PUSH1 0x0 SLOAD PUSH1 0x1 PUSH1 0x1 PUSH1 0xA0 SHL SUB AND CALLER EQ JUMPDEST PUSH2 0x4CF JUMPI PUSH1 0x40 MLOAD PUSH3 0x461BCD PUSH1 0xE5 SHL DUP2 MSTORE PUSH1 0x20 PUSH1 0x4 DUP3 ADD MSTORE PUSH1 0x25 PUSH1 0x24 DUP3 ADD MSTORE PUSH32 0x4E6F7420617574686F72697A656420746F207472616E73666572207468697320 PUSH1 0x44 DUP3 ADD MSTORE PUSH5 0x1C185B995B PUSH1 0xDA SHL PUSH1 0x64 DUP3 ADD MSTORE PUSH1 0x84 ADD JUMPDEST PUSH1 0x40 MLOAD DUP1 SWAP2 SUB SWAP1 REVERT JUMPDEST PUSH1 0x0 DUP4 DUP2 MSTORE PUSH1 0x2 PUSH1 0x20 MSTORE PUSH1 0x40 SWAP1 KECCAK256 PUSH1 0x8 ADD SLOAD PUSH1 0xFF AND PUSH2 0x500 JUMPI PUSH1 0x40 MLOAD PUSH3 0x461BCD PUSH1 0xE5 SHL DUP2 MSTORE PUSH1 0x4 ADD PUSH2 0x4C6 SWAP1 PUSH2 0x103B JUMP JUMPDEST PUSH1 0x1 PUSH1 0x1 PUSH1 0xA0 SHL SUB DUP3 AND PUSH2 0x556 JUMPI PUSH1 0x40 MLOAD PUSH3 0x461BCD PUSH1 0xE5 SHL DUP2 MSTORE PUSH1 0x20 PUSH1 0x4 DUP3 ADD DUP2 SWAP1 MSTORE PUSH1 0x24 DUP3 ADD MSTORE PUSH32 0x4E6577206F776E65722063616E6E6F74206265207A65726F2061646472657373 PUSH1 0x44 DUP3 ADD MSTORE PUSH1 0x64 ADD PUSH2 0x4C6 JUMP JUMPDEST PUSH1 0x0 DUP4 DUP2 MSTORE PUSH1 0x2 PUSH1 0x20 SWAP1 DUP2 MSTORE PUSH1 0x40 DUP1 DUP4 KECCAK256 PUSH1 0x1 ADD SLOAD PUSH1 0x1 PUSH1 0x1 PUSH1 0xA0 SHL SUB AND DUP1 DUP5 MSTORE PUSH1 0x3 SWAP1 SWAP3 MSTORE DUP3 KECCAK256 SWAP1 SWAP2 JUMPDEST DUP2 SLOAD DUP2 LT ISZERO PUSH2 0x635 JUMPI DUP6 DUP3 DUP3 DUP2 SLOAD DUP2 LT PUSH2 0x59D JUMPI PUSH2 0x59D PUSH2 0xFF6 JUMP JUMPDEST SWAP1 PUSH1 0x0 MSTORE PUSH1 0x20 PUSH1 0x0 KECCAK256 ADD SLOAD SUB PUSH2 0x623 JUMPI DUP2 SLOAD DUP3 SWAP1 PUSH2 0x5BD SWAP1 PUSH1 0x1 SWAP1 PUSH2 0x1069 JUMP JUMPDEST DUP2 SLOAD DUP2 LT PUSH2 0x5CD JUMPI PUSH2 0x5CD PUSH2 0xFF6 JUMP JUMPDEST SWAP1 PUSH1 0x0 MSTORE PUSH1 0x20 PUSH1 0x0 KECCAK256 ADD SLOAD DUP3 DUP3 DUP2 SLOAD DUP2 LT PUSH2 0x5EA JUMPI PUSH2 0x5EA PUSH2 0xFF6 JUMP JUMPDEST SWAP1 PUSH1 0x0 MSTORE PUSH1 0x20 PUSH1 0x0 KECCAK256 ADD DUP2 SWAP1 SSTORE POP DUP2 DUP1 SLOAD DUP1 PUSH2 0x608 JUMPI PUSH2 0x608 PUSH2 0x1082 JUMP JUMPDEST PUSH1 0x1 SWAP1 SUB DUP2 DUP2 SWAP1 PUSH1 0x0 MSTORE PUSH1 0x20 PUSH1 0x0 KECCAK256 ADD PUSH1 0x0 SWAP1 SSTORE SWAP1 SSTORE PUSH2 0x635 JUMP JUMPDEST DUP1 PUSH2 0x62D DUP2 PUSH2 0x1022 JUMP JUMPDEST SWAP2 POP POP PUSH2 0x581 JUMP JUMPDEST POP PUSH1 0x0 DUP6 DUP2 MSTORE PUSH1 0x2 PUSH1 0x20 SWAP1 DUP2 MSTORE PUSH1 0x40 DUP1 DUP4 KECCAK256 PUSH1 0x1 SWAP1 DUP2 ADD DUP1 SLOAD PUSH1 0x1 PUSH1 0x1 PUSH1 0xA0 SHL SUB NOT AND PUSH1 0x1 PUSH1 0x1 PUSH1 0xA0 SHL SUB DUP11 DUP2 AND SWAP2 DUP3 OR SWAP1 SWAP3 SSTORE DUP1 DUP7 MSTORE PUSH1 0x3 DUP6 MSTORE DUP4 DUP7 KECCAK256 DUP1 SLOAD SWAP4 DUP5 ADD DUP2 SSTORE DUP7 MSTORE SWAP4 DUP6 KECCAK256 SWAP1 SWAP2 ADD DUP10 SWAP1 SSTORE SWAP1 MLOAD SWAP2 SWAP3 SWAP1 DUP6 AND SWAP2 DUP9 SWAP2 PUSH32 0x426E27E5A721DA38F03288650903462737AECDDA511BD9537F7AD9099FCCAD88 SWAP2 LOG4 POP POP POP POP POP JUMP JUMPDEST PUSH1 0x0 DUP5 DUP2 MSTORE PUSH1 0x2 PUSH1 0x20 MSTORE PUSH1 0x40 SWAP1 KECCAK256 PUSH1 0x1 ADD SLOAD DUP5 SWAP1 PUSH1 0x1 PUSH1 0x1 PUSH1 0xA0 SHL SUB AND CALLER EQ PUSH2 0x724 JUMPI PUSH1 0x40 MLOAD PUSH3 0x461BCD PUSH1 0xE5 SHL DUP2 MSTORE PUSH1 0x20 PUSH1 0x4 DUP3 ADD MSTORE PUSH1 0x1B PUSH1 0x24 DUP3 ADD MSTORE PUSH32 0x4E6F7420746865206F776E6572206F6620746869732070616E656C0000000000 PUSH1 0x44 DUP3 ADD MSTORE PUSH1 0x64 ADD PUSH2 0x4C6 JUMP JUMPDEST PUSH1 0x0 DUP6 DUP2 MSTORE PUSH1 0x2 PUSH1 0x20 MSTORE PUSH1 0x40 SWAP1 KECCAK256 PUSH1 0x8 ADD SLOAD PUSH1 0xFF AND PUSH2 0x755 JUMPI PUSH1 0x40 MLOAD PUSH3 0x461BCD PUSH1 0xE5 SHL DUP2 MSTORE PUSH1 0x4 ADD PUSH2 0x4C6 SWAP1 PUSH2 0x103B JUMP JUMPDEST PUSH1 0x0 DUP6 DUP2 MSTORE PUSH1 0x2 PUSH1 0x20 SWAP1 DUP2 MSTORE PUSH1 0x40 SWAP2 DUP3 SWAP1 KECCAK256 PUSH1 0x4 DUP2 ADD DUP8 SWAP1 SSTORE PUSH1 0x5 DUP2 ADD DUP7 SWAP1 SSTORE PUSH1 0x6 ADD DUP5 SWAP1 SSTORE DUP2 MLOAD DUP7 DUP2 MSTORE SWAP1 DUP2 ADD DUP6 SWAP1 MSTORE SWAP1 DUP2 ADD DUP4 SWAP1 MSTORE DUP6 SWAP1 PUSH32 0x26171779E4BEDA8723F55FD9EE403E6C9A73B3C22E858FA4CDBE80656E401A60 SWAP1 PUSH1 0x60 ADD PUSH1 0x40 MLOAD DUP1 SWAP2 SUB SWAP1 LOG2 POP POP POP POP POP JUMP JUMPDEST PUSH1 0x0 SLOAD PUSH1 0x1 PUSH1 0x1 PUSH1 0xA0 SHL SUB AND ISZERO PUSH2 0x81B JUMPI PUSH1 0x40 MLOAD PUSH3 0x461BCD PUSH1 0xE5 SHL DUP2 MSTORE PUSH1 0x20 PUSH1 0x4 DUP3 ADD MSTORE PUSH1 0x19 PUSH1 0x24 DUP3 ADD MSTORE PUSH32 0x53686F7020636F6E747261637420616C72656164792073657400000000000000 PUSH1 0x44 DUP3 ADD MSTORE PUSH1 0x64 ADD PUSH2 0x4C6 JUMP JUMPDEST PUSH1 0x1 PUSH1 0x1 PUSH1 0xA0 SHL SUB DUP2 AND PUSH2 0x868 JUMPI PUSH1 0x40 MLOAD PUSH3 0x461BCD PUSH1 0xE5 SHL DUP2 MSTORE PUSH1 0x20 PUSH1 0x4 DUP3 ADD MSTORE PUSH1 0x14 PUSH1 0x24 DUP3 ADD MSTORE PUSH20 0x496E76616C69642073686F702061646472657373 PUSH1 0x60 SHL PUSH1 0x44 DUP3 ADD MSTORE PUSH1 0x64 ADD PUSH2 0x4C6 JUMP JUMPDEST PUSH1 0x0 DUP1 SLOAD PUSH1 0x1 PUSH1 0x1 PUSH1 0xA0 SHL SUB NOT AND PUSH1 0x1 PUSH1 0x1 PUSH1 0xA0 SHL SUB SWAP3 SWAP1 SWAP3 AND SWAP2 SWAP1 SWAP2 OR SWAP1 SSTORE JUMP JUMPDEST PUSH1 0x0 DUP2 DUP2 MSTORE PUSH1 0x2 PUSH1 0x20 MSTORE PUSH1 0x40 DUP2 KECCAK256 PUSH1 0x8 ADD SLOAD DUP2 SWAP1 DUP2 SWAP1 DUP2 SWAP1 DUP2 SWAP1 DUP2 SWAP1 DUP2 SWAP1 PUSH1 0xFF AND PUSH2 0x8C7 JUMPI PUSH1 0x40 MLOAD PUSH3 0x461BCD PUSH1 0xE5 SHL DUP2 MSTORE PUSH1 0x4 ADD PUSH2 0x4C6 SWAP1 PUSH2 0x103B JUMP JUMPDEST POP POP POP PUSH1 0x0 SWAP5 DUP6 MSTORE POP POP PUSH1 0x2 PUSH1 0x20 DUP2 DUP2 MSTORE PUSH1 0x40 SWAP5 DUP6 SWAP1 KECCAK256 DUP6 MLOAD PUSH2 0x120 DUP2 ADD DUP8 MSTORE DUP2 SLOAD DUP2 MSTORE PUSH1 0x1 DUP3 ADD SLOAD PUSH1 0x1 PUSH1 0x1 PUSH1 0xA0 SHL SUB AND SWAP3 DUP2 ADD DUP4 SWAP1 MSTORE SWAP3 DUP2 ADD SLOAD SWAP6 DUP4 ADD DUP7 SWAP1 MSTORE PUSH1 0x3 DUP2 ADD SLOAD PUSH1 0x60 DUP5 ADD DUP2 SWAP1 MSTORE PUSH1 0x4 DUP3 ADD SLOAD PUSH1 0x80 DUP6 ADD DUP2 SWAP1 MSTORE PUSH1 0x5 DUP4 ADD SLOAD PUSH1 0xA0 DUP7 ADD DUP2 SWAP1 MSTORE PUSH1 0x6 DUP5 ADD SLOAD PUSH1 0xC0 DUP8 ADD DUP2 SWAP1 MSTORE PUSH1 0x7 DUP6 ADD SLOAD PUSH1 0xE0 DUP9 ADD DUP2 SWAP1 MSTORE PUSH1 0x8 SWAP1 SWAP6 ADD SLOAD PUSH1 0xFF AND ISZERO ISZERO PUSH2 0x100 SWAP1 SWAP8 ADD SWAP7 SWAP1 SWAP7 MSTORE SWAP4 SWAP9 SWAP2 SWAP7 POP SWAP5 POP SWAP2 SWAP3 SWAP2 JUMP JUMPDEST PUSH1 0x3 PUSH1 0x20 MSTORE DUP2 PUSH1 0x0 MSTORE PUSH1 0x40 PUSH1 0x0 KECCAK256 DUP2 DUP2 SLOAD DUP2 LT PUSH2 0x982 JUMPI PUSH1 0x0 DUP1 REVERT JUMPDEST SWAP1 PUSH1 0x0 MSTORE PUSH1 0x20 PUSH1 0x0 KECCAK256 ADD PUSH1 0x0 SWAP2 POP SWAP2 POP POP SLOAD DUP2 JUMP JUMPDEST PUSH1 0x1 DUP1 SLOAD SWAP1 PUSH1 0x0 PUSH2 0x9A7 DUP4 PUSH2 0x1022 JUMP JUMPDEST SWAP1 SWAP2 SSTORE POP POP PUSH1 0x40 DUP1 MLOAD PUSH2 0x120 DUP2 ADD DUP3 MSTORE PUSH1 0x1 DUP1 SLOAD DUP1 DUP4 MSTORE CALLER PUSH1 0x20 DUP1 DUP6 ADD DUP3 DUP2 MSTORE DUP6 DUP8 ADD DUP13 DUP2 MSTORE PUSH1 0x60 DUP8 ADD DUP13 DUP2 MSTORE PUSH1 0x80 DUP9 ADD DUP13 DUP2 MSTORE PUSH1 0xA0 DUP10 ADD DUP13 DUP2 MSTORE PUSH1 0xC0 DUP11 ADD DUP13 DUP2 MSTORE TIMESTAMP PUSH1 0xE0 DUP13 ADD DUP2 DUP2 MSTORE PUSH2 0x100 DUP14 ADD DUP13 DUP2 MSTORE PUSH1 0x0 SWAP12 DUP13 MSTORE PUSH1 0x2 DUP1 DUP12 MSTORE DUP16 DUP14 KECCAK256 SWAP15 MLOAD DUP16 SSTORE SWAP9 MLOAD DUP15 DUP15 ADD DUP1 SLOAD PUSH1 0x1 PUSH1 0x1 PUSH1 0xA0 SHL SUB SWAP3 SWAP1 SWAP3 AND PUSH1 0x1 PUSH1 0x1 PUSH1 0xA0 SHL SUB NOT SWAP1 SWAP3 AND SWAP2 SWAP1 SWAP2 OR SWAP1 SSTORE SWAP7 MLOAD SWAP8 DUP14 ADD SWAP8 SWAP1 SWAP8 SSTORE SWAP4 MLOAD PUSH1 0x3 DUP1 DUP14 ADD SWAP2 SWAP1 SWAP2 SSTORE SWAP3 MLOAD PUSH1 0x4 DUP13 ADD SSTORE SWAP1 MLOAD PUSH1 0x5 DUP12 ADD SSTORE MLOAD PUSH1 0x6 DUP11 ADD SSTORE SWAP3 MLOAD PUSH1 0x7 DUP10 ADD SSTORE SWAP1 MLOAD PUSH1 0x8 SWAP1 SWAP8 ADD DUP1 SLOAD SWAP8 ISZERO ISZERO PUSH1 0xFF NOT SWAP9 SWAP1 SWAP9 AND SWAP8 SWAP1 SWAP8 OR SWAP1 SWAP7 SSTORE DUP3 DUP5 MSTORE DUP2 MSTORE DUP6 DUP4 KECCAK256 DUP5 SLOAD DUP2 SLOAD DUP1 DUP8 ADD DUP4 SSTORE SWAP2 DUP6 MSTORE SWAP2 SWAP1 SWAP4 KECCAK256 SWAP1 SWAP3 ADD SWAP2 SWAP1 SWAP2 SSTORE SWAP1 SLOAD SWAP3 MLOAD SWAP1 SWAP3 SWAP2 PUSH32 0x48B6C9D02F31326DF94AA31F59108BF5156D7784C5CA28179F08F781CA1016A3 SWAP2 PUSH2 0xAF6 SWAP2 DUP11 SWAP2 DUP11 SWAP2 DUP11 SWAP2 DUP11 SWAP2 DUP11 SWAP2 SWAP6 DUP7 MSTORE PUSH1 0x20 DUP7 ADD SWAP5 SWAP1 SWAP5 MSTORE PUSH1 0x40 DUP6 ADD SWAP3 SWAP1 SWAP3 MSTORE PUSH1 0x60 DUP5 ADD MSTORE PUSH1 0x80 DUP4 ADD MSTORE PUSH1 0xA0 DUP3 ADD MSTORE PUSH1 0xC0 ADD SWAP1 JUMP JUMPDEST PUSH1 0x40 MLOAD DUP1 SWAP2 SUB SWAP1 LOG3 POP POP POP POP POP JUMP JUMPDEST CALLER PUSH1 0x0 SWAP1 DUP2 MSTORE PUSH1 0x3 PUSH1 0x20 SWAP1 DUP2 MSTORE PUSH1 0x40 DUP1 DUP4 KECCAK256 DUP1 SLOAD DUP3 MLOAD DUP2 DUP6 MUL DUP2 ADD DUP6 ADD SWAP1 SWAP4 MSTORE DUP1 DUP4 MSTORE PUSH1 0x60 SWAP5 SWAP4 DUP4 ADD DUP3 DUP3 DUP1 ISZERO PUSH2 0xB5B JUMPI PUSH1 0x20 MUL DUP3 ADD SWAP2 SWAP1 PUSH1 0x0 MSTORE PUSH1 0x20 PUSH1 0x0 KECCAK256 SWAP1 JUMPDEST DUP2 SLOAD DUP2 MSTORE PUSH1 0x20 ADD SWAP1 PUSH1 0x1 ADD SWAP1 DUP1 DUP4 GT PUSH2 0xB47 JUMPI JUMPDEST POP POP POP POP POP SWAP1 POP PUSH1 0x0 DUP2 MLOAD PUSH8 0xFFFFFFFFFFFFFFFF DUP2 GT ISZERO PUSH2 0xB7E JUMPI PUSH2 0xB7E PUSH2 0xFE0 JUMP JUMPDEST PUSH1 0x40 MLOAD SWAP1 DUP1 DUP3 MSTORE DUP1 PUSH1 0x20 MUL PUSH1 0x20 ADD DUP3 ADD PUSH1 0x40 MSTORE DUP1 ISZERO PUSH2 0xBB7 JUMPI DUP2 PUSH1 0x20 ADD JUMPDEST PUSH2 0xBA4 PUSH2 0xDCC JUMP JUMPDEST DUP2 MSTORE PUSH1 0x20 ADD SWAP1 PUSH1 0x1 SWAP1 SUB SWAP1 DUP2 PUSH2 0xB9C JUMPI SWAP1 POP JUMPDEST POP SWAP1 POP PUSH1 0x0 JUMPDEST DUP3 MLOAD DUP2 LT ISZERO PUSH2 0xC9A JUMPI PUSH1 0x2 PUSH1 0x0 DUP5 DUP4 DUP2 MLOAD DUP2 LT PUSH2 0xBDC JUMPI PUSH2 0xBDC PUSH2 0xFF6 JUMP JUMPDEST PUSH1 0x20 SWAP1 DUP2 MUL SWAP2 SWAP1 SWAP2 ADD DUP2 ADD MLOAD DUP3 MSTORE DUP2 DUP2 ADD SWAP3 SWAP1 SWAP3 MSTORE PUSH1 0x40 SWAP1 DUP2 ADD PUSH1 0x0 KECCAK256 DUP2 MLOAD PUSH2 0x120 DUP2 ADD DUP4 MSTORE DUP2 SLOAD DUP2 MSTORE PUSH1 0x1 DUP3 ADD SLOAD PUSH1 0x1 PUSH1 0x1 PUSH1 0xA0 SHL SUB AND SWAP4 DUP2 ADD SWAP4 SWAP1 SWAP4 MSTORE PUSH1 0x2 DUP2 ADD SLOAD SWAP2 DUP4 ADD SWAP2 SWAP1 SWAP2 MSTORE PUSH1 0x3 DUP2 ADD SLOAD PUSH1 0x60 DUP4 ADD MSTORE PUSH1 0x4 DUP2 ADD SLOAD PUSH1 0x80 DUP4 ADD MSTORE PUSH1 0x5 DUP2 ADD SLOAD PUSH1 0xA0 DUP4 ADD MSTORE PUSH1 0x6 DUP2 ADD SLOAD PUSH1 0xC0 DUP4 ADD MSTORE PUSH1 0x7 DUP2 ADD SLOAD PUSH1 0xE0 DUP4 ADD MSTORE PUSH1 0x8 ADD SLOAD PUSH1 0xFF AND ISZERO ISZERO PUSH2 0x100 DUP3 ADD MSTORE DUP3 MLOAD DUP4 SWAP1 DUP4 SWAP1 DUP2 LT PUSH2 0xC7C JUMPI PUSH2 0xC7C PUSH2 0xFF6 JUMP JUMPDEST PUSH1 0x20 MUL PUSH1 0x20 ADD ADD DUP2 SWAP1 MSTORE POP DUP1 DUP1 PUSH2 0xC92 SWAP1 PUSH2 0x1022 JUMP JUMPDEST SWAP2 POP POP PUSH2 0xBBD JUMP JUMPDEST POP SWAP3 SWAP2 POP POP JUMP JUMPDEST PUSH1 0x60 PUSH1 0x0 PUSH1 0x1 SLOAD PUSH8 0xFFFFFFFFFFFFFFFF DUP2 GT ISZERO PUSH2 0xCC0 JUMPI PUSH2 0xCC0 PUSH2 0xFE0 JUMP JUMPDEST PUSH1 0x40 MLOAD SWAP1 DUP1 DUP3 MSTORE DUP1 PUSH1 0x20 MUL PUSH1 0x20 ADD DUP3 ADD PUSH1 0x40 MSTORE DUP1 ISZERO PUSH2 0xCF9 JUMPI DUP2 PUSH1 0x20 ADD JUMPDEST PUSH2 0xCE6 PUSH2 0xDCC JUMP JUMPDEST DUP2 MSTORE PUSH1 0x20 ADD SWAP1 PUSH1 0x1 SWAP1 SUB SWAP1 DUP2 PUSH2 0xCDE JUMPI SWAP1 POP JUMPDEST POP SWAP1 POP PUSH1 0x1 JUMPDEST PUSH1 0x1 SLOAD DUP2 GT PUSH2 0xDC6 JUMPI PUSH1 0x0 DUP2 DUP2 MSTORE PUSH1 0x2 PUSH1 0x20 DUP2 DUP2 MSTORE PUSH1 0x40 SWAP3 DUP4 SWAP1 KECCAK256 DUP4 MLOAD PUSH2 0x120 DUP2 ADD DUP6 MSTORE DUP2 SLOAD DUP2 MSTORE PUSH1 0x1 DUP1 DUP4 ADD SLOAD PUSH1 0x1 PUSH1 0x1 PUSH1 0xA0 SHL SUB AND SWAP4 DUP3 ADD SWAP4 SWAP1 SWAP4 MSTORE SWAP3 DUP2 ADD SLOAD SWAP4 DUP4 ADD SWAP4 SWAP1 SWAP4 MSTORE PUSH1 0x3 DUP4 ADD SLOAD PUSH1 0x60 DUP4 ADD MSTORE PUSH1 0x4 DUP4 ADD SLOAD PUSH1 0x80 DUP4 ADD MSTORE PUSH1 0x5 DUP4 ADD SLOAD PUSH1 0xA0 DUP4 ADD MSTORE PUSH1 0x6 DUP4 ADD SLOAD PUSH1 0xC0 DUP4 ADD MSTORE PUSH1 0x7 DUP4 ADD SLOAD PUSH1 0xE0 DUP4 ADD MSTORE PUSH1 0x8 SWAP1 SWAP3 ADD SLOAD PUSH1 0xFF AND ISZERO ISZERO PUSH2 0x100 DUP3 ADD MSTORE SWAP1 DUP4 SWAP1 PUSH2 0xD98 SWAP1 DUP5 PUSH2 0x1069 JUMP JUMPDEST DUP2 MLOAD DUP2 LT PUSH2 0xDA8 JUMPI PUSH2 0xDA8 PUSH2 0xFF6 JUMP JUMPDEST PUSH1 0x20 MUL PUSH1 0x20 ADD ADD DUP2 SWAP1 MSTORE POP DUP1 DUP1 PUSH2 0xDBE SWAP1 PUSH2 0x1022 JUMP JUMPDEST SWAP2 POP POP PUSH2 0xCFF JUMP JUMPDEST POP SWAP2 SWAP1 POP JUMP JUMPDEST PUSH1 0x40 MLOAD DUP1 PUSH2 0x120 ADD PUSH1 0x40 MSTORE DUP1 PUSH1 0x0 DUP2 MSTORE PUSH1 0x20 ADD PUSH1 0x0 PUSH1 0x1 PUSH1 0x1 PUSH1 0xA0 SHL SUB AND DUP2 MSTORE PUSH1 0x20 ADD PUSH1 0x0 DUP2 MSTORE PUSH1 0x20 ADD PUSH1 0x0 DUP2 MSTORE PUSH1 0x20 ADD PUSH1 0x0 DUP2 MSTORE PUSH1 0x20 ADD PUSH1 0x0 DUP2 MSTORE PUSH1 0x20 ADD PUSH1 0x0 DUP2 MSTORE PUSH1 0x20 ADD PUSH1 0x0 DUP2 MSTORE PUSH1 0x20 ADD PUSH1 0x0 ISZERO ISZERO DUP2 MSTORE POP SWAP1 JUMP JUMPDEST DUP1 CALLDATALOAD PUSH1 0x1 PUSH1 0x1 PUSH1 0xA0 SHL SUB DUP2 AND DUP2 EQ PUSH2 0xE3A JUMPI PUSH1 0x0 DUP1 REVERT JUMPDEST SWAP2 SWAP1 POP JUMP JUMPDEST PUSH1 0x0 PUSH1 0x20 DUP3 DUP5 SUB SLT ISZERO PUSH2 0xE51 JUMPI PUSH1 0x0 DUP1 REVERT JUMPDEST PUSH2 0xE5A DUP3 PUSH2 0xE23 JUMP JUMPDEST SWAP4 SWAP3 POP POP POP JUMP JUMPDEST PUSH1 0x20 DUP1 DUP3 MSTORE DUP3 MLOAD DUP3 DUP3 ADD DUP2 SWAP1 MSTORE PUSH1 0x0 SWAP2 SWAP1 PUSH1 0x40 SWAP1 DUP2 DUP6 ADD SWAP1 DUP7 DUP5 ADD DUP6 JUMPDEST DUP3 DUP2 LT ISZERO PUSH2 0xEF7 JUMPI DUP2 MLOAD DUP1 MLOAD DUP6 MSTORE DUP7 DUP2 ADD MLOAD PUSH1 0x1 PUSH1 0x1 PUSH1 0xA0 SHL SUB AND DUP8 DUP7 ADD MSTORE DUP6 DUP2 ADD MLOAD DUP7 DUP7 ADD MSTORE PUSH1 0x60 DUP1 DUP3 ADD MLOAD SWAP1 DUP7 ADD MSTORE PUSH1 0x80 DUP1 DUP3 ADD MLOAD SWAP1 DUP7 ADD MSTORE PUSH1 0xA0 DUP1 DUP3 ADD MLOAD SWAP1 DUP7 ADD MSTORE PUSH1 0xC0 DUP1 DUP3 ADD MLOAD SWAP1 DUP7 ADD MSTORE PUSH1 0xE0 DUP1 DUP3 ADD MLOAD SWAP1 DUP7 ADD MSTORE PUSH2 0x100 SWAP1 DUP2 ADD MLOAD ISZERO ISZERO SWAP1 DUP6 ADD MSTORE PUSH2 0x120 SWAP1 SWAP4 ADD SWAP3 SWAP1 DUP6 ADD SWAP1 PUSH1 0x1 ADD PUSH2 0xE7E JUMP JUMPDEST POP SWAP2 SWAP8 SWAP7 POP POP POP POP POP POP POP JUMP JUMPDEST PUSH1 0x0 DUP1 PUSH1 0x40 DUP4 DUP6 SUB SLT ISZERO PUSH2 0xF17 JUMPI PUSH1 0x0 DUP1 REVERT JUMPDEST DUP3 CALLDATALOAD SWAP2 POP PUSH2 0xF27 PUSH1 0x20 DUP5 ADD PUSH2 0xE23 JUMP JUMPDEST SWAP1 POP SWAP3 POP SWAP3 SWAP1 POP JUMP JUMPDEST PUSH1 0x0 DUP1 PUSH1 0x0 DUP1 PUSH1 0x80 DUP6 DUP8 SUB SLT ISZERO PUSH2 0xF46 JUMPI PUSH1 0x0 DUP1 REVERT JUMPDEST POP POP DUP3 CALLDATALOAD SWAP5 PUSH1 0x20 DUP5 ADD CALLDATALOAD SWAP5 POP PUSH1 0x40 DUP5 ADD CALLDATALOAD SWAP4 PUSH1 0x60 ADD CALLDATALOAD SWAP3 POP SWAP1 POP JUMP JUMPDEST PUSH1 0x0 PUSH1 0x20 DUP3 DUP5 SUB SLT ISZERO PUSH2 0xF74 JUMPI PUSH1 0x0 DUP1 REVERT JUMPDEST POP CALLDATALOAD SWAP2 SWAP1 POP JUMP JUMPDEST PUSH1 0x0 DUP1 PUSH1 0x40 DUP4 DUP6 SUB SLT ISZERO PUSH2 0xF8E JUMPI PUSH1 0x0 DUP1 REVERT JUMPDEST PUSH2 0xF97 DUP4 PUSH2 0xE23 JUMP JUMPDEST SWAP5 PUSH1 0x20 SWAP4 SWAP1 SWAP4 ADD CALLDATALOAD SWAP4 POP POP POP JUMP JUMPDEST PUSH1 0x0 DUP1 PUSH1 0x0 DUP1 PUSH1 0x0 PUSH1 0xA0 DUP7 DUP9 SUB SLT ISZERO PUSH2 0xFBD JUMPI PUSH1 0x0 DUP1 REVERT JUMPDEST POP POP DUP4 CALLDATALOAD SWAP6 PUSH1 0x20 DUP6 ADD CALLDATALOAD SWAP6 POP PUSH1 0x40 DUP6 ADD CALLDATALOAD SWAP5 PUSH1 0x60 DUP2 ADD CALLDATALOAD SWAP5 POP PUSH1 0x80 ADD CALLDATALOAD SWAP3 POP SWAP1 POP JUMP JUMPDEST PUSH4 0x4E487B71 PUSH1 0xE0 SHL PUSH1 0x0 MSTORE PUSH1 0x41 PUSH1 0x4 MSTORE PUSH1 0x24 PUSH1 0x0 REVERT JUMPDEST PUSH4 0x4E487B71 PUSH1 0xE0 SHL PUSH1 0x0 MSTORE PUSH1 0x32 PUSH1 0x4 MSTORE PUSH1 0x24 PUSH1 0x0 REVERT JUMPDEST PUSH4 0x4E487B71 PUSH1 0xE0 SHL PUSH1 0x0 MSTORE PUSH1 0x11 PUSH1 0x4 MSTORE PUSH1 0x24 PUSH1 0x0 REVERT JUMPDEST PUSH1 0x0 PUSH1 0x1 DUP3 ADD PUSH2 0x1034 JUMPI PUSH2 0x1034 PUSH2 0x100C JUMP JUMPDEST POP PUSH1 0x1 ADD SWAP1 JUMP JUMPDEST PUSH1 0x20 DUP1 DUP3 MSTORE PUSH1 0x14 SWAP1 DUP3 ADD MSTORE PUSH20 0x14185B995B08191BD95CC81B9BDD08195E1A5CDD PUSH1 0x62 SHL PUSH1 0x40 DUP3 ADD MSTORE PUSH1 0x60 ADD SWAP1 JUMP JUMPDEST DUP2 DUP2 SUB DUP2 DUP2 GT ISZERO PUSH2 0x107C JUMPI PUSH2 0x107C PUSH2 0x100C JUMP JUMPDEST SWAP3 SWAP2 POP POP JUMP JUMPDEST PUSH4 0x4E487B71 PUSH1 0xE0 SHL PUSH1 0x0 MSTORE PUSH1 0x31 PUSH1 0x4 MSTORE PUSH1 0x24 PUSH1 0x0 REVERT INVALID LOG2 PUSH5 0x6970667358 0x22 SLT KECCAK256 ADDRESS 0x4B DUP8 PUSH18 0x3E7D1D6C18FD7F3FEAD3BCEAEC032E1361D2 0xA9 0xAA SWAP12 0xC CALLER 0xD6 0xB4 0xB3 0xA7 0xF7 PUSH5 0x736F6C6343 STOP ADDMOD EQ STOP CALLER "},"methodIdentifiers":{"createPanel(uint256,uint256,uint256,uint256,uint256)":"e3807a88","getAllPanels()":"f94e6c98","getMyPanels()":"ef4c0949","getPanel(uint256)":"94f178df","getPanelsOf(address)":"24f3477c","ownerPanels(address,uint256)":"b25c1557","panelCount()":"96879ef0","panels(uint256)":"f40e4f6f","setShopContract(address)":"668c45bd","shopContract()":"09090a51","transferPanelOwnership(uint256,address)":"3075494a","updatePanel(uint256,uint256,uint256,uint256)":"3453a61d"}}}}}