{"contracts/PowerReward.sol":{"PowerReward":{"abi":[{"inputs":[{"internalType":"address","name":"_rewardToken","type":"address"},{"internalType":"address","name":"_solarPanelContract","type":"address"}],"stateMutability":"nonpayable","type":"constructor"},{"anonymous":false,"inputs":[{"indexed":true,"internalType":"address","name":"user","type":"address"},{"indexed":false,"internalType":"uint256","name":"totalDCPower","type":"uint256"},{"indexed":false,"internalType":"uint256","name":"totalACPower","type":"uint256"},{"indexed":false,"internalType":"uint256","name":"rewardAmount","type":"uint256"},{"indexed":false,"internalType":"uint256","name":"timestamp","type":"uint256"}],"name":"RewardClaimed","type":"event"},{"inputs":[],"name":"claimReward","outputs":[],"stateMutability":"nonpayable","type":"function"},{"inputs":[{"internalType":"uint256","name":"amount","type":"uint256"}],"name":"deposit","outputs":[],"stateMutability":"nonpayable","type":"function"},{"inputs":[{"internalType":"address","name":"","type":"address"}],"name":"lastClaimedAt","outputs":[{"internalType":"uint256","name":"","type":"uint256"}],"stateMutability":"view","type":"function"},{"inputs":[],"name":"owner","outputs":[{"internalType":"address","name":"","type":"address"}],"stateMutability":"view","type":"function"},{"inputs":[{"internalType":"address","name":"user","type":"address"}],"name":"previewReward","outputs":[{"internalType":"uint256","name":"estimatedReward","type":"uint256"}],"stateMutability":"view","type":"function"},{"inputs":[],"name":"rewardToken","outputs":[{"internalType":"contract IERC20","name":"","type":"address"}],"stateMutability":"view","type":"function"},{"inputs":[],"name":"solarPanelContract","outputs":[{"internalType":"contract ISolarPanels","name":"","type":"address"}],"stateMutability":"view","type":"function"}],"evm":{"bytecode":{"linkReferences":{},"object":"608060405234801561001057600080fd5b50604051610a49380380610a4983398101604081905261002f9161008c565b600080546001600160a01b039384166001600160a01b03199182161790915560018054929093169181169190911790915560028054909116331790556100bf565b80516001600160a01b038116811461008757600080fd5b919050565b6000806040838503121561009f57600080fd5b6100a883610070565b91506100b660208401610070565b90509250929050565b61097b806100ce6000396000f3fe608060405234801561001057600080fd5b506004361061007d5760003560e01c8063b6b55f251161005b578063b6b55f25146100f3578063b88a802f14610108578063f6dbda7b14610110578063f7c618c11461012357600080fd5b806326a40c991461008257806342d6d0a5146100b55780638da5cb5b146100e0575b600080fd5b6100a26100903660046106a9565b60036020526000908152604090205481565b6040519081526020015b60405180910390f35b6001546100c8906001600160a01b031681565b6040516001600160a01b0390911681526020016100ac565b6002546100c8906001600160a01b031681565b6101066101013660046106cd565b610136565b005b61010661023c565b6100a261011e3660046106a9565b61058a565b6000546100c8906001600160a01b031681565b6002546001600160a01b031633146101815760405162461bcd60e51b81526020600482015260096024820152682737ba1037bbb732b960b91b60448201526064015b60405180910390fd5b6000546040516323b872dd60e01b8152336004820152306024820152604481018390526001600160a01b03909116906323b872dd906064016020604051808303816000875af11580156101d8573d6000803e3d6000fd5b505050506040513d601f19601f820116820180604052508101906101fc91906106fb565b6102395760405162461bcd60e51b815260206004820152600e60248201526d11195c1bdcda5d0819985a5b195960921b6044820152606401610178565b50565b33600090815260036020526040902054610e109061025a904261072c565b10156102a85760405162461bcd60e51b815260206004820152601c60248201527f43616e206f6e6c7920636c61696d206f6e63652070657220686f7572000000006044820152606401610178565b6001546040805163ef4c094960e01b815290516000926001600160a01b03169163ef4c094991600480830192869291908290030181865afa1580156102f1573d6000803e3d6000fd5b505050506040513d6000823e601f3d908101601f1916820160405261031991908101906107c1565b9050600081511161035e5760405162461bcd60e51b815260206004820152600f60248201526e139bc81c185b995b1cc8199bdd5b99608a1b6044820152606401610178565b60008060005b83518110156103d55783818151811061037f5761037f6108e1565b602002602001015160a001518361039691906108f7565b92508381815181106103aa576103aa6108e1565b602002602001015160c00151826103c191906108f7565b9150806103cd8161090a565b915050610364565b506000821161041d5760405162461bcd60e51b81526020600482015260146024820152734e6f20444320706f77657220746f20636c61696d60601b6044820152606401610178565b600061042c620186a084610923565b9050600081116104715760405162461bcd60e51b815260206004820152601060248201526f14995dd85c99081d1bdbc81cdb585b1b60821b6044820152606401610178565b336000818152600360205260408082204290559054905163a9059cbb60e01b81526004810192909252602482018390526001600160a01b03169063a9059cbb906044016020604051808303816000875af11580156104d3573d6000803e3d6000fd5b505050506040513d601f19601f820116820180604052508101906104f791906106fb565b61053b5760405162461bcd60e51b8152602060048201526015602482015274151bdad95b881d1c985b9cd9995c8819985a5b1959605a1b6044820152606401610178565b604080518481526020810184905290810182905242606082015233907f9e80c048bc588b388047ffc6e8153e7c11aa34312de7ed62e1858ff3a44ddce89060800160405180910390a250505050565b6001600160a01b038116600090815260036020526040812054610e10906105b1904261072c565b10156105bf57506000919050565b60015460405163093cd1df60e21b81526001600160a01b03848116600483015260009216906324f3477c90602401600060405180830381865afa15801561060a573d6000803e3d6000fd5b505050506040513d6000823e601f3d908101601f1916820160405261063291908101906107c1565b90506000805b825181101561067e57828181518110610653576106536108e1565b602002602001015160a001518261066a91906108f7565b9150806106768161090a565b915050610638565b5061068c620186a082610923565b949350505050565b6001600160a01b038116811461023957600080fd5b6000602082840312156106bb57600080fd5b81356106c681610694565b9392505050565b6000602082840312156106df57600080fd5b5035919050565b805180151581146106f657600080fd5b919050565b60006020828403121561070d57600080fd5b6106c6826106e6565b634e487b7160e01b600052601160045260246000fd5b8181038181111561073f5761073f610716565b92915050565b634e487b7160e01b600052604160045260246000fd5b604051610120810167ffffffffffffffff8111828210171561077f5761077f610745565b60405290565b604051601f8201601f1916810167ffffffffffffffff811182821017156107ae576107ae610745565b604052919050565b80516106f681610694565b600060208083850312156107d457600080fd5b825167ffffffffffffffff808211156107ec57600080fd5b818501915085601f83011261080057600080fd5b81518181111561081257610812610745565b610820848260051b01610785565b818152848101925061012091820284018501918883111561084057600080fd5b938501935b828510156108d55780858a03121561085d5760008081fd5b61086561075b565b855181526108748787016107b6565b8188015260408681015190820152606080870151908201526080808701519082015260a0808701519082015260c0808701519082015260e080870151908201526101006108c28188016106e6565b9082015284529384019392850192610845565b50979650505050505050565b634e487b7160e01b600052603260045260246000fd5b8082018082111561073f5761073f610716565b60006001820161091c5761091c610716565b5060010190565b60008261094057634e487b7160e01b600052601260045260246000fd5b50049056fea26469706673582212201e53ce8f0f71dd28d95e6d5dccc04ac975c112652563f6f04be9cd360a899e9764736f6c63430008140033","opcodes":"PUSH1 0x80 PUSH1 0x40 MSTORE CALLVALUE DUP1 ISZERO PUSH2 0x10 JUMPI PUSH1 0x0 DUP1 REVERT JUMPDEST POP PUSH1 0x40 MLOAD PUSH2 0xA49 CODESIZE SUB DUP1 PUSH2 0xA49 DUP4 CODECOPY DUP2 ADD PUSH1 0x40 DUP2 SWAP1 MSTORE PUSH2 0x2F SWAP2 PUSH2 0x8C JUMP JUMPDEST PUSH1 0x0 DUP1 SLOAD PUSH1 0x1 PUSH1 0x1 PUSH1 0xA0 SHL SUB SWAP4 DUP5 AND PUSH1 0x1 PUSH1 0x1 PUSH1 0xA0 SHL SUB NOT SWAP2 DUP3 AND OR SWAP1 SWAP2 SSTORE PUSH1 0x1 DUP1 SLOAD SWAP3 SWAP1 SWAP4 AND SWAP2 DUP2 AND SWAP2 SWAP1 SWAP2 OR SWAP1 SWAP2 SSTORE PUSH1 0x2 DUP1 SLOAD SWAP1 SWAP2 AND CALLER OR SWAP1 SSTORE PUSH2 0xBF JUMP JUMPDEST DUP1 MLOAD PUSH1 0x1 PUSH1 0x1 PUSH1 0xA0 SHL SUB DUP2 AND DUP2 EQ PUSH2 0x87 JUMPI PUSH1 0x0 DUP1 REVERT JUMPDEST SWAP2 SWAP1 POP JUMP JUMPDEST PUSH1 0x0 DUP1 PUSH1 0x40 DUP4 DUP6 SUB SLT ISZERO PUSH2 0x9F JUMPI PUSH1 0x0 DUP1 REVERT JUMPDEST PUSH2 0xA8 DUP4 PUSH2 0x70 JUMP JUMPDEST SWAP2 POP PUSH2 0xB6 PUSH1 0x20 DUP5 ADD PUSH2 0x70 JUMP JUMPDEST SWAP1 POP SWAP3 POP SWAP3 SWAP1 POP JUMP JUMPDEST PUSH2 0x97B DUP1 PUSH2 0xCE PUSH1 0x0 CODECOPY PUSH1 0x0 RETURN INVALID PUSH1 0x80 PUSH1 0x40 MSTORE CALLVALUE DUP1 ISZERO PUSH2 0x10 JUMPI PUSH1 0x0 DUP1 REVERT JUMPDEST POP PUSH1 0x4 CALLDATASIZE LT PUSH2 0x7D JUMPI PUSH1 0x0 CALLDATALOAD PUSH1 0xE0 SHR DUP1 PUSH4 0xB6B55F25 GT PUSH2 0x5B JUMPI DUP1 PUSH4 0xB6B55F25 EQ PUSH2 0xF3 JUMPI DUP1 PUSH4 0xB88A802F EQ PUSH2 0x108 JUMPI DUP1 PUSH4 0xF6DBDA7B EQ PUSH2 0x110 JUMPI DUP1 PUSH4 0xF7C618C1 EQ PUSH2 0x123 JUMPI PUSH1 0x0 DUP1 REVERT JUMPDEST DUP1 PUSH4 0x26A40C99 EQ PUSH2 0x82 JUMPI DUP1 PUSH4 0x42D6D0A5 EQ PUSH2 0xB5 JUMPI DUP1 PUSH4 0x8DA5CB5B EQ PUSH2 0xE0 JUMPI JUMPDEST PUSH1 0x0 DUP1 REVERT JUMPDEST PUSH2 0xA2 PUSH2 0x90 CALLDATASIZE PUSH1 0x4 PUSH2 0x6A9 JUMP JUMPDEST PUSH1 0x3 PUSH1 0x20 MSTORE PUSH1 0x0 SWAP1 DUP2 MSTORE PUSH1 0x40 SWAP1 KECCAK256 SLOAD DUP2 JUMP JUMPDEST PUSH1 0x40 MLOAD SWAP1 DUP2 MSTORE PUSH1 0x20 ADD JUMPDEST PUSH1 0x40 MLOAD DUP1 SWAP2 SUB SWAP1 RETURN JUMPDEST PUSH1 0x1 SLOAD PUSH2 0xC8 SWAP1 PUSH1 0x1 PUSH1 0x1 PUSH1 0xA0 SHL SUB AND DUP2 JUMP JUMPDEST PUSH1 0x40 MLOAD PUSH1 0x1 PUSH1 0x1 PUSH1 0xA0 SHL SUB SWAP1 SWAP2 AND DUP2 MSTORE PUSH1 0x20 ADD PUSH2 0xAC JUMP JUMPDEST PUSH1 0x2 SLOAD PUSH2 0xC8 SWAP1 PUSH1 0x1 PUSH1 0x1 PUSH1 0xA0 SHL SUB AND DUP2 JUMP JUMPDEST PUSH2 0x106 PUSH2 0x101 CALLDATASIZE PUSH1 0x4 PUSH2 0x6CD JUMP JUMPDEST PUSH2 0x136 JUMP JUMPDEST STOP JUMPDEST PUSH2 0x106 PUSH2 0x23C JUMP JUMPDEST PUSH2 0xA2 PUSH2 0x11E CALLDATASIZE PUSH1 0x4 PUSH2 0x6A9 JUMP JUMPDEST PUSH2 0x58A JUMP JUMPDEST PUSH1 0x0 SLOAD PUSH2 0xC8 SWAP1 PUSH1 0x1 PUSH1 0x1 PUSH1 0xA0 SHL SUB AND DUP2 JUMP JUMPDEST PUSH1 0x2 SLOAD PUSH1 0x1 PUSH1 0x1 PUSH1 0xA0 SHL SUB AND CALLER EQ PUSH2 0x181 JUMPI PUSH1 0x40 MLOAD PUSH3 0x461BCD PUSH1 0xE5 SHL DUP2 MSTORE PUSH1 0x20 PUSH1 0x4 DUP3 ADD MSTORE PUSH1 0x9 PUSH1 0x24 DUP3 ADD MSTORE PUSH9 0x2737BA1037BBB732B9 PUSH1 0xB9 SHL PUSH1 0x44 DUP3 ADD MSTORE PUSH1 0x64 ADD JUMPDEST PUSH1 0x40 MLOAD DUP1 SWAP2 SUB SWAP1 REVERT JUMPDEST PUSH1 0x0 SLOAD PUSH1 0x40 MLOAD PUSH4 0x23B872DD PUSH1 0xE0 SHL DUP2 MSTORE CALLER PUSH1 0x4 DUP3 ADD MSTORE ADDRESS PUSH1 0x24 DUP3 ADD MSTORE PUSH1 0x44 DUP2 ADD DUP4 SWAP1 MSTORE PUSH1 0x1 PUSH1 0x1 PUSH1 0xA0 SHL SUB SWAP1 SWAP2 AND SWAP1 PUSH4 0x23B872DD SWAP1 PUSH1 0x64 ADD PUSH1 0x20 PUSH1 0x40 MLOAD DUP1 DUP4 SUB DUP2 PUSH1 0x0 DUP8 GAS CALL ISZERO DUP1 ISZERO PUSH2 0x1D8 JUMPI RETURNDATASIZE PUSH1 0x0 DUP1 RETURNDATACOPY RETURNDATASIZE PUSH1 0x0 REVERT JUMPDEST POP POP POP POP PUSH1 0x40 MLOAD RETURNDATASIZE PUSH1 0x1F NOT PUSH1 0x1F DUP3 ADD AND DUP3 ADD DUP1 PUSH1 0x40 MSTORE POP DUP2 ADD SWAP1 PUSH2 0x1FC SWAP2 SWAP1 PUSH2 0x6FB JUMP JUMPDEST PUSH2 0x239 JUMPI PUSH1 0x40 MLOAD PUSH3 0x461BCD PUSH1 0xE5 SHL DUP2 MSTORE PUSH1 0x20 PUSH1 0x4 DUP3 ADD MSTORE PUSH1 0xE PUSH1 0x24 DUP3 ADD MSTORE PUSH14 0x11195C1BDCDA5D0819985A5B1959 PUSH1 0x92 SHL PUSH1 0x44 DUP3 ADD MSTORE PUSH1 0x64 ADD PUSH2 0x178 JUMP JUMPDEST POP JUMP JUMPDEST CALLER PUSH1 0x0 SWAP1 DUP2 MSTORE PUSH1 0x3 PUSH1 0x20 MSTORE PUSH1 0x40 SWAP1 KECCAK256 SLOAD PUSH2 0xE10 SWAP1 PUSH2 0x25A SWAP1 TIMESTAMP PUSH2 0x72C JUMP JUMPDEST LT ISZERO PUSH2 0x2A8 JUMPI PUSH1 0x40 MLOAD PUSH3 0x461BCD PUSH1 0xE5 SHL DUP2 MSTORE PUSH1 0x20 PUSH1 0x4 DUP3 ADD MSTORE PUSH1 0x1C PUSH1 0x24 DUP3 ADD MSTORE PUSH32 0x43616E206F6E6C7920636C61696D206F6E63652070657220686F757200000000 PUSH1 0x44 DUP3 ADD MSTORE PUSH1 0x64 ADD PUSH2 0x178 JUMP JUMPDEST PUSH1 0x1 SLOAD PUSH1 0x40 DUP1 MLOAD PUSH4 0xEF4C0949 PUSH1 0xE0 SHL DUP2 MSTORE SWAP1 MLOAD PUSH1 0x0 SWAP3 PUSH1 0x1 PUSH1 0x1 PUSH1 0xA0 SHL SUB AND SWAP2 PUSH4 0xEF4C0949 SWAP2 PUSH1 0x4 DUP1 DUP4 ADD SWAP3 DUP7 SWAP3 SWAP2 SWAP1 DUP3 SWAP1 SUB ADD DUP2 DUP7 GAS STATICCALL ISZERO DUP1 ISZERO PUSH2 0x2F1 JUMPI RETURNDATASIZE PUSH1 0x0 DUP1 RETURNDATACOPY RETURNDATASIZE PUSH1 0x0 REVERT JUMPDEST POP POP POP POP PUSH1 0x40 MLOAD RETURNDATASIZE PUSH1 0x0 DUP3 RETURNDATACOPY PUSH1 0x1F RETURNDATASIZE SWAP1 DUP2 ADD PUSH1 0x1F NOT AND DUP3 ADD PUSH1 0x40 MSTORE PUSH2 0x319 SWAP2 SWAP1 DUP2 ADD SWAP1 PUSH2 0x7C1 JUMP JUMPDEST SWAP1 POP PUSH1 0x0 DUP2 MLOAD GT PUSH2 0x35E JUMPI PUSH1 0x40 MLOAD PUSH3 0x461BCD PUSH1 0xE5 SHL DUP2 MSTORE PUSH1 0x20 PUSH1 0x4 DUP3 ADD MSTORE PUSH1 0xF PUSH1 0x24 DUP3 ADD MSTORE PUSH15 0x139BC81C185B995B1CC8199BDD5B99 PUSH1 0x8A SHL PUSH1 0x44 DUP3 ADD MSTORE PUSH1 0x64 ADD PUSH2 0x178 JUMP JUMPDEST PUSH1 0x0 DUP1 PUSH1 0x0 JUMPDEST DUP4 MLOAD DUP2 LT ISZERO PUSH2 0x3D5 JUMPI DUP4 DUP2 DUP2 MLOAD DUP2 LT PUSH2 0x37F JUMPI PUSH2 0x37F PUSH2 0x8E1 JUMP JUMPDEST PUSH1 0x20 MUL PUSH1 0x20 ADD ADD MLOAD PUSH1 0xA0 ADD MLOAD DUP4 PUSH2 0x396 SWAP2 SWAP1 PUSH2 0x8F7 JUMP JUMPDEST SWAP3 POP DUP4 DUP2 DUP2 MLOAD DUP2 LT PUSH2 0x3AA JUMPI PUSH2 0x3AA PUSH2 0x8E1 JUMP JUMPDEST PUSH1 0x20 MUL PUSH1 0x20 ADD ADD MLOAD PUSH1 0xC0 ADD MLOAD DUP3 PUSH2 0x3C1 SWAP2 SWAP1 PUSH2 0x8F7 JUMP JUMPDEST SWAP2 POP DUP1 PUSH2 0x3CD DUP2 PUSH2 0x90A JUMP JUMPDEST SWAP2 POP POP PUSH2 0x364 JUMP JUMPDEST POP PUSH1 0x0 DUP3 GT PUSH2 0x41D JUMPI PUSH1 0x40 MLOAD PUSH3 0x461BCD PUSH1 0xE5 SHL DUP2 MSTORE PUSH1 0x20 PUSH1 0x4 DUP3 ADD MSTORE PUSH1 0x14 PUSH1 0x24 DUP3 ADD MSTORE PUSH20 0x4E6F20444320706F77657220746F20636C61696D PUSH1 0x60 SHL PUSH1 0x44 DUP3 ADD MSTORE PUSH1 0x64 ADD PUSH2 0x178 JUMP JUMPDEST PUSH1 0x0 PUSH2 0x42C PUSH3 0x186A0 DUP5 PUSH2 0x923 JUMP JUMPDEST SWAP1 POP PUSH1 0x0 DUP2 GT PUSH2 0x471 JUMPI PUSH1 0x40 MLOAD PUSH3 0x461BCD PUSH1 0xE5 SHL DUP2 MSTORE PUSH1 0x20 PUSH1 0x4 DUP3 ADD MSTORE PUSH1 0x10 PUSH1 0x24 DUP3 ADD MSTORE PUSH16 0x14995DD85C99081D1BDBC81CDB585B1B PUSH1 0x82 SHL PUSH1 0x44 DUP3 ADD MSTORE PUSH1 0x64 ADD PUSH2 0x178 JUMP JUMPDEST CALLER PUSH1 0x0 DUP2 DUP2 MSTORE PUSH1 0x3 PUSH1 0x20 MSTORE PUSH1 0x40 DUP1 DUP3 KECCAK256 TIMESTAMP SWAP1 SSTORE SWAP1 SLOAD SWAP1 MLOAD PUSH4 0xA9059CBB PUSH1 0xE0 SHL DUP2 MSTORE PUSH1 0x4 DUP2 ADD SWAP3 SWAP1 SWAP3 MSTORE PUSH1 0x24 DUP3 ADD DUP4 SWAP1 MSTORE PUSH1 0x1 PUSH1 0x1 PUSH1 0xA0 SHL SUB AND SWAP1 PUSH4 0xA9059CBB SWAP1 PUSH1 0x44 ADD PUSH1 0x20 PUSH1 0x40 MLOAD DUP1 DUP4 SUB DUP2 PUSH1 0x0 DUP8 GAS CALL ISZERO DUP1 ISZERO PUSH2 0x4D3 JUMPI RETURNDATASIZE PUSH1 0x0 DUP1 RETURNDATACOPY RETURNDATASIZE PUSH1 0x0 REVERT JUMPDEST POP POP POP POP PUSH1 0x40 MLOAD RETURNDATASIZE PUSH1 0x1F NOT PUSH1 0x1F DUP3 ADD AND DUP3 ADD DUP1 PUSH1 0x40 MSTORE POP DUP2 ADD SWAP1 PUSH2 0x4F7 SWAP2 SWAP1 PUSH2 0x6FB JUMP JUMPDEST PUSH2 0x53B JUMPI PUSH1 0x40 MLOAD PUSH3 0x461BCD PUSH1 0xE5 SHL DUP2 MSTORE PUSH1 0x20 PUSH1 0x4 DUP3 ADD MSTORE PUSH1 0x15 PUSH1 0x24 DUP3 ADD MSTORE PUSH21 0x151BDAD95B881D1C985B9CD9995C8819985A5B1959 PUSH1 0x5A SHL PUSH1 0x44 DUP3 ADD MSTORE PUSH1 0x64 ADD PUSH2 0x178 JUMP JUMPDEST PUSH1 0x40 DUP1 MLOAD DUP5 DUP2 MSTORE PUSH1 0x20 DUP2 ADD DUP5 SWAP1 MSTORE SWAP1 DUP2 ADD DUP3 SWAP1 MSTORE TIMESTAMP PUSH1 0x60 DUP3 ADD MSTORE CALLER SWAP1 PUSH32 0x9E80C048BC588B388047FFC6E8153E7C11AA34312DE7ED62E1858FF3A44DDCE8 SWAP1 PUSH1 0x80 ADD PUSH1 0x40 MLOAD DUP1 SWAP2 SUB SWAP1 LOG2 POP POP POP POP JUMP JUMPDEST PUSH1 0x1 PUSH1 0x1 PUSH1 0xA0 SHL SUB DUP2 AND PUSH1 0x0 SWAP1 DUP2 MSTORE PUSH1 0x3 PUSH1 0x20 MSTORE PUSH1 0x40 DUP2 KECCAK256 SLOAD PUSH2 0xE10 SWAP1 PUSH2 0x5B1 SWAP1 TIMESTAMP PUSH2 0x72C JUMP JUMPDEST LT ISZERO PUSH2 0x5BF JUMPI POP PUSH1 0x0 SWAP2 SWAP1 POP JUMP JUMPDEST PUSH1 0x1 SLOAD PUSH1 0x40 MLOAD PUSH4 0x93CD1DF PUSH1 0xE2 SHL DUP2 MSTORE PUSH1 0x1 PUSH1 0x1 PUSH1 0xA0 SHL SUB DUP5 DUP2 AND PUSH1 0x4 DUP4 ADD MSTORE PUSH1 0x0 SWAP3 AND SWAP1 PUSH4 0x24F3477C SWAP1 PUSH1 0x24 ADD PUSH1 0x0 PUSH1 0x40 MLOAD DUP1 DUP4 SUB DUP2 DUP7 GAS STATICCALL ISZERO DUP1 ISZERO PUSH2 0x60A JUMPI RETURNDATASIZE PUSH1 0x0 DUP1 RETURNDATACOPY RETURNDATASIZE PUSH1 0x0 REVERT JUMPDEST POP POP POP POP PUSH1 0x40 MLOAD RETURNDATASIZE PUSH1 0x0 DUP3 RETURNDATACOPY PUSH1 0x1F RETURNDATASIZE SWAP1 DUP2 ADD PUSH1 0x1F NOT AND DUP3 ADD PUSH1 0x40 MSTORE PUSH2 0x632 SWAP2 SWAP1 DUP2 ADD SWAP1 PUSH2 0x7C1 JUMP JUMPDEST SWAP1 POP PUSH1 0x0 DUP1 JUMPDEST DUP3 MLOAD DUP2 LT ISZERO PUSH2 0x67E JUMPI DUP3 DUP2 DUP2 MLOAD DUP2 LT PUSH2 0x653 JUMPI PUSH2 0x653 PUSH2 0x8E1 JUMP JUMPDEST PUSH1 0x20 MUL PUSH1 0x20 ADD ADD MLOAD PUSH1 0xA0 ADD MLOAD DUP3 PUSH2 0x66A SWAP2 SWAP1 PUSH2 0x8F7 JUMP JUMPDEST SWAP2 POP DUP1 PUSH2 0x676 DUP2 PUSH2 0x90A JUMP JUMPDEST SWAP2 POP POP PUSH2 0x638 JUMP JUMPDEST POP PUSH2 0x68C PUSH3 0x186A0 DUP3 PUSH2 0x923 JUMP JUMPDEST SWAP5 SWAP4 POP POP POP POP JUMP JUMPDEST PUSH1 0x1 PUSH1 0x1 PUSH1 0xA0 SHL SUB DUP2 AND DUP2 EQ PUSH2 0x239 JUMPI PUSH1 0x0 DUP1 REVERT JUMPDEST PUSH1 0x0 PUSH1 0x20 DUP3 DUP5 SUB SLT ISZERO PUSH2 0x6BB JUMPI PUSH1 0x0 DUP1 REVERT JUMPDEST DUP2 CALLDATALOAD PUSH2 0x6C6 DUP2 PUSH2 0x694 JUMP JUMPDEST SWAP4 SWAP3 POP POP POP JUMP JUMPDEST PUSH1 0x0 PUSH1 0x20 DUP3 DUP5 SUB SLT ISZERO PUSH2 0x6DF JUMPI PUSH1 0x0 DUP1 REVERT JUMPDEST POP CALLDATALOAD SWAP2 SWAP1 POP JUMP JUMPDEST DUP1 MLOAD DUP1 ISZERO ISZERO DUP2 EQ PUSH2 0x6F6 JUMPI PUSH1 0x0 DUP1 REVERT JUMPDEST SWAP2 SWAP1 POP JUMP JUMPDEST PUSH1 0x0 PUSH1 0x20 DUP3 DUP5 SUB SLT ISZERO PUSH2 0x70D JUMPI PUSH1 0x0 DUP1 REVERT JUMPDEST PUSH2 0x6C6 DUP3 PUSH2 0x6E6 JUMP JUMPDEST PUSH4 0x4E487B71 PUSH1 0xE0 SHL PUSH1 0x0 MSTORE PUSH1 0x11 PUSH1 0x4 MSTORE PUSH1 0x24 PUSH1 0x0 REVERT JUMPDEST DUP2 DUP2 SUB DUP2 DUP2 GT ISZERO PUSH2 0x73F JUMPI PUSH2 0x73F PUSH2 0x716 JUMP JUMPDEST SWAP3 SWAP2 POP POP JUMP JUMPDEST PUSH4 0x4E487B71 PUSH1 0xE0 SHL PUSH1 0x0 MSTORE PUSH1 0x41 PUSH1 0x4 MSTORE PUSH1 0x24 PUSH1 0x0 REVERT JUMPDEST PUSH1 0x40 MLOAD PUSH2 0x120 DUP2 ADD PUSH8 0xFFFFFFFFFFFFFFFF DUP2 GT DUP3 DUP3 LT OR ISZERO PUSH2 0x77F JUMPI PUSH2 0x77F PUSH2 0x745 JUMP JUMPDEST PUSH1 0x40 MSTORE SWAP1 JUMP JUMPDEST PUSH1 0x40 MLOAD PUSH1 0x1F DUP3 ADD PUSH1 0x1F NOT AND DUP2 ADD PUSH8 0xFFFFFFFFFFFFFFFF DUP2 GT DUP3 DUP3 LT OR ISZERO PUSH2 0x7AE JUMPI PUSH2 0x7AE PUSH2 0x745 JUMP JUMPDEST PUSH1 0x40 MSTORE SWAP2 SWAP1 POP JUMP JUMPDEST DUP1 MLOAD PUSH2 0x6F6 DUP2 PUSH2 0x694 JUMP JUMPDEST PUSH1 0x0 PUSH1 0x20 DUP1 DUP4 DUP6 SUB SLT ISZERO PUSH2 0x7D4 JUMPI PUSH1 0x0 DUP1 REVERT JUMPDEST DUP3 MLOAD PUSH8 0xFFFFFFFFFFFFFFFF DUP1 DUP3 GT ISZERO PUSH2 0x7EC JUMPI PUSH1 0x0 DUP1 REVERT JUMPDEST DUP2 DUP6 ADD SWAP2 POP DUP6 PUSH1 0x1F DUP4 ADD SLT PUSH2 0x800 JUMPI PUSH1 0x0 DUP1 REVERT JUMPDEST DUP2 MLOAD DUP2 DUP2 GT ISZERO PUSH2 0x812 JUMPI PUSH2 0x812 PUSH2 0x745 JUMP JUMPDEST PUSH2 0x820 DUP5 DUP3 PUSH1 0x5 SHL ADD PUSH2 0x785 JUMP JUMPDEST DUP2 DUP2 MSTORE DUP5 DUP2 ADD SWAP3 POP PUSH2 0x120 SWAP2 DUP3 MUL DUP5 ADD DUP6 ADD SWAP2 DUP9 DUP4 GT ISZERO PUSH2 0x840 JUMPI PUSH1 0x0 DUP1 REVERT JUMPDEST SWAP4 DUP6 ADD SWAP4 JUMPDEST DUP3 DUP6 LT ISZERO PUSH2 0x8D5 JUMPI DUP1 DUP6 DUP11 SUB SLT ISZERO PUSH2 0x85D JUMPI PUSH1 0x0 DUP1 DUP2 REVERT JUMPDEST PUSH2 0x865 PUSH2 0x75B JUMP JUMPDEST DUP6 MLOAD DUP2 MSTORE PUSH2 0x874 DUP8 DUP8 ADD PUSH2 0x7B6 JUMP JUMPDEST DUP2 DUP9 ADD MSTORE PUSH1 0x40 DUP7 DUP2 ADD MLOAD SWAP1 DUP3 ADD MSTORE PUSH1 0x60 DUP1 DUP8 ADD MLOAD SWAP1 DUP3 ADD MSTORE PUSH1 0x80 DUP1 DUP8 ADD MLOAD SWAP1 DUP3 ADD MSTORE PUSH1 0xA0 DUP1 DUP8 ADD MLOAD SWAP1 DUP3 ADD MSTORE PUSH1 0xC0 DUP1 DUP8 ADD MLOAD SWAP1 DUP3 ADD MSTORE PUSH1 0xE0 DUP1 DUP8 ADD MLOAD SWAP1 DUP3 ADD MSTORE PUSH2 0x100 PUSH2 0x8C2 DUP2 DUP9 ADD PUSH2 0x6E6 JUMP JUMPDEST SWAP1 DUP3 ADD MSTORE DUP5 MSTORE SWAP4 DUP5 ADD SWAP4 SWAP3 DUP6 ADD SWAP3 PUSH2 0x845 JUMP JUMPDEST POP SWAP8 SWAP7 POP POP POP POP POP POP POP JUMP JUMPDEST PUSH4 0x4E487B71 PUSH1 0xE0 SHL PUSH1 0x0 MSTORE PUSH1 0x32 PUSH1 0x4 MSTORE PUSH1 0x24 PUSH1 0x0 REVERT JUMPDEST DUP1 DUP3 ADD DUP1 DUP3 GT ISZERO PUSH2 0x73F JUMPI PUSH2 0x73F PUSH2 0x716 JUMP JUMPDEST PUSH1 0x0 PUSH1 0x1 DUP3 ADD PUSH2 0x91C JUMPI PUSH2 0x91C PUSH2 0x716 JUMP JUMPDEST POP PUSH1 0x1 ADD SWAP1 JUMP JUMPDEST PUSH1 0x0 DUP3 PUSH2 0x940 JUMPI PUSH4 0x4E487B71 PUSH1 0xE0 SHL PUSH1 0x0 MSTORE PUSH1 0x12 PUSH1 0x4 MSTORE PUSH1 0x24 PUSH1 0x0 REVERT JUMPDEST POP DIV SWAP1 JUMP INVALID LOG2 PUSH5 0x6970667358 0x22 SLT KECCAK256 0x1E MSTORE8 0xCE DUP16 0xF PUSH18 0xDD28D95E6D5DCCC04AC975C112652563F6F0 0x4B 0xE9 0xCD CALLDATASIZE EXP DUP10 SWAP15 SWAP8 PUSH5 0x736F6C6343 STOP ADDMOD EQ STOP CALLER "},"methodIdentifiers":{"claimReward()":"b88a802f","deposit(uint256)":"b6b55f25","lastClaimedAt(address)":"26a40c99","owner()":"8da5cb5b","previewReward(address)":"f6dbda7b","rewardToken()":"f7c618c1","solarPanelContract()":"42d6d0a5"}}}}}