{"contracts/SolarPanels.sol":{"SolarPanels":{"abi":[{"anonymous":false,"inputs":[{"indexed":true,"internalType":"uint256","name":"panelId","type":"uint256"},{"indexed":true,"internalType":"address","name":"owner","type":"address"},{"indexed":false,"internalType":"uint256","name":"latitude","type":"uint256"},{"indexed":false,"internalType":"uint256","name":"longitude","type":"uint256"},{"indexed":false,"internalType":"uint256","name":"batteryTemperature","type":"uint256"},{"indexed":false,"internalType":"uint256","name":"dcPower","type":"uint256"},{"indexed":false,"internalType":"uint256","name":"acPower","type":"uint256"},{"indexed":false,"internalType":"uint256","name":"createdAt","type":"uint256"}],"name":"PanelCreated","type":"event"},{"anonymous":false,"inputs":[{"indexed":true,"internalType":"uint256","name":"panelId","type":"uint256"},{"indexed":true,"internalType":"address","name":"from","type":"address"},{"indexed":true,"internalType":"address","name":"to","type":"address"}],"name":"PanelOwnershipTransferred","type":"event"},{"anonymous":false,"inputs":[{"indexed":true,"internalType":"uint256","name":"panelId","type":"uint256"},{"indexed":false,"internalType":"uint256","name":"batteryTemperature","type":"uint256"},{"indexed":false,"internalType":"uint256","name":"dcPower","type":"uint256"},{"indexed":false,"internalType":"uint256","name":"acPower","type":"uint256"}],"name":"PanelUpdated","type":"event"},{"inputs":[{"internalType":"uint256","name":"_latitude","type":"uint256"},{"internalType":"uint256","name":"_longitude","type":"uint256"},{"internalType":"uint256","name":"_batteryTemperature","type":"uint256"},{"internalType":"uint256","name":"_dcPower","type":"uint256"},{"internalType":"uint256","name":"_acPower","type":"uint256"}],"name":"createPanel","outputs":[],"stateMutability":"nonpayable","type":"function"},{"inputs":[],"name":"getAllPanels","outputs":[{"components":[{"internalType":"uint256","name":"id","type":"uint256"},{"internalType":"address","name":"owner","type":"address"},{"internalType":"uint256","name":"latitude","type":"uint256"},{"internalType":"uint256","name":"longitude","type":"uint256"},{"internalType":"uint256","name":"batteryTemperature","type":"uint256"},{"internalType":"uint256","name":"dcPower","type":"uint256"},{"internalType":"uint256","name":"acPower","type":"uint256"},{"internalType":"uint256","name":"createdAt","type":"uint256"},{"internalType":"bool","name":"exists","type":"bool"}],"internalType":"struct SolarPanels.Panel[]","name":"","type":"tuple[]"}],"stateMutability":"view","type":"function"},{"inputs":[],"name":"getMyPanels","outputs":[{"components":[{"internalType":"uint256","name":"id","type":"uint256"},{"internalType":"address","name":"owner","type":"address"},{"internalType":"uint256","name":"latitude","type":"uint256"},{"internalType":"uint256","name":"longitude","type":"uint256"},{"internalType":"uint256","name":"batteryTemperature","type":"uint256"},{"internalType":"uint256","name":"dcPower","type":"uint256"},{"internalType":"uint256","name":"acPower","type":"uint256"},{"internalType":"uint256","name":"createdAt","type":"uint256"},{"internalType":"bool","name":"exists","type":"bool"}],"internalType":"struct SolarPanels.Panel[]","name":"","type":"tuple[]"}],"stateMutability":"view","type":"function"},{"inputs":[{"internalType":"uint256","name":"_panelId","type":"uint256"}],"name":"getPanel","outputs":[{"internalType":"address","name":"owner","type":"address"},{"internalType":"uint256","name":"latitude","type":"uint256"},{"internalType":"uint256","name":"longitude","type":"uint256"},{"internalType":"uint256","name":"batteryTemperature","type":"uint256"},{"internalType":"uint256","name":"dcPower","type":"uint256"},{"internalType":"uint256","name":"acPower","type":"uint256"},{"internalType":"uint256","name":"createdAt","type":"uint256"}],"stateMutability":"view","type":"function"},{"inputs":[{"internalType":"address","name":"","type":"address"},{"internalType":"uint256","name":"","type":"uint256"}],"name":"ownerPanels","outputs":[{"internalType":"uint256","name":"","type":"uint256"}],"stateMutability":"view","type":"function"},{"inputs":[],"name":"panelCount","outputs":[{"internalType":"uint256","name":"","type":"uint256"}],"stateMutability":"view","type":"function"},{"inputs":[{"internalType":"uint256","name":"","type":"uint256"}],"name":"panels","outputs":[{"internalType":"uint256","name":"id","type":"uint256"},{"internalType":"address","name":"owner","type":"address"},{"internalType":"uint256","name":"latitude","type":"uint256"},{"internalType":"uint256","name":"longitude","type":"uint256"},{"internalType":"uint256","name":"batteryTemperature","type":"uint256"},{"internalType":"uint256","name":"dcPower","type":"uint256"},{"internalType":"uint256","name":"acPower","type":"uint256"},{"internalType":"uint256","name":"createdAt","type":"uint256"},{"internalType":"bool","name":"exists","type":"bool"}],"stateMutability":"view","type":"function"},{"inputs":[{"internalType":"uint256","name":"_panelId","type":"uint256"},{"internalType":"address","name":"_newOwner","type":"address"}],"name":"transferPanelOwnership","outputs":[],"stateMutability":"nonpayable","type":"function"},{"inputs":[{"internalType":"uint256","name":"_panelId","type":"uint256"},{"internalType":"uint256","name":"_batteryTemperature","type":"uint256"},{"internalType":"uint256","name":"_dcPower","type":"uint256"},{"internalType":"uint256","name":"_acPower","type":"uint256"}],"name":"updatePanel","outputs":[],"stateMutability":"nonpayable","type":"function"}],"evm":{"bytecode":{"linkReferences":{},"object":"60806040526000805534801561001457600080fd5b50610d82806100246000396000f3fe608060405234801561001057600080fd5b50600436106100935760003560e01c8063b25c155711610066578063b25c15571461012e578063e3807a8814610141578063ef4c094914610154578063f40e4f6f14610169578063f94e6c981461021c57600080fd5b80633075494a146100985780633453a61d146100ad57806394f178df146100c057806396879ef014610117575b600080fd5b6100ab6100a6366004610b15565b610224565b005b6100ab6100bb366004610b41565b61045e565b6100d36100ce366004610b73565b610568565b604080516001600160a01b0390981688526020880196909652948601939093526060850191909152608084015260a083015260c082015260e0015b60405180910390f35b61012060005481565b60405190815260200161010e565b61012061013c366004610b8c565b610644565b6100ab61014f366004610bb6565b610675565b61015c6107de565b60405161010e9190610bf1565b6101ce610177366004610b73565b60016020819052600091825260409091208054918101546002820154600383015460048401546005850154600686015460078701546008909701546001600160a01b03909616969495939492939192909160ff1689565b60408051998a526001600160a01b0390981660208a0152968801959095526060870193909352608086019190915260a085015260c084015260e083015215156101008201526101200161010e565b61015c61097a565b6000828152600160208190526040909120015482906001600160a01b031633146102955760405162461bcd60e51b815260206004820152601b60248201527f4e6f7420746865206f776e6572206f6620746869732070616e656c000000000060448201526064015b60405180910390fd5b60008381526001602052604090206008015460ff166102c65760405162461bcd60e51b815260040161028c90610c94565b6001600160a01b03821661031c5760405162461bcd60e51b815260206004820181905260248201527f4e6577206f776e65722063616e6e6f74206265207a65726f2061646472657373604482015260640161028c565b336000908152600260205260408120905b81548110156103e1578482828154811061034957610349610cc2565b9060005260206000200154036103cf578154829061036990600190610cee565b8154811061037957610379610cc2565b906000526020600020015482828154811061039657610396610cc2565b9060005260206000200181905550818054806103b4576103b4610d07565b600190038181906000526020600020016000905590556103e1565b806103d981610d1d565b91505061032d565b506000848152600160208181526040808420830180546001600160a01b0319166001600160a01b0389169081179091558085526002835281852080549485018155855291842090920187905590519091339187917f426e27e5a721da38f03288650903462737aecdda511bd9537f7ad9099fccad8891a450505050565b6000848152600160208190526040909120015484906001600160a01b031633146104ca5760405162461bcd60e51b815260206004820152601b60248201527f4e6f7420746865206f776e6572206f6620746869732070616e656c0000000000604482015260640161028c565b60008581526001602052604090206008015460ff166104fb5760405162461bcd60e51b815260040161028c90610c94565b6000858152600160209081526040918290206004810187905560058101869055600601849055815186815290810185905290810183905285907f26171779e4beda8723f55fd9ee403e6c9a73b3c22e858fa4cdbe80656e401a609060600160405180910390a25050505050565b60008181526001602052604081206008015481908190819081908190819060ff166105a55760405162461bcd60e51b815260040161028c90610c94565b505050600094855250506001602081815260409485902085516101208101875281548152928101546001600160a01b03169183018290526002810154958301869052600381015460608401819052600482015460808501819052600583015460a08601819052600684015460c08701819052600785015460e0880181905260089095015460ff1615156101009097019690965293989196509450919291565b6002602052816000526040600020818154811061066057600080fd5b90600052602060002001600091509150505481565b60008054908061068483610d1d565b90915550506040805161012081018252600080548083523360208085018281528587018c8152606087018c8152608088018c815260a089018c815260c08a018c81524260e08c0181815260016101008e018181529b8d52808a528e8d209d518e5597518d890180546001600160a01b03929092166001600160a01b031990921691909117905595516002808e0191909155945160038d0155925160048c0155905160058b01555160068a01559151600789015594516008909701805497151560ff19989098169790971790965582855292815285842084548154948501825590855290842090920191909155905492519092917f48b6c9d02f31326df94aa31f59108bf5156d7784c5ca28179f08f781ca1016a3916107cf918a918a918a918a918a91958652602086019490945260408501929092526060840152608083015260a082015260c00190565b60405180910390a35050505050565b33600090815260026020908152604080832080548251818502810185019093528083526060949383018282801561083457602002820191906000526020600020905b815481526020019060010190808311610820575b505050505090506000815167ffffffffffffffff81111561085757610857610d36565b60405190808252806020026020018201604052801561089057816020015b61087d610aa2565b8152602001906001900390816108755790505b50905060005b825181101561097357600160008483815181106108b5576108b5610cc2565b60209081029190910181015182528181019290925260409081016000208151610120810183528154815260018201546001600160a01b0316938101939093526002810154918301919091526003810154606083015260048101546080830152600581015460a0830152600681015460c0830152600781015460e08301526008015460ff161515610100820152825183908390811061095557610955610cc2565b6020026020010181905250808061096b90610d1d565b915050610896565b5092915050565b60606000805467ffffffffffffffff81111561099857610998610d36565b6040519080825280602002602001820160405280156109d157816020015b6109be610aa2565b8152602001906001900390816109b65790505b50905060015b6000548111610a9c5760008181526001602081815260409283902083516101208101855281548152818401546001600160a01b0316928101929092526002810154938201939093526003830154606082015260048301546080820152600583015460a0820152600683015460c0820152600783015460e082015260089092015460ff1615156101008301528390610a6e9084610cee565b81518110610a7e57610a7e610cc2565b60200260200101819052508080610a9490610d1d565b9150506109d7565b50919050565b6040518061012001604052806000815260200160006001600160a01b031681526020016000815260200160008152602001600081526020016000815260200160008152602001600081526020016000151581525090565b80356001600160a01b0381168114610b1057600080fd5b919050565b60008060408385031215610b2857600080fd5b82359150610b3860208401610af9565b90509250929050565b60008060008060808587031215610b5757600080fd5b5050823594602084013594506040840135936060013592509050565b600060208284031215610b8557600080fd5b5035919050565b60008060408385031215610b9f57600080fd5b610ba883610af9565b946020939093013593505050565b600080600080600060a08688031215610bce57600080fd5b505083359560208501359550604085013594606081013594506080013592509050565b602080825282518282018190526000919060409081850190868401855b82811015610c8757815180518552868101516001600160a01b0316878601528581015186860152606080820151908601526080808201519086015260a0808201519086015260c0808201519086015260e08082015190860152610100908101511515908501526101209093019290850190600101610c0e565b5091979650505050505050565b60208082526014908201527314185b995b08191bd95cc81b9bdd08195e1a5cdd60621b604082015260600190565b634e487b7160e01b600052603260045260246000fd5b634e487b7160e01b600052601160045260246000fd5b81810381811115610d0157610d01610cd8565b92915050565b634e487b7160e01b600052603160045260246000fd5b600060018201610d2f57610d2f610cd8565b5060010190565b634e487b7160e01b600052604160045260246000fdfea264697066735822122063fb57a1d5a5ed04f8ff54743e0b3ffea2ded92eaa4044317557296a2761eab064736f6c63430008140033","opcodes":"PUSH1 0x80 PUSH1 0x40 MSTORE PUSH1 0x0 DUP1 SSTORE CALLVALUE DUP1 ISZERO PUSH2 0x14 JUMPI PUSH1 0x0 DUP1 REVERT JUMPDEST POP PUSH2 0xD82 DUP1 PUSH2 0x24 PUSH1 0x0 CODECOPY PUSH1 0x0 RETURN INVALID PUSH1 0x80 PUSH1 0x40 MSTORE CALLVALUE DUP1 ISZERO PUSH2 0x10 JUMPI PUSH1 0x0 DUP1 REVERT JUMPDEST POP PUSH1 0x4 CALLDATASIZE LT PUSH2 0x93 JUMPI PUSH1 0x0 CALLDATALOAD PUSH1 0xE0 SHR DUP1 PUSH4 0xB25C1557 GT PUSH2 0x66 JUMPI DUP1 PUSH4 0xB25C1557 EQ PUSH2 0x12E JUMPI DUP1 PUSH4 0xE3807A88 EQ PUSH2 0x141 JUMPI DUP1 PUSH4 0xEF4C0949 EQ PUSH2 0x154 JUMPI DUP1 PUSH4 0xF40E4F6F EQ PUSH2 0x169 JUMPI DUP1 PUSH4 0xF94E6C98 EQ PUSH2 0x21C JUMPI PUSH1 0x0 DUP1 REVERT JUMPDEST DUP1 PUSH4 0x3075494A EQ PUSH2 0x98 JUMPI DUP1 PUSH4 0x3453A61D EQ PUSH2 0xAD JUMPI DUP1 PUSH4 0x94F178DF EQ PUSH2 0xC0 JUMPI DUP1 PUSH4 0x96879EF0 EQ PUSH2 0x117 JUMPI JUMPDEST PUSH1 0x0 DUP1 REVERT JUMPDEST PUSH2 0xAB PUSH2 0xA6 CALLDATASIZE PUSH1 0x4 PUSH2 0xB15 JUMP JUMPDEST PUSH2 0x224 JUMP JUMPDEST STOP JUMPDEST PUSH2 0xAB PUSH2 0xBB CALLDATASIZE PUSH1 0x4 PUSH2 0xB41 JUMP JUMPDEST PUSH2 0x45E JUMP JUMPDEST PUSH2 0xD3 PUSH2 0xCE CALLDATASIZE PUSH1 0x4 PUSH2 0xB73 JUMP JUMPDEST PUSH2 0x568 JUMP JUMPDEST PUSH1 0x40 DUP1 MLOAD PUSH1 0x1 PUSH1 0x1 PUSH1 0xA0 SHL SUB SWAP1 SWAP9 AND DUP9 MSTORE PUSH1 0x20 DUP9 ADD SWAP7 SWAP1 SWAP7 MSTORE SWAP5 DUP7 ADD SWAP4 SWAP1 SWAP4 MSTORE PUSH1 0x60 DUP6 ADD SWAP2 SWAP1 SWAP2 MSTORE PUSH1 0x80 DUP5 ADD MSTORE PUSH1 0xA0 DUP4 ADD MSTORE PUSH1 0xC0 DUP3 ADD MSTORE PUSH1 0xE0 ADD JUMPDEST PUSH1 0x40 MLOAD DUP1 SWAP2 SUB SWAP1 RETURN JUMPDEST PUSH2 0x120 PUSH1 0x0 SLOAD DUP2 JUMP JUMPDEST PUSH1 0x40 MLOAD SWAP1 DUP2 MSTORE PUSH1 0x20 ADD PUSH2 0x10E JUMP JUMPDEST PUSH2 0x120 PUSH2 0x13C CALLDATASIZE PUSH1 0x4 PUSH2 0xB8C JUMP JUMPDEST PUSH2 0x644 JUMP JUMPDEST PUSH2 0xAB PUSH2 0x14F CALLDATASIZE PUSH1 0x4 PUSH2 0xBB6 JUMP JUMPDEST PUSH2 0x675 JUMP JUMPDEST PUSH2 0x15C PUSH2 0x7DE JUMP JUMPDEST PUSH1 0x40 MLOAD PUSH2 0x10E SWAP2 SWAP1 PUSH2 0xBF1 JUMP JUMPDEST PUSH2 0x1CE PUSH2 0x177 CALLDATASIZE PUSH1 0x4 PUSH2 0xB73 JUMP JUMPDEST PUSH1 0x1 PUSH1 0x20 DUP2 SWAP1 MSTORE PUSH1 0x0 SWAP2 DUP3 MSTORE PUSH1 0x40 SWAP1 SWAP2 KECCAK256 DUP1 SLOAD SWAP2 DUP2 ADD SLOAD PUSH1 0x2 DUP3 ADD SLOAD PUSH1 0x3 DUP4 ADD SLOAD PUSH1 0x4 DUP5 ADD SLOAD PUSH1 0x5 DUP6 ADD SLOAD PUSH1 0x6 DUP7 ADD SLOAD PUSH1 0x7 DUP8 ADD SLOAD PUSH1 0x8 SWAP1 SWAP8 ADD SLOAD PUSH1 0x1 PUSH1 0x1 PUSH1 0xA0 SHL SUB SWAP1 SWAP7 AND SWAP7 SWAP5 SWAP6 SWAP4 SWAP5 SWAP3 SWAP4 SWAP2 SWAP3 SWAP1 SWAP2 PUSH1 0xFF AND DUP10 JUMP JUMPDEST PUSH1 0x40 DUP1 MLOAD SWAP10 DUP11 MSTORE PUSH1 0x1 PUSH1 0x1 PUSH1 0xA0 SHL SUB SWAP1 SWAP9 AND PUSH1 0x20 DUP11 ADD MSTORE SWAP7 DUP9 ADD SWAP6 SWAP1 SWAP6 MSTORE PUSH1 0x60 DUP8 ADD SWAP4 SWAP1 SWAP4 MSTORE PUSH1 0x80 DUP7 ADD SWAP2 SWAP1 SWAP2 MSTORE PUSH1 0xA0 DUP6 ADD MSTORE PUSH1 0xC0 DUP5 ADD MSTORE PUSH1 0xE0 DUP4 ADD MSTORE ISZERO ISZERO PUSH2 0x100 DUP3 ADD MSTORE PUSH2 0x120 ADD PUSH2 0x10E JUMP JUMPDEST PUSH2 0x15C PUSH2 0x97A JUMP JUMPDEST PUSH1 0x0 DUP3 DUP2 MSTORE PUSH1 0x1 PUSH1 0x20 DUP2 SWAP1 MSTORE PUSH1 0x40 SWAP1 SWAP2 KECCAK256 ADD SLOAD DUP3 SWAP1 PUSH1 0x1 PUSH1 0x1 PUSH1 0xA0 SHL SUB AND CALLER EQ PUSH2 0x295 JUMPI PUSH1 0x40 MLOAD PUSH3 0x461BCD PUSH1 0xE5 SHL DUP2 MSTORE PUSH1 0x20 PUSH1 0x4 DUP3 ADD MSTORE PUSH1 0x1B PUSH1 0x24 DUP3 ADD MSTORE PUSH32 0x4E6F7420746865206F776E6572206F6620746869732070616E656C0000000000 PUSH1 0x44 DUP3 ADD MSTORE PUSH1 0x64 ADD JUMPDEST PUSH1 0x40 MLOAD DUP1 SWAP2 SUB SWAP1 REVERT JUMPDEST PUSH1 0x0 DUP4 DUP2 MSTORE PUSH1 0x1 PUSH1 0x20 MSTORE PUSH1 0x40 SWAP1 KECCAK256 PUSH1 0x8 ADD SLOAD PUSH1 0xFF AND PUSH2 0x2C6 JUMPI PUSH1 0x40 MLOAD PUSH3 0x461BCD PUSH1 0xE5 SHL DUP2 MSTORE PUSH1 0x4 ADD PUSH2 0x28C SWAP1 PUSH2 0xC94 JUMP JUMPDEST PUSH1 0x1 PUSH1 0x1 PUSH1 0xA0 SHL SUB DUP3 AND PUSH2 0x31C JUMPI PUSH1 0x40 MLOAD PUSH3 0x461BCD PUSH1 0xE5 SHL DUP2 MSTORE PUSH1 0x20 PUSH1 0x4 DUP3 ADD DUP2 SWAP1 MSTORE PUSH1 0x24 DUP3 ADD MSTORE PUSH32 0x4E6577206F776E65722063616E6E6F74206265207A65726F2061646472657373 PUSH1 0x44 DUP3 ADD MSTORE PUSH1 0x64 ADD PUSH2 0x28C JUMP JUMPDEST CALLER PUSH1 0x0 SWAP1 DUP2 MSTORE PUSH1 0x2 PUSH1 0x20 MSTORE PUSH1 0x40 DUP2 KECCAK256 SWAP1 JUMPDEST DUP2 SLOAD DUP2 LT ISZERO PUSH2 0x3E1 JUMPI DUP5 DUP3 DUP3 DUP2 SLOAD DUP2 LT PUSH2 0x349 JUMPI PUSH2 0x349 PUSH2 0xCC2 JUMP JUMPDEST SWAP1 PUSH1 0x0 MSTORE PUSH1 0x20 PUSH1 0x0 KECCAK256 ADD SLOAD SUB PUSH2 0x3CF JUMPI DUP2 SLOAD DUP3 SWAP1 PUSH2 0x369 SWAP1 PUSH1 0x1 SWAP1 PUSH2 0xCEE JUMP JUMPDEST DUP2 SLOAD DUP2 LT PUSH2 0x379 JUMPI PUSH2 0x379 PUSH2 0xCC2 JUMP JUMPDEST SWAP1 PUSH1 0x0 MSTORE PUSH1 0x20 PUSH1 0x0 KECCAK256 ADD SLOAD DUP3 DUP3 DUP2 SLOAD DUP2 LT PUSH2 0x396 JUMPI PUSH2 0x396 PUSH2 0xCC2 JUMP JUMPDEST SWAP1 PUSH1 0x0 MSTORE PUSH1 0x20 PUSH1 0x0 KECCAK256 ADD DUP2 SWAP1 SSTORE POP DUP2 DUP1 SLOAD DUP1 PUSH2 0x3B4 JUMPI PUSH2 0x3B4 PUSH2 0xD07 JUMP JUMPDEST PUSH1 0x1 SWAP1 SUB DUP2 DUP2 SWAP1 PUSH1 0x0 MSTORE PUSH1 0x20 PUSH1 0x0 KECCAK256 ADD PUSH1 0x0 SWAP1 SSTORE SWAP1 SSTORE PUSH2 0x3E1 JUMP JUMPDEST DUP1 PUSH2 0x3D9 DUP2 PUSH2 0xD1D JUMP JUMPDEST SWAP2 POP POP PUSH2 0x32D JUMP JUMPDEST POP PUSH1 0x0 DUP5 DUP2 MSTORE PUSH1 0x1 PUSH1 0x20 DUP2 DUP2 MSTORE PUSH1 0x40 DUP1 DUP5 KECCAK256 DUP4 ADD DUP1 SLOAD PUSH1 0x1 PUSH1 0x1 PUSH1 0xA0 SHL SUB NOT AND PUSH1 0x1 PUSH1 0x1 PUSH1 0xA0 SHL SUB DUP10 AND SWAP1 DUP2 OR SWAP1 SWAP2 SSTORE DUP1 DUP6 MSTORE PUSH1 0x2 DUP4 MSTORE DUP2 DUP6 KECCAK256 DUP1 SLOAD SWAP5 DUP6 ADD DUP2 SSTORE DUP6 MSTORE SWAP2 DUP5 KECCAK256 SWAP1 SWAP3 ADD DUP8 SWAP1 SSTORE SWAP1 MLOAD SWAP1 SWAP2 CALLER SWAP2 DUP8 SWAP2 PUSH32 0x426E27E5A721DA38F03288650903462737AECDDA511BD9537F7AD9099FCCAD88 SWAP2 LOG4 POP POP POP POP JUMP JUMPDEST PUSH1 0x0 DUP5 DUP2 MSTORE PUSH1 0x1 PUSH1 0x20 DUP2 SWAP1 MSTORE PUSH1 0x40 SWAP1 SWAP2 KECCAK256 ADD SLOAD DUP5 SWAP1 PUSH1 0x1 PUSH1 0x1 PUSH1 0xA0 SHL SUB AND CALLER EQ PUSH2 0x4CA JUMPI PUSH1 0x40 MLOAD PUSH3 0x461BCD PUSH1 0xE5 SHL DUP2 MSTORE PUSH1 0x20 PUSH1 0x4 DUP3 ADD MSTORE PUSH1 0x1B PUSH1 0x24 DUP3 ADD MSTORE PUSH32 0x4E6F7420746865206F776E6572206F6620746869732070616E656C0000000000 PUSH1 0x44 DUP3 ADD MSTORE PUSH1 0x64 ADD PUSH2 0x28C JUMP JUMPDEST PUSH1 0x0 DUP6 DUP2 MSTORE PUSH1 0x1 PUSH1 0x20 MSTORE PUSH1 0x40 SWAP1 KECCAK256 PUSH1 0x8 ADD SLOAD PUSH1 0xFF AND PUSH2 0x4FB JUMPI PUSH1 0x40 MLOAD PUSH3 0x461BCD PUSH1 0xE5 SHL DUP2 MSTORE PUSH1 0x4 ADD PUSH2 0x28C SWAP1 PUSH2 0xC94 JUMP JUMPDEST PUSH1 0x0 DUP6 DUP2 MSTORE PUSH1 0x1 PUSH1 0x20 SWAP1 DUP2 MSTORE PUSH1 0x40 SWAP2 DUP3 SWAP1 KECCAK256 PUSH1 0x4 DUP2 ADD DUP8 SWAP1 SSTORE PUSH1 0x5 DUP2 ADD DUP7 SWAP1 SSTORE PUSH1 0x6 ADD DUP5 SWAP1 SSTORE DUP2 MLOAD DUP7 DUP2 MSTORE SWAP1 DUP2 ADD DUP6 SWAP1 MSTORE SWAP1 DUP2 ADD DUP4 SWAP1 MSTORE DUP6 SWAP1 PUSH32 0x26171779E4BEDA8723F55FD9EE403E6C9A73B3C22E858FA4CDBE80656E401A60 SWAP1 PUSH1 0x60 ADD PUSH1 0x40 MLOAD DUP1 SWAP2 SUB SWAP1 LOG2 POP POP POP POP POP JUMP JUMPDEST PUSH1 0x0 DUP2 DUP2 MSTORE PUSH1 0x1 PUSH1 0x20 MSTORE PUSH1 0x40 DUP2 KECCAK256 PUSH1 0x8 ADD SLOAD DUP2 SWAP1 DUP2 SWAP1 DUP2 SWAP1 DUP2 SWAP1 DUP2 SWAP1 DUP2 SWAP1 PUSH1 0xFF AND PUSH2 0x5A5 JUMPI PUSH1 0x40 MLOAD PUSH3 0x461BCD PUSH1 0xE5 SHL DUP2 MSTORE PUSH1 0x4 ADD PUSH2 0x28C SWAP1 PUSH2 0xC94 JUMP JUMPDEST POP POP POP PUSH1 0x0 SWAP5 DUP6 MSTORE POP POP PUSH1 0x1 PUSH1 0x20 DUP2 DUP2 MSTORE PUSH1 0x40 SWAP5 DUP6 SWAP1 KECCAK256 DUP6 MLOAD PUSH2 0x120 DUP2 ADD DUP8 MSTORE DUP2 SLOAD DUP2 MSTORE SWAP3 DUP2 ADD SLOAD PUSH1 0x1 PUSH1 0x1 PUSH1 0xA0 SHL SUB AND SWAP2 DUP4 ADD DUP3 SWAP1 MSTORE PUSH1 0x2 DUP2 ADD SLOAD SWAP6 DUP4 ADD DUP7 SWAP1 MSTORE PUSH1 0x3 DUP2 ADD SLOAD PUSH1 0x60 DUP5 ADD DUP2 SWAP1 MSTORE PUSH1 0x4 DUP3 ADD SLOAD PUSH1 0x80 DUP6 ADD DUP2 SWAP1 MSTORE PUSH1 0x5 DUP4 ADD SLOAD PUSH1 0xA0 DUP7 ADD DUP2 SWAP1 MSTORE PUSH1 0x6 DUP5 ADD SLOAD PUSH1 0xC0 DUP8 ADD DUP2 SWAP1 MSTORE PUSH1 0x7 DUP6 ADD SLOAD PUSH1 0xE0 DUP9 ADD DUP2 SWAP1 MSTORE PUSH1 0x8 SWAP1 SWAP6 ADD SLOAD PUSH1 0xFF AND ISZERO ISZERO PUSH2 0x100 SWAP1 SWAP8 ADD SWAP7 SWAP1 SWAP7 MSTORE SWAP4 SWAP9 SWAP2 SWAP7 POP SWAP5 POP SWAP2 SWAP3 SWAP2 JUMP JUMPDEST PUSH1 0x2 PUSH1 0x20 MSTORE DUP2 PUSH1 0x0 MSTORE PUSH1 0x40 PUSH1 0x0 KECCAK256 DUP2 DUP2 SLOAD DUP2 LT PUSH2 0x660 JUMPI PUSH1 0x0 DUP1 REVERT JUMPDEST SWAP1 PUSH1 0x0 MSTORE PUSH1 0x20 PUSH1 0x0 KECCAK256 ADD PUSH1 0x0 SWAP2 POP SWAP2 POP POP SLOAD DUP2 JUMP JUMPDEST PUSH1 0x0 DUP1 SLOAD SWAP1 DUP1 PUSH2 0x684 DUP4 PUSH2 0xD1D JUMP JUMPDEST SWAP1 SWAP2 SSTORE POP POP PUSH1 0x40 DUP1 MLOAD PUSH2 0x120 DUP2 ADD DUP3 MSTORE PUSH1 0x0 DUP1 SLOAD DUP1 DUP4 MSTORE CALLER PUSH1 0x20 DUP1 DUP6 ADD DUP3 DUP2 MSTORE DUP6 DUP8 ADD DUP13 DUP2 MSTORE PUSH1 0x60 DUP8 ADD DUP13 DUP2 MSTORE PUSH1 0x80 DUP9 ADD DUP13 DUP2 MSTORE PUSH1 0xA0 DUP10 ADD DUP13 DUP2 MSTORE PUSH1 0xC0 DUP11 ADD DUP13 DUP2 MSTORE TIMESTAMP PUSH1 0xE0 DUP13 ADD DUP2 DUP2 MSTORE PUSH1 0x1 PUSH2 0x100 DUP15 ADD DUP2 DUP2 MSTORE SWAP12 DUP14 MSTORE DUP1 DUP11 MSTORE DUP15 DUP14 KECCAK256 SWAP14 MLOAD DUP15 SSTORE SWAP8 MLOAD DUP14 DUP10 ADD DUP1 SLOAD PUSH1 0x1 PUSH1 0x1 PUSH1 0xA0 SHL SUB SWAP3 SWAP1 SWAP3 AND PUSH1 0x1 PUSH1 0x1 PUSH1 0xA0 SHL SUB NOT SWAP1 SWAP3 AND SWAP2 SWAP1 SWAP2 OR SWAP1 SSTORE SWAP6 MLOAD PUSH1 0x2 DUP1 DUP15 ADD SWAP2 SWAP1 SWAP2 SSTORE SWAP5 MLOAD PUSH1 0x3 DUP14 ADD SSTORE SWAP3 MLOAD PUSH1 0x4 DUP13 ADD SSTORE SWAP1 MLOAD PUSH1 0x5 DUP12 ADD SSTORE MLOAD PUSH1 0x6 DUP11 ADD SSTORE SWAP2 MLOAD PUSH1 0x7 DUP10 ADD SSTORE SWAP5 MLOAD PUSH1 0x8 SWAP1 SWAP8 ADD DUP1 SLOAD SWAP8 ISZERO ISZERO PUSH1 0xFF NOT SWAP9 SWAP1 SWAP9 AND SWAP8 SWAP1 SWAP8 OR SWAP1 SWAP7 SSTORE DUP3 DUP6 MSTORE SWAP3 DUP2 MSTORE DUP6 DUP5 KECCAK256 DUP5 SLOAD DUP2 SLOAD SWAP5 DUP6 ADD DUP3 SSTORE SWAP1 DUP6 MSTORE SWAP1 DUP5 KECCAK256 SWAP1 SWAP3 ADD SWAP2 SWAP1 SWAP2 SSTORE SWAP1 SLOAD SWAP3 MLOAD SWAP1 SWAP3 SWAP2 PUSH32 0x48B6C9D02F31326DF94AA31F59108BF5156D7784C5CA28179F08F781CA1016A3 SWAP2 PUSH2 0x7CF SWAP2 DUP11 SWAP2 DUP11 SWAP2 DUP11 SWAP2 DUP11 SWAP2 DUP11 SWAP2 SWAP6 DUP7 MSTORE PUSH1 0x20 DUP7 ADD SWAP5 SWAP1 SWAP5 MSTORE PUSH1 0x40 DUP6 ADD SWAP3 SWAP1 SWAP3 MSTORE PUSH1 0x60 DUP5 ADD MSTORE PUSH1 0x80 DUP4 ADD MSTORE PUSH1 0xA0 DUP3 ADD MSTORE PUSH1 0xC0 ADD SWAP1 JUMP JUMPDEST PUSH1 0x40 MLOAD DUP1 SWAP2 SUB SWAP1 LOG3 POP POP POP POP POP JUMP JUMPDEST CALLER PUSH1 0x0 SWAP1 DUP2 MSTORE PUSH1 0x2 PUSH1 0x20 SWAP1 DUP2 MSTORE PUSH1 0x40 DUP1 DUP4 KECCAK256 DUP1 SLOAD DUP3 MLOAD DUP2 DUP6 MUL DUP2 ADD DUP6 ADD SWAP1 SWAP4 MSTORE DUP1 DUP4 MSTORE PUSH1 0x60 SWAP5 SWAP4 DUP4 ADD DUP3 DUP3 DUP1 ISZERO PUSH2 0x834 JUMPI PUSH1 0x20 MUL DUP3 ADD SWAP2 SWAP1 PUSH1 0x0 MSTORE PUSH1 0x20 PUSH1 0x0 KECCAK256 SWAP1 JUMPDEST DUP2 SLOAD DUP2 MSTORE PUSH1 0x20 ADD SWAP1 PUSH1 0x1 ADD SWAP1 DUP1 DUP4 GT PUSH2 0x820 JUMPI JUMPDEST POP POP POP POP POP SWAP1 POP PUSH1 0x0 DUP2 MLOAD PUSH8 0xFFFFFFFFFFFFFFFF DUP2 GT ISZERO PUSH2 0x857 JUMPI PUSH2 0x857 PUSH2 0xD36 JUMP JUMPDEST PUSH1 0x40 MLOAD SWAP1 DUP1 DUP3 MSTORE DUP1 PUSH1 0x20 MUL PUSH1 0x20 ADD DUP3 ADD PUSH1 0x40 MSTORE DUP1 ISZERO PUSH2 0x890 JUMPI DUP2 PUSH1 0x20 ADD JUMPDEST PUSH2 0x87D PUSH2 0xAA2 JUMP JUMPDEST DUP2 MSTORE PUSH1 0x20 ADD SWAP1 PUSH1 0x1 SWAP1 SUB SWAP1 DUP2 PUSH2 0x875 JUMPI SWAP1 POP JUMPDEST POP SWAP1 POP PUSH1 0x0 JUMPDEST DUP3 MLOAD DUP2 LT ISZERO PUSH2 0x973 JUMPI PUSH1 0x1 PUSH1 0x0 DUP5 DUP4 DUP2 MLOAD DUP2 LT PUSH2 0x8B5 JUMPI PUSH2 0x8B5 PUSH2 0xCC2 JUMP JUMPDEST PUSH1 0x20 SWAP1 DUP2 MUL SWAP2 SWAP1 SWAP2 ADD DUP2 ADD MLOAD DUP3 MSTORE DUP2 DUP2 ADD SWAP3 SWAP1 SWAP3 MSTORE PUSH1 0x40 SWAP1 DUP2 ADD PUSH1 0x0 KECCAK256 DUP2 MLOAD PUSH2 0x120 DUP2 ADD DUP4 MSTORE DUP2 SLOAD DUP2 MSTORE PUSH1 0x1 DUP3 ADD SLOAD PUSH1 0x1 PUSH1 0x1 PUSH1 0xA0 SHL SUB AND SWAP4 DUP2 ADD SWAP4 SWAP1 SWAP4 MSTORE PUSH1 0x2 DUP2 ADD SLOAD SWAP2 DUP4 ADD SWAP2 SWAP1 SWAP2 MSTORE PUSH1 0x3 DUP2 ADD SLOAD PUSH1 0x60 DUP4 ADD MSTORE PUSH1 0x4 DUP2 ADD SLOAD PUSH1 0x80 DUP4 ADD MSTORE PUSH1 0x5 DUP2 ADD SLOAD PUSH1 0xA0 DUP4 ADD MSTORE PUSH1 0x6 DUP2 ADD SLOAD PUSH1 0xC0 DUP4 ADD MSTORE PUSH1 0x7 DUP2 ADD SLOAD PUSH1 0xE0 DUP4 ADD MSTORE PUSH1 0x8 ADD SLOAD PUSH1 0xFF AND ISZERO ISZERO PUSH2 0x100 DUP3 ADD MSTORE DUP3 MLOAD DUP4 SWAP1 DUP4 SWAP1 DUP2 LT PUSH2 0x955 JUMPI PUSH2 0x955 PUSH2 0xCC2 JUMP JUMPDEST PUSH1 0x20 MUL PUSH1 0x20 ADD ADD DUP2 SWAP1 MSTORE POP DUP1 DUP1 PUSH2 0x96B SWAP1 PUSH2 0xD1D JUMP JUMPDEST SWAP2 POP POP PUSH2 0x896 JUMP JUMPDEST POP SWAP3 SWAP2 POP POP JUMP JUMPDEST PUSH1 0x60 PUSH1 0x0 DUP1 SLOAD PUSH8 0xFFFFFFFFFFFFFFFF DUP2 GT ISZERO PUSH2 0x998 JUMPI PUSH2 0x998 PUSH2 0xD36 JUMP JUMPDEST PUSH1 0x40 MLOAD SWAP1 DUP1 DUP3 MSTORE DUP1 PUSH1 0x20 MUL PUSH1 0x20 ADD DUP3 ADD PUSH1 0x40 MSTORE DUP1 ISZERO PUSH2 0x9D1 JUMPI DUP2 PUSH1 0x20 ADD JUMPDEST PUSH2 0x9BE PUSH2 0xAA2 JUMP JUMPDEST DUP2 MSTORE PUSH1 0x20 ADD SWAP1 PUSH1 0x1 SWAP1 SUB SWAP1 DUP2 PUSH2 0x9B6 JUMPI SWAP1 POP JUMPDEST POP SWAP1 POP PUSH1 0x1 JUMPDEST PUSH1 0x0 SLOAD DUP2 GT PUSH2 0xA9C JUMPI PUSH1 0x0 DUP2 DUP2 MSTORE PUSH1 0x1 PUSH1 0x20 DUP2 DUP2 MSTORE PUSH1 0x40 SWAP3 DUP4 SWAP1 KECCAK256 DUP4 MLOAD PUSH2 0x120 DUP2 ADD DUP6 MSTORE DUP2 SLOAD DUP2 MSTORE DUP2 DUP5 ADD SLOAD PUSH1 0x1 PUSH1 0x1 PUSH1 0xA0 SHL SUB AND SWAP3 DUP2 ADD SWAP3 SWAP1 SWAP3 MSTORE PUSH1 0x2 DUP2 ADD SLOAD SWAP4 DUP3 ADD SWAP4 SWAP1 SWAP4 MSTORE PUSH1 0x3 DUP4 ADD SLOAD PUSH1 0x60 DUP3 ADD MSTORE PUSH1 0x4 DUP4 ADD SLOAD PUSH1 0x80 DUP3 ADD MSTORE PUSH1 0x5 DUP4 ADD SLOAD PUSH1 0xA0 DUP3 ADD MSTORE PUSH1 0x6 DUP4 ADD SLOAD PUSH1 0xC0 DUP3 ADD MSTORE PUSH1 0x7 DUP4 ADD SLOAD PUSH1 0xE0 DUP3 ADD MSTORE PUSH1 0x8 SWAP1 SWAP3 ADD SLOAD PUSH1 0xFF AND ISZERO ISZERO PUSH2 0x100 DUP4 ADD MSTORE DUP4 SWAP1 PUSH2 0xA6E SWAP1 DUP5 PUSH2 0xCEE JUMP JUMPDEST DUP2 MLOAD DUP2 LT PUSH2 0xA7E JUMPI PUSH2 0xA7E PUSH2 0xCC2 JUMP JUMPDEST PUSH1 0x20 MUL PUSH1 0x20 ADD ADD DUP2 SWAP1 MSTORE POP DUP1 DUP1 PUSH2 0xA94 SWAP1 PUSH2 0xD1D JUMP JUMPDEST SWAP2 POP POP PUSH2 0x9D7 JUMP JUMPDEST POP SWAP2 SWAP1 POP JUMP JUMPDEST PUSH1 0x40 MLOAD DUP1 PUSH2 0x120 ADD PUSH1 0x40 MSTORE DUP1 PUSH1 0x0 DUP2 MSTORE PUSH1 0x20 ADD PUSH1 0x0 PUSH1 0x1 PUSH1 0x1 PUSH1 0xA0 SHL SUB AND DUP2 MSTORE PUSH1 0x20 ADD PUSH1 0x0 DUP2 MSTORE PUSH1 0x20 ADD PUSH1 0x0 DUP2 MSTORE PUSH1 0x20 ADD PUSH1 0x0 DUP2 MSTORE PUSH1 0x20 ADD PUSH1 0x0 DUP2 MSTORE PUSH1 0x20 ADD PUSH1 0x0 DUP2 MSTORE PUSH1 0x20 ADD PUSH1 0x0 DUP2 MSTORE PUSH1 0x20 ADD PUSH1 0x0 ISZERO ISZERO DUP2 MSTORE POP SWAP1 JUMP JUMPDEST DUP1 CALLDATALOAD PUSH1 0x1 PUSH1 0x1 PUSH1 0xA0 SHL SUB DUP2 AND DUP2 EQ PUSH2 0xB10 JUMPI PUSH1 0x0 DUP1 REVERT JUMPDEST SWAP2 SWAP1 POP JUMP JUMPDEST PUSH1 0x0 DUP1 PUSH1 0x40 DUP4 DUP6 SUB SLT ISZERO PUSH2 0xB28 JUMPI PUSH1 0x0 DUP1 REVERT JUMPDEST DUP3 CALLDATALOAD SWAP2 POP PUSH2 0xB38 PUSH1 0x20 DUP5 ADD PUSH2 0xAF9 JUMP JUMPDEST SWAP1 POP SWAP3 POP SWAP3 SWAP1 POP JUMP JUMPDEST PUSH1 0x0 DUP1 PUSH1 0x0 DUP1 PUSH1 0x80 DUP6 DUP8 SUB SLT ISZERO PUSH2 0xB57 JUMPI PUSH1 0x0 DUP1 REVERT JUMPDEST POP POP DUP3 CALLDATALOAD SWAP5 PUSH1 0x20 DUP5 ADD CALLDATALOAD SWAP5 POP PUSH1 0x40 DUP5 ADD CALLDATALOAD SWAP4 PUSH1 0x60 ADD CALLDATALOAD SWAP3 POP SWAP1 POP JUMP JUMPDEST PUSH1 0x0 PUSH1 0x20 DUP3 DUP5 SUB SLT ISZERO PUSH2 0xB85 JUMPI PUSH1 0x0 DUP1 REVERT JUMPDEST POP CALLDATALOAD SWAP2 SWAP1 POP JUMP JUMPDEST PUSH1 0x0 DUP1 PUSH1 0x40 DUP4 DUP6 SUB SLT ISZERO PUSH2 0xB9F JUMPI PUSH1 0x0 DUP1 REVERT JUMPDEST PUSH2 0xBA8 DUP4 PUSH2 0xAF9 JUMP JUMPDEST SWAP5 PUSH1 0x20 SWAP4 SWAP1 SWAP4 ADD CALLDATALOAD SWAP4 POP POP POP JUMP JUMPDEST PUSH1 0x0 DUP1 PUSH1 0x0 DUP1 PUSH1 0x0 PUSH1 0xA0 DUP7 DUP9 SUB SLT ISZERO PUSH2 0xBCE JUMPI PUSH1 0x0 DUP1 REVERT JUMPDEST POP POP DUP4 CALLDATALOAD SWAP6 PUSH1 0x20 DUP6 ADD CALLDATALOAD SWAP6 POP PUSH1 0x40 DUP6 ADD CALLDATALOAD SWAP5 PUSH1 0x60 DUP2 ADD CALLDATALOAD SWAP5 POP PUSH1 0x80 ADD CALLDATALOAD SWAP3 POP SWAP1 POP JUMP JUMPDEST PUSH1 0x20 DUP1 DUP3 MSTORE DUP3 MLOAD DUP3 DUP3 ADD DUP2 SWAP1 MSTORE PUSH1 0x0 SWAP2 SWAP1 PUSH1 0x40 SWAP1 DUP2 DUP6 ADD SWAP1 DUP7 DUP5 ADD DUP6 JUMPDEST DUP3 DUP2 LT ISZERO PUSH2 0xC87 JUMPI DUP2 MLOAD DUP1 MLOAD DUP6 MSTORE DUP7 DUP2 ADD MLOAD PUSH1 0x1 PUSH1 0x1 PUSH1 0xA0 SHL SUB AND DUP8 DUP7 ADD MSTORE DUP6 DUP2 ADD MLOAD DUP7 DUP7 ADD MSTORE PUSH1 0x60 DUP1 DUP3 ADD MLOAD SWAP1 DUP7 ADD MSTORE PUSH1 0x80 DUP1 DUP3 ADD MLOAD SWAP1 DUP7 ADD MSTORE PUSH1 0xA0 DUP1 DUP3 ADD MLOAD SWAP1 DUP7 ADD MSTORE PUSH1 0xC0 DUP1 DUP3 ADD MLOAD SWAP1 DUP7 ADD MSTORE PUSH1 0xE0 DUP1 DUP3 ADD MLOAD SWAP1 DUP7 ADD MSTORE PUSH2 0x100 SWAP1 DUP2 ADD MLOAD ISZERO ISZERO SWAP1 DUP6 ADD MSTORE PUSH2 0x120 SWAP1 SWAP4 ADD SWAP3 SWAP1 DUP6 ADD SWAP1 PUSH1 0x1 ADD PUSH2 0xC0E JUMP JUMPDEST POP SWAP2 SWAP8 SWAP7 POP POP POP POP POP POP POP JUMP JUMPDEST PUSH1 0x20 DUP1 DUP3 MSTORE PUSH1 0x14 SWAP1 DUP3 ADD MSTORE PUSH20 0x14185B995B08191BD95CC81B9BDD08195E1A5CDD PUSH1 0x62 SHL PUSH1 0x40 DUP3 ADD MSTORE PUSH1 0x60 ADD SWAP1 JUMP JUMPDEST PUSH4 0x4E487B71 PUSH1 0xE0 SHL PUSH1 0x0 MSTORE PUSH1 0x32 PUSH1 0x4 MSTORE PUSH1 0x24 PUSH1 0x0 REVERT JUMPDEST PUSH4 0x4E487B71 PUSH1 0xE0 SHL PUSH1 0x0 MSTORE PUSH1 0x11 PUSH1 0x4 MSTORE PUSH1 0x24 PUSH1 0x0 REVERT JUMPDEST DUP2 DUP2 SUB DUP2 DUP2 GT ISZERO PUSH2 0xD01 JUMPI PUSH2 0xD01 PUSH2 0xCD8 JUMP JUMPDEST SWAP3 SWAP2 POP POP JUMP JUMPDEST PUSH4 0x4E487B71 PUSH1 0xE0 SHL PUSH1 0x0 MSTORE PUSH1 0x31 PUSH1 0x4 MSTORE PUSH1 0x24 PUSH1 0x0 REVERT JUMPDEST PUSH1 0x0 PUSH1 0x1 DUP3 ADD PUSH2 0xD2F JUMPI PUSH2 0xD2F PUSH2 0xCD8 JUMP JUMPDEST POP PUSH1 0x1 ADD SWAP1 JUMP JUMPDEST PUSH4 0x4E487B71 PUSH1 0xE0 SHL PUSH1 0x0 MSTORE PUSH1 0x41 PUSH1 0x4 MSTORE PUSH1 0x24 PUSH1 0x0 REVERT INVALID LOG2 PUSH5 0x6970667358 0x22 SLT KECCAK256 PUSH4 0xFB57A1D5 0xA5 0xED DIV 0xF8 SELFDESTRUCT SLOAD PUSH21 0x3E0B3FFEA2DED92EAA4044317557296A2761EAB064 PUSH20 0x6F6C634300081400330000000000000000000000 "},"methodIdentifiers":{"createPanel(uint256,uint256,uint256,uint256,uint256)":"e3807a88","getAllPanels()":"f94e6c98","getMyPanels()":"ef4c0949","getPanel(uint256)":"94f178df","ownerPanels(address,uint256)":"b25c1557","panelCount()":"96879ef0","panels(uint256)":"f40e4f6f","transferPanelOwnership(uint256,address)":"3075494a","updatePanel(uint256,uint256,uint256,uint256)":"3453a61d"}}}}}