{
  "_format": "hh-sol-artifact-1",
  "contractName": "SolarTrade",
  "sourceName": "contracts/SolarTrade.sol",
  "abi": [
    {
      "inputs": [
        {
          "internalType": "address",
          "name": "_tokenAddress",
          "type": "address"
        }
      ],
      "stateMutability": "nonpayable",
      "type": "constructor"
    },
    {
      "inputs": [
        {
          "internalType": "uint256",
          "name": "required",
          "type": "uint256"
        },
        {
          "internalType": "uint256",
          "name": "actual",
          "type": "uint256"
        }
      ],
      "name": "InsufficientAllowance",
      "type": "error"
    },
    {
      "inputs": [
        {
          "internalType": "uint256",
          "name": "required",
          "type": "uint256"
        },
        {
          "internalType": "uint256",
          "name": "actual",
          "type": "uint256"
        }
      ],
      "name": "InsufficientBalance",
      "type": "error"
    },
    {
      "inputs": [],
      "name": "InvalidPanel",
      "type": "error"
    },
    {
      "inputs": [],
      "name": "Unauthorized",
      "type": "error"
    },
    {
      "anonymous": false,
      "inputs": [
        {
          "indexed": true,
          "internalType": "uint256",
          "name": "panelId",
          "type": "uint256"
        },
        {
          "indexed": true,
          "internalType": "address",
          "name": "newOwner",
          "type": "address"
        },
        {
          "indexed": false,
          "internalType": "uint256",
          "name": "price",
          "type": "uint256"
        }
      ],
      "name": "PanelBought",
      "type": "event"
    },
    {
      "anonymous": false,
      "inputs": [
        {
          "indexed": true,
          "internalType": "uint256",
          "name": "panelId",
          "type": "uint256"
        },
        {
          "indexed": true,
          "internalType": "address",
          "name": "owner",
          "type": "address"
        },
        {
          "indexed": false,
          "internalType": "uint256",
          "name": "price",
          "type": "uint256"
        }
      ],
      "name": "PanelCreated",
      "type": "event"
    },
    {
      "anonymous": false,
      "inputs": [
        {
          "indexed": true,
          "internalType": "uint256",
          "name": "panelId",
          "type": "uint256"
        },
        {
          "indexed": false,
          "internalType": "uint256",
          "name": "price",
          "type": "uint256"
        }
      ],
      "name": "PanelListedForSale",
      "type": "event"
    },
    {
      "anonymous": false,
      "inputs": [
        {
          "indexed": true,
          "internalType": "uint256",
          "name": "panelId",
          "type": "uint256"
        },
        {
          "indexed": false,
          "internalType": "uint256",
          "name": "batteryTemp",
          "type": "uint256"
        },
        {
          "indexed": false,
          "internalType": "uint256",
          "name": "dcPower",
          "type": "uint256"
        },
        {
          "indexed": false,
          "internalType": "uint256",
          "name": "acPower",
          "type": "uint256"
        }
      ],
      "name": "PanelUpdated",
      "type": "event"
    },
    {
      "inputs": [
        {
          "internalType": "uint256",
          "name": "_panelId",
          "type": "uint256"
        }
      ],
      "name": "buyPanel",
      "outputs": [],
      "stateMutability": "nonpayable",
      "type": "function"
    },
    {
      "inputs": [
        {
          "internalType": "uint256",
          "name": "_lat",
          "type": "uint256"
        },
        {
          "internalType": "uint256",
          "name": "_lng",
          "type": "uint256"
        },
        {
          "internalType": "uint256",
          "name": "_batteryTemp",
          "type": "uint256"
        },
        {
          "internalType": "uint256",
          "name": "_dcPower",
          "type": "uint256"
        },
        {
          "internalType": "uint256",
          "name": "_acPower",
          "type": "uint256"
        },
        {
          "internalType": "uint256",
          "name": "_price",
          "type": "uint256"
        }
      ],
      "name": "createPanel",
      "outputs": [],
      "stateMutability": "nonpayable",
      "type": "function"
    },
    {
      "inputs": [
        {
          "internalType": "address",
          "name": "_token",
          "type": "address"
        }
      ],
      "name": "emergencyTokenWithdraw",
      "outputs": [],
      "stateMutability": "nonpayable",
      "type": "function"
    },
    {
      "inputs": [
        {
          "internalType": "uint256",
          "name": "_panelId",
          "type": "uint256"
        }
      ],
      "name": "getPanelHistory",
      "outputs": [
        {
          "internalType": "address[]",
          "name": "",
          "type": "address[]"
        }
      ],
      "stateMutability": "view",
      "type": "function"
    },
    {
      "inputs": [
        {
          "internalType": "uint256",
          "name": "_panelId",
          "type": "uint256"
        }
      ],
      "name": "getPanelInfo",
      "outputs": [
        {
          "internalType": "address",
          "name": "",
          "type": "address"
        },
        {
          "internalType": "uint256",
          "name": "",
          "type": "uint256"
        },
        {
          "internalType": "uint256",
          "name": "",
          "type": "uint256"
        },
        {
          "internalType": "uint256",
          "name": "",
          "type": "uint256"
        },
        {
          "internalType": "uint256",
          "name": "",
          "type": "uint256"
        },
        {
          "internalType": "uint256",
          "name": "",
          "type": "uint256"
        },
        {
          "internalType": "uint256",
          "name": "",
          "type": "uint256"
        },
        {
          "internalType": "bool",
          "name": "",
          "type": "bool"
        }
      ],
      "stateMutability": "view",
      "type": "function"
    },
    {
      "inputs": [],
      "name": "owner",
      "outputs": [
        {
          "internalType": "address",
          "name": "",
          "type": "address"
        }
      ],
      "stateMutability": "view",
      "type": "function"
    },
    {
      "inputs": [
        {
          "internalType": "uint256",
          "name": "",
          "type": "uint256"
        },
        {
          "internalType": "uint256",
          "name": "",
          "type": "uint256"
        }
      ],
      "name": "ownershipHistory",
      "outputs": [
        {
          "internalType": "address",
          "name": "",
          "type": "address"
        }
      ],
      "stateMutability": "view",
      "type": "function"
    },
    {
      "inputs": [],
      "name": "panelCount",
      "outputs": [
        {
          "internalType": "uint256",
          "name": "",
          "type": "uint256"
        }
      ],
      "stateMutability": "view",
      "type": "function"
    },
    {
      "inputs": [
        {
          "internalType": "uint256",
          "name": "",
          "type": "uint256"
        }
      ],
      "name": "panels",
      "outputs": [
        {
          "internalType": "uint256",
          "name": "id",
          "type": "uint256"
        },
        {
          "internalType": "address",
          "name": "owner",
          "type": "address"
        },
        {
          "internalType": "uint256",
          "name": "price",
          "type": "uint256"
        },
        {
          "internalType": "uint256",
          "name": "lat",
          "type": "uint256"
        },
        {
          "internalType": "uint256",
          "name": "lng",
          "type": "uint256"
        },
        {
          "internalType": "uint256",
          "name": "batteryTemp",
          "type": "uint256"
        },
        {
          "internalType": "uint256",
          "name": "dcPower",
          "type": "uint256"
        },
        {
          "internalType": "uint256",
          "name": "acPower",
          "type": "uint256"
        },
        {
          "internalType": "bool",
          "name": "isForSale",
          "type": "bool"
        }
      ],
      "stateMutability": "view",
      "type": "function"
    },
    {
      "inputs": [
        {
          "internalType": "uint256",
          "name": "_panelId",
          "type": "uint256"
        },
        {
          "internalType": "uint256",
          "name": "_newPrice",
          "type": "uint256"
        }
      ],
      "name": "setForSale",
      "outputs": [],
      "stateMutability": "nonpayable",
      "type": "function"
    },
    {
      "inputs": [],
      "name": "token",
      "outputs": [
        {
          "internalType": "contract IERC20",
          "name": "",
          "type": "address"
        }
      ],
      "stateMutability": "view",
      "type": "function"
    },
    {
      "inputs": [
        {
          "internalType": "uint256",
          "name": "_panelId",
          "type": "uint256"
        },
        {
          "internalType": "uint256",
          "name": "_batteryTemp",
          "type": "uint256"
        },
        {
          "internalType": "uint256",
          "name": "_dcPower",
          "type": "uint256"
        },
        {
          "internalType": "uint256",
          "name": "_acPower",
          "type": "uint256"
        }
      ],
      "name": "updatePanelData",
      "outputs": [],
      "stateMutability": "nonpayable",
      "type": "function"
    }
  ],
  "bytecode": "0x6080604052600060025534801561001557600080fd5b50604051611204380380611204833981016040819052610034916100c1565b6001600160a01b03811661008e5760405162461bcd60e51b815260206004820152601560248201527f496e76616c696420746f6b656e20616464726573730000000000000000000000604482015260640160405180910390fd5b60018054336001600160a01b031991821617909155600080549091166001600160a01b03929092169190911790556100f1565b6000602082840312156100d357600080fd5b81516001600160a01b03811681146100ea57600080fd5b9392505050565b611104806101006000396000f3fe608060405234801561001057600080fd5b50600436106100b45760003560e01c806396879ef01161007157806396879ef0146101a2578063ad568827146101b9578063c9cf2adc146101cc578063eb6ce95f146101df578063f40e4f6f146101f2578063fc0c546a146102a757600080fd5b806317fcfe22146100b9578063430ee86c146100ce578063477fb476146100e15780636491070c1461010a57806376a0506c146101645780638da5cb5b14610177575b600080fd5b6100cc6100c7366004610f3f565b6102ba565b005b6100cc6100dc366004610f61565b6103f0565b6100f46100ef366004610f61565b61077b565b6040516101019190610f7a565b60405180910390f35b61011d610118366004610f61565b610815565b604080516001600160a01b0390991689526020890197909752958701949094526060860192909252608085015260a084015260c0830152151560e082015261010001610101565b6100cc610172366004610fc7565b6108ee565b60015461018a906001600160a01b031681565b6040516001600160a01b039091168152602001610101565b6101ab60025481565b604051908152602001610101565b6100cc6101c7366004610ff9565b6109b4565b61018a6101da366004610f3f565b610b4f565b6100cc6101ed366004611029565b610b87565b610259610200366004610f61565b600360208190526000918252604090912080546001820154600283015493830154600484015460058501546006860154600787015460089097015495976001600160a01b03909516969495939492939192909160ff1689565b60408051998a526001600160a01b0390981660208a0152968801959095526060870193909352608086019190915260a085015260c084015260e0830152151561010082015261012001610101565b60005461018a906001600160a01b031681565b818015806102c9575060025481115b156102e7576040516376bd905360e11b815260040160405180910390fd5b600083815260036020526040902060018101546001600160a01b031633146103485760405162461bcd60e51b815260206004820152600f60248201526e2737ba103830b732b61037bbb732b960891b60448201526064015b60405180910390fd5b600083116103985760405162461bcd60e51b815260206004820152601c60248201527f5072696365206d7573742062652067726561746572207468616e203000000000604482015260640161033f565b60088101805460ff191660011790556002810183905560405184907f18cc78ee559b821cf636f73137f0c6e269835aba44d039ab7d97efee110bb2b2906103e29086815260200190565b60405180910390a250505050565b808015806103ff575060025481115b1561041d576040516376bd905360e11b815260040160405180910390fd5b6000828152600360205260409020600881015460ff166104745760405162461bcd60e51b815260206004820152601260248201527150616e656c206e6f7420666f722073616c6560701b604482015260640161033f565b6001810154336001600160a01b03909116036104d25760405162461bcd60e51b815260206004820152601960248201527f43616e6e6f742062757920796f7572206f776e2070616e656c00000000000000604482015260640161033f565b60008054604051636eb1769f60e11b81523360048201523060248201526001600160a01b039091169063dd62ed3e90604401602060405180830381865afa158015610521573d6000803e3d6000fd5b505050506040513d601f19601f82011682018060405250810190610545919061106c565b9050816002015481101561057c57600282015460405163054365bb60e31b815260048101919091526024810182905260440161033f565b600080546040516370a0823160e01b81523360048201526001600160a01b03909116906370a0823190602401602060405180830381865afa1580156105c5573d6000803e3d6000fd5b505050506040513d601f19601f820116820180604052508101906105e9919061106c565b9050826002015481101561062057600283015460405163cf47918160e01b815260048101919091526024810182905260440161033f565b600054600184015460028501546040516323b872dd60e01b81523360048201526001600160a01b03928316602482015260448101919091529116906323b872dd906064016020604051808303816000875af1158015610683573d6000803e3d6000fd5b505050506040513d601f19601f820116820180604052508101906106a79190611085565b6106eb5760405162461bcd60e51b8152602060048201526015602482015274151bdad95b881d1c985b9cd9995c8819985a5b1959605a1b604482015260640161033f565b60018381018054336001600160a01b0319918216811790925560088601805460ff191690556000888152600460209081526040808320805496870181558352918190209094018054909216831790915560028601549051908152909187917faf2b2c518f34b58845add88ebdbcfb9ddf3b907046d82d77234318a3d221efe1910160405180910390a35050505050565b60608180158061078c575060025481115b156107aa576040516376bd905360e11b815260040160405180910390fd5b6000838152600460209081526040918290208054835181840281018401909452808452909183018282801561080857602002820191906000526020600020905b81546001600160a01b031681526001909101906020018083116107ea575b5050505050915050919050565b6000808080808080808880158061082d575060025481115b1561084b576040516376bd905360e11b815260040160405180910390fd5b50505060009687525050600360208181526040968790208751610120810189528154815260018201546001600160a01b031692810183905260028201549881018990529281015460608401819052600482015460808501819052600583015460a08601819052600684015460c08701819052600785015460e0880181905260089095015460ff161515610100909701879052949b92995090975095509193509190565b6001546001600160a01b03163314610918576040516282b42960e81b815260040160405180910390fd5b83801580610927575060025481115b15610945576040516376bd905360e11b815260040160405180910390fd5b600085815260036020908152604091829020600581018790556006810186905560078101859055825187815291820186905291810184905286907f26171779e4beda8723f55fd9ee403e6c9a73b3c22e858fa4cdbe80656e401a609060600160405180910390a2505050505050565b6001546001600160a01b031633146109de576040516282b42960e81b815260040160405180910390fd5b6040516370a0823160e01b815230600482015281906000906001600160a01b038316906370a0823190602401602060405180830381865afa158015610a27573d6000803e3d6000fd5b505050506040513d601f19601f82011682018060405250810190610a4b919061106c565b905060008111610a955760405162461bcd60e51b81526020600482015260156024820152744e6f20746f6b656e7320746f20776974686472617760581b604482015260640161033f565b60015460405163a9059cbb60e01b81526001600160a01b039182166004820152602481018390529083169063a9059cbb906044016020604051808303816000875af1158015610ae8573d6000803e3d6000fd5b505050506040513d601f19601f82011682018060405250810190610b0c9190611085565b610b4a5760405162461bcd60e51b815260206004820152600f60248201526e151c985b9cd9995c8819985a5b1959608a1b604482015260640161033f565b505050565b60046020528160005260406000208181548110610b6b57600080fd5b6000918252602090912001546001600160a01b03169150829050565b60008054604051636eb1769f60e11b81523360048201523060248201526001600160a01b039091169063dd62ed3e90604401602060405180830381865afa158015610bd6573d6000803e3d6000fd5b505050506040513d601f19601f82011682018060405250810190610bfa919061106c565b905081811015610c275760405163054365bb60e31b8152600481018390526024810182905260440161033f565b600080546040516370a0823160e01b81523360048201526001600160a01b03909116906370a0823190602401602060405180830381865afa158015610c70573d6000803e3d6000fd5b505050506040513d601f19601f82011682018060405250810190610c94919061106c565b905082811015610cc15760405163cf47918160e01b8152600481018490526024810182905260440161033f565b6000546001546040516323b872dd60e01b81523360048201526001600160a01b039182166024820152604481018690529116906323b872dd906064016020604051808303816000875af1158015610d1c573d6000803e3d6000fd5b505050506040513d601f19601f82011682018060405250810190610d409190611085565b610d845760405162461bcd60e51b8152602060048201526015602482015274151bdad95b881d1c985b9cd9995c8819985a5b1959605a1b604482015260640161033f565b60028054906000610d94836110a7565b91905055506040518061012001604052806002548152602001336001600160a01b03168152602001848152602001898152602001888152602001878152602001868152602001858152602001600115158152506003600060025481526020019081526020016000206000820151816000015560208201518160010160006101000a8154816001600160a01b0302191690836001600160a01b0316021790555060408201518160020155606082015181600301556080820151816004015560a0820151816005015560c0820151816006015560e082015181600701556101008201518160080160006101000a81548160ff021916908315150217905550905050600460006002548152602001908152602001600020339080600181540180825580915050600190039060005260206000200160009091909190916101000a8154816001600160a01b0302191690836001600160a01b03160217905550336001600160a01b03166002547f38dd377fff01289c7455edb5c551df70d98a445ccb8c1b3f0cad4579477f41ce85604051610f2d91815260200190565b60405180910390a35050505050505050565b60008060408385031215610f5257600080fd5b50508035926020909101359150565b600060208284031215610f7357600080fd5b5035919050565b6020808252825182820181905260009190848201906040850190845b81811015610fbb5783516001600160a01b031683529284019291840191600101610f96565b50909695505050505050565b60008060008060808587031215610fdd57600080fd5b5050823594602084013594506040840135936060013592509050565b60006020828403121561100b57600080fd5b81356001600160a01b038116811461102257600080fd5b9392505050565b60008060008060008060c0878903121561104257600080fd5b505084359660208601359650604086013595606081013595506080810135945060a0013592509050565b60006020828403121561107e57600080fd5b5051919050565b60006020828403121561109757600080fd5b8151801515811461102257600080fd5b6000600182016110c757634e487b7160e01b600052601160045260246000fd5b506001019056fea2646970667358221220fd9edcc2fc6c60bb027e6d51322b501b441130e039911eaef40de5f726742d1b64736f6c63430008140033",
  "linkReferences": {},
  "deployedLinkReferences": {}
}